:100000000200D88F828E83E5821582AE837002153E
:10001000834E60097F147E0012001E80EA22EF1FCB
:10002000AA0670011E4A600BE4FDEDC3940F50EE6A
:040030000D80F72226
:10003B000200CB9080007480F0A3F0A3F0A3F0A398
:10004B00F0A3F0A3F0A3F0908009F0A3F0A3F0A32A
:10005B00F0A3F0A3F0A3F0A3F0A3F0908018F0A30B
:10006B00F0A3F0A3F0A3F0A3F0A3F0A3F0E4F5B199
:10007B00F5A15386F790FC00E04440F0E5FF45FE08
:10008B0070FAA2AF9200C2AFE58754844402F587A1
:10009B00000000A20092AF438608229080087401F2
:1000AB00F0E4F5C075FB88D2E843F901D2AF22D258
:1000BB00AF1200A612003E7FE87E0312000380F40D
:1000CB00C0E0E5FA30E00375FA01D0E032787FE466
:0900DB00F6D8FD7581200200BA7F
:00000001FF
