:100000000200FCE4F508D2AF90810104F090800971
:100010007486F0A3F075B18DE4F5B275B42943B1DF
:1000200020E5B730E0FBE5B664086002806675B590
:10003000CA43B701E5B730E0FBE5B664186002805B
:1000400053E4F5B543B701E5B730E0FBE5B6642806
:100050006002804043B12043B701E5B730E0FBE5E3
:10006000B664086002802D75B5CB43B701E5B730A3
:10007000E0FBE5B664406002801A43B104E4F50891
:1000800043B701E5B730E0FBE5B66428600BE5B6A1
:100090006430600543B701802274002508F582E4CE
:1000A0003400F583E5B5F0E508B4120553B1FB80E3
:1000B0000343B1040508E508B414C543B11043B7C0
:1000C000017F647E001200CB02001E8F828E83E5CA
:1000D000821582AE83700215834E60097F147E0004
:1000E0001200E680EA22EF1FAA0670011E4A600B8A
:1000F000E4FDEDC3940F50EE0D80F722787FE4F617
:08010000D8FD7581080200031F
:00000001FF
