:100000000208D1C0E0C0F0C083C082C0D075D0006B
:10001000C000C001C002C003C004C005C006C007C4
:10002000E5C76003120757D007D006D005D004D02B
:1000300003D002D001D000D0D0D082D083D0F0D075
:10004000E03232020003120CFFD2AF1209E8120BA9
:10005000E2900097E0E52B452A80F3020042410040
:0600600000000121000078
:10006B00020AAEBB010689828A83F0225002F72274
:10007B00BBFE01F322EF8DF0A4A8F0CF8CF0A428E7
:10008B00CE8DF0A42EFE22BC000BBE0029EF8DF00E
:10009B0084FFADF022E4CCF875F008EF2FFFEE33C0
:1000AB00FEEC33FCEE9DEC984005FCEE9DFE0FD56F
:1000BB00F0E9E4CEFD22EDF8F5F0EE8420D21CFE43
:1000CB00ADF075F008EF2FFFED33FD4007985006AC
:1000DB00D5F0F222C398FD0FD5F0EA22C2D5EC3051
:1000EB00E709B2D5E4C39DFDE49CFCEE30E715B205
:1000FB00D5E4C39FFFE49EFE120092C3E49DFDE492
:10010B009CFC800312009230D507C3E49FFFE49E52
:10011B00FE22C5F0F8A3E028F0C5F0F8E5821582C1
:10012B0070021583E038F022BB0110E58229F582BD
:10013B00E5833AF583E0F5F0A3E0225009E9258247
:10014B00F886F008E622BBFE0AE92582F8E2F5F014
:10015B0008E222E5832AF583E993F5F0A3E99322DC
:10016B0075F008758200EF2FFFEE33FECD33CDCC4B
:10017B0033CCC58233C5829BED9AEC99E5829840CE
:10018B000CF582EE9BFEED9AFDEC99FC0FD5F0D6AB
:10019B00E4CEFBE4CDFAE4CCF9A88222B800C1B9D5
:1001AB000059BA002DEC8BF084CFCECDFCE5F0CB13
:1001BB00F97818EF2FFFEE33FEED33FDEC33FCEB4C
:1001CB0033FB10D703994004EB99FB0FD8E5E4F907
:1001DB00FA227818EF2FFFEE33FEED33FDEC33FCF4
:1001EB00C933C910D7059BE99A4007EC9BFCE99AE8
:1001FB00F90FD8E0E4C9FAE4CCFB2275F010EF2F2D
:10020B00FFEE33FEED33FDCC33CCC833C810D7072C
:10021B009BEC9AE899400AED9BFDEC9AFCE899F867
:10022B000FD5F0DAE4CDFBE4CCFAE4C8F922A4252F
:10023B0082F582E5F03583F58322E493FB74019319
:10024B00FA740293F922EC8EF0A4CCC5F0CCCDF865
:10025B00EFA4CEC5F02DFDE43CFCE8A42EC8C5F000
:10026B003DFDE43CFCEFA4FFE5F028FEE43DFDE49E
:10027B003CFC22E4F515E525B5150AE515120646F5
:10028B001205A880251205751205B412062AFDE584
:10029B00251205B2F583E0FAA3E0FB120B0A120557
:1002AB00B012062AC39FFFEC9EFE1205C8120595DD
:1002BB001205D41204128F161205C81204128F17CE
:1002CB00E51764026008E51764036002C202E516D5
:1002DB00600302037AE517707612061C701B120579
:1002EB00BCE060030203F5EF4EF61205FC743CF024
:1002FB001205BC7402F00203F5E515120612120585
:10030B00A8900079E0FCA3E0FD120251C006C007E3
:10031B00E515120608F583E0FEA3E0FBAA06E4F957
:10032B00F8D007D0061201A7E51512058C1205BCF3
:10033B007402F01205FCE060030203F5E515900D65
:10034B00A993F4783756F61205511205B480421270
:10035B00061C70030203E21205BCE060030203F506
:10036B00EFF45EF61205B01205801205D88022E577
:10037B001770101205C81205801205D8120595E4E6
:10038B00FD80627837E660101205B0120580120509
:10039B00D81205957D02804D1205D41205801205E9
:1003AB00CC12062AFD7B147A00120C7EEF60281209
:1003BB0005BCE0703512055112058E9000791205BF
:1003CB008212060A1205951205B012058012061448
:1003DB001205957D02800E1205C81205801205D8F4
:1003EB00120595AD17AF15120D410515E515C39403
:1003FB000650030202817837E6900097F06004758F
:10040B00280122E4F52822F583E0FCA3E0FDE515A5
:10041B00900DA99378375624FF92037B147A00AF83
:10042B0015120A4F2290006CE0AD297C002DFFECD9
:10043B0033FEEF25E0FFEE33FE740D2FF5827400D3
:10044B003EF583E022FAA3E0FBED2500FFEC33FE43
:10045B00EF25E0FFEE33FE746D2FF58274003EF551
:10046B0083E022900DA893FCFFEDC39FFFE4940063
:10047B00FEEF780522FFECFDC374809DFDE4940034
:10048B00FC0200E775F00290000D020239FFC3EB8E
:10049B009FFFEA9E9000C6F0A3EFF0EDFF9000C621
:1004AB00E48FF002011DE50090006D75F002120261
:1004BB0039E0FEA3E0FF22FFC374209FFFE494000A
:1004CB00FE120080EF780622C3EB9FEE6480F8EA01
:1004DB0064809822ED75F004A4FF9000C6E5F0F05F
:1004EB00A3EFF022900DA893FFEDC39F22E500C36D
:1004FB0013FEE50013FFC3E5009F22AC00AD001215
:10050B000092AD07229000C6E0FAA3E0FBAE0278A2
:10051B000222FEA3E0FFAD03AC02020251FEA3E0F8
:10052B002BFFEE3AFEC3EF22FEA3E0FBAA06E4F993
:10053B00F8229000C6E0FEA3E0780222AC00AD00EA
:10054B00120092AD0722E51525E0246DF582E43407
:10055B0000F583E0FEA3E0FFE51525E02401F5821D
:10056B00E43400F583EEF0A3EFF0E51525E0246D00
:10057B00F582E43400F583E0FEA3E0FFE51525E00A
:10058B002225E0240DF582E43400F583EEF0A3EF91
:10059B00F022E51525E0247CF582E43400F583E0B8
:1005AB00FEA3E0FF22E51525E0240DF582E43400DF
:1005BB002274B22515F582E43400F58322E5152566
:1005CB00E024B8F582E4340022E51525E02401F59A
:1005DB0082E434002274992515F582E43400F58306
:1005EB0022E51575F00AA42419F582E43400F5838D
:1005FB002274A02515F582E43400F5832225E0242E
:10060B00A6F582E434002225E02460F582E4340070
:10061B0022E515900DA993FF7837E6FEEF5E22F5E4
:10062B0083E0FCA3E0227835E62401FFE433FEC32C
:10063B002225E0247CF582E434002225E0246DF5AC
:10064B0082E4340022AB07E4F9F8AF1FAE1E229010
:10065B00005FE07015C201900098F0F526120B595F
:10066B0090005F7402F07521322290005FE064020B
:10067B006003020756200103020756C2011521E54C
:10068B00216003020756E47836F6F515120631E5BC
:10069B00159FEE6480F87480984003020747E4FFCF
:1006AB00E51512063C12062AFDE5151205EE75F04E
:1006BB0002EF120239ECF0A3EDF00FBF05E27499D3
:1006CB0025151205E4E4F0E515783566606E120524
:1006DB009DE51512058C12059DE5151205D6120523
:1006EB009512059DE5151205CA120595900088E037
:1006FB00FEA3E0FFE515120608120595E515120598
:10070B00B21205A8E515120612120595E51525E09E
:10071B0025E02492F582E4340DF583E493FE740115
:10072B0093FFE51525E0248AF582E4340012059544
:10073B007D02AF15120D4105150206977B017A005C
:10074B00790D120BA38F25782E760122908109E06B
:10075B0054E06004E044E0F085C008E4FD74017EE1
:10076B0000A805088005C333CE33CED8F9FFACC73C
:10077B00ECFBEF5B601F7401A805088002C333D844
:10078B00FCF5C78DC0ED25E02409F8A6CFED25E0DB
:10079B00240AF8A6CE0DBD06C4E4FDED25E0240920
:1007AB00F8E6FE08E6FFE5262D12063C120595ED50
:1007BB00FFE5262FFFE433FE7835E66F7001EE6020
:1007CB00040DBD06D6E5262406FFE433FE7835E698
:1007DB00FDD3EF9D7480F86E984007D201E4F526A7
:1007EB00800674062526F526120B59900098E060BA
:1007FB000214F09000C9E0FF9000C8E0FE6F6006A5
:10080B00A3EEF075AAA58508C022E4F515120631F2
:10081B00E5159FEE6480F874809840030208D012AF
:10082B0005E0E004F01205E0E0C394054005120575
:10083B00E0E4F0C2E9E51512059F1205ECC083C098
:10084B00821205E0E0D082D08375F002120239EEFD
:10085B00F0A3EFF0D2E9E4F516F517F518F51974D6
:10086B00FFF51AF51BE4FF1205EC75F002EF12020F
:10087B0039E0FCA3E0FD2517F517EC3516F516D37B
:10088B00ED9519EC951840048C188D19C3ED951B3B
:10089B00EC951A50048C1A8D1B0FBF05CAC3E517B4
:1008AB009519FFE5169518FEC3EF951BFFEE951AEC
:1008BB00FE7C007D03120092E5151206461205958B
:1008CB00051502081822787FE4F6D8FD75813702EA
:1008DB000918020046E493A3F8E493A34003F680BF
:1008EB0001F208DFF48029E493A3F85407240CC821
:1008FB00C333C4540F4420C8834004F456800146CC
:10090B00F6DFE4800B010204081020408090005EAB
:10091B00E47E019360BCA3FF543F30E509541FFEF6
:10092B00E493A360010ECF54C025E060A840B8E467
:10093B0093A3FAE493A3F8E493A3C8C582C8CAC5EA
:10094B0083CAF0A3C8C582C8CAC583CADFE9DEE77C
:10095B0080BEE4F52AF52BE5277039900097E0600F
:10096B007BE4FFEF900DA993FE900097E05E600E85
:10097B008F24EF900DB493752200F52380040FBFE5
:10098B0006E185222A85232BC200752C00752DFAD2
:10099B0075270122E52764017042E524900DA99388
:1009AB00FF900097E05F6021E52D452C702E200015
:1009BB0008D200E52244408004E5224420F52A8534
:1009CB00232B752C00752D4622E5222000044410A4
:1009DB0080024430F52A85232BE4F52722783576DF
:1009EB0006E4FFFEEE25E025E02490F582E4340DCD
:1009FB00F583740193FDAC070F742F2CF8A6050E2D
:100A0B00BE06E143A18043A28075F1E0E4F5EDD28F
:100A1B00EE120C2175C20A75C1409081037457F018
:100A2B00D2E9C201E4900097F07837F6F528782EDA
:100A3B00F690005FF09000C9F09000C8F0F527F534
:100A4B002AF52B228A188B19A907E912048FE0FECD
:100A5B00A3E0C39DFFEE9CAB07FAE990008A12045A
:100A6B00B630030B7C007D091200800D1200E712DB
:100A7B0004D340037F0022D3EB9519E5181204D75A
:100A8B0040037F0122C3EA6480948040037F0222EB
:100A9B00C3E49519FFE49518FE1204D37F044002BA
:100AAB007F0322C0E0C0F0C083C082C0D075D000ED
:100ABB00C000C001C002C003C004C005C006C0070F
:100ACB00E5EE30E21475EE04120C50E52D452C606A
:100ADB0008E52D152D7002152CE5EE30E10675EEAF
:100AEB0002120CACD007D006D005D004D003D00234
:100AFB00D001D000D0D0D082D083D0F0D0E0328ED5
:100B0B00188F198A1A8B1B8D828C83AE1AAF1BAC74
:100B1B0018AD191202518F1F8E1E8D1D8C1CAE83AA
:100B2B00AF82AA061206501201A7E519251BCDE5C7
:100B3B0018351ACDC39FFFED9EFA120650AD1DACB2
:100B4B001C1201A7C3E51B9FFFE51A9EFE22E4FFC3
:100B5B00EFC39406503EEFFDE5262DFDE433FC7804
:100B6B0035E6FBC3ED9B7480F86C9840168FC0750F
:100B7B00C455EF04FEEEC3940650198EC075C440E5
:100B8B000E80F28FC0E5262F242FF8E6044440F5A3
:100B9B00C40F80BC43C180228B168A17891874FF3F
:100BAB00F519F51AE4FE7835E6FDEEC39D5027AB3B
:100BBB0016AA17A91875F002EEA4F58285F0831218
:100BCB000133FDACF0C3951AEC951950068C198DB9
:100BDB001AAF060E80D022782EE61460080470330C
:100BEB0012065A802E300119C2019000C9E0049000
:100BFB0000C8F0120815D202E52864026003120245
:100C0B007E900098E0C394054009E4F5C175C73F99
:100C1B001209E802095D9080117403F0E4FF783546
:100C2B00E6FEEFC39E501D742F2FF8E675F003A45C
:100C3B002454F582E4340DF583120245740412003A
:100C4B006E0F80DA22900000E004F0E0C3940440C1
:100C5B0021E4F0FF7835E6FEEFC39E501574B22FFA
:100C6B001205C0E0600974B22F1205C0E014F00F3A
:100C7B0080E222C3EF9DFFEE9CFED3EF9BEA6480E4
:100C8B00F8EE6480985017C3E49BFDE49AFCC3EF25
:100C9B009DEC6480F8EE64809840037F01227F0016
:100CAB0022900098E004F0E4FF74A02F120600E0FD
:100CBB00600974A02F120600E014F00FBF06EA784B
:100CCB0036E6600116900096E0600214F022EFC346
:100CDB009402401FEFD394085019EF24FE333333A3
:100CEB0054F84480F5ADE5AD30E0FBE5A254F84493
:100CFB0004F5A22275EFE17F06120CD943A1807592
:100D0B00A941E4F5AC75AB4B75AAA5120D21E5BB5A
:100D1B0054C04FF5BB2290FC017480F0E490FC06AC
:100D2B00F090FC057424F090FC017481F0A3E0FFBB
:100D3B00E490FC01F022ED900DAF93FE74B22FF511
:100D4B0082E43400F583EEF0220180080180090172
:100D5B00800A01800B01800C01800D01800E018047
:100D6B000F01801F01801E01801D01801C01800767
:100D7B0001800601800501800401800301800201CE
:100D8B008001018000000000460001003C000200D1
:100D9B00370007002D00080037000900460001024C
:100DAB00040810200264501E1E01020304050607EE
:0D0DBB0008090A0B0C0D0E0F101112131475
:00000001FF
