:040000006F10002E4F
:1000040000000000000000006F0080086F00C04A7C
:1000140000000000000000000000000000000000DC
:1000240000000000000000000000000000000000CC
:100034006F004006000000006F00E00500000000B3
:100044006F0080056F0060056F0040056F0020059C
:100054006F0000056F00E0046F00C00400000000A2
:100064006F0060046F0040046F0020046F00000400
:100074006F00404B6F00C003000000006F0060037E
:100084006F0040036F0020036F0000036F00E00265
:1000940001A001A001A001A001A001A001A001A054
:1000A40001A001A001A001A001A001A001A001A044
:1000B40001A001A001A001A001A001A0B717004068
:1000C400130770052380E704130780FA2380E704ED
:1000D4002396A70223800704371700408347270588
:1000E400898BEDDF835707053717004083472705C2
:1000F400898BEDFF3717004083472705898BEDDF98
:100104000355070582804111814601468145114509
:1001140006C6F521B727004011472383E780B7F7C8
:1001240000E003A707D16D9B23A8E7D003A707D15D
:100134005D9B23A8E7D07300501001000100B2407A
:10014400410182804111814601468145114506C61F
:100154007D21B727004011472383E780B71700406C
:1001640003C7E70283C6E70483D7870311661377BF
:10017400F70F93E6360063E5C700719B136717001A
:10018400B7170040930570052380B704130680FA5F
:100194002380C704238207022387E7022387D70427
:1001A40003C7B70413670702A385E7042380070482
:1001B40037F700E0832607D193E646002328D7D0FB
:1001C400832607D1DD9A2328D7D07300501001006D
:1001D40001002380B7042380C70403C7B70413773F
:1001E400F70DA385E70423800704B2404101828010
:1001F400411122C4814681452A840146114506C61F
:10020400FD2EB727004011472383E780B71700402E
:1002140003C7E70283C5E70483D78703916613778F
:10022400F70F93E5350063E5D700719B136717005B
:10023400B7170040130670052380C704930680FA9D
:100244002380D704238207022387E7022387B70486
:100254002380070437F700E0832507D193E54500A1
:100264002328B7D02380C7042380D70483C5F7008D
:1002740093E50504A387B70083C5B70493E5050296
:10028400A385B704E57591054D8C42044180239004
:100294008702832507D1DD992328B7D07300501036
:1002A400010001002380C7042380D70403C7B704D7
:1002B400130560041377F70DA385E704238007046F
:1002C4002244B240410125A4011126CA81460146B7
:1002D400AA848145114506CE22CC4AC84EC60526BD
:1002E400B727004011472383E780B716004083C730
:1002F400E60203C7E60483D68603116693F7F70F75
:100304001367370063E5C600F19B93E717003714C2
:1003140000409309700523003405130980FA230073
:100324002405230204022307F4022307E404230020
:10033400040413055002B920B7F700E003A707D15E
:100344001367470023A8E7D02300340523002405BE
:100354000347F40013670704A307E4002567D98C57
:100364002310940203A707D15D9B23A8E7D0730051
:10037400501001000100F2406244D2444249B249A3
:1003840005618280B7170040930670052380D70467
:10039400130780FA2380E70403C6B7041376F60D27
:1003A400A385C70423800704137605022DC603C65C
:1003B400A700118A0DE22380D7042380E70403C732
:1003C400A700136747002385E7009307004B01004C
:1003D4000100FD17EDFFB717004093067005238059
:1003E400D704130780FA2380E7047D892394A700A8
:1003F4000100010001000100238007042380D704C9
:100404002380E7049306100537270040A303D78011
:10041400238007048280137605046DDE03C6A700DB
:10042400418A0DE22380D7042380E70403C7A70091
:10043400136707012385E7009307007D010001008E
:10044400FD17EDFFB7170040930670052380D7040E
:10045400130780FA7D892380E70413650504239438
:10046400A70001000100010001002380070423808C
:10047400D7042380E704930630053727004079B773
:100484004111814601468145114506C68D2AB7179B
:100494000040130770052380E704130780FA2380C4
:1004A400E70403C76704136717002383E704238063
:1004B4000704B240410182808146014681451145CD
:1004C4003D2AB7170040130770052380E70413077C
:1004D40080FA2380E7047D572396E70203C7670465
:1004E400136717002383E7042380070401A0BD4793
:1004F4003305F50201007D1575FD8280411122C48A
:1005040026C206C6AA84014463179400B24022445A
:1005140092444101828005041305803E4204C13F98
:100524004180DDB7B7170040130700032388E702B3
:10053400854723ACF18073002030411106C6A92100
:10054400FDBF2303048015472303E4800100230235
:10055400A480828083076480E3CE07FE23030480A3
:10056400828083076480E3CE07FE03454480828053
:1005740083076480E3CE07FE2302A48082804111B6
:1005840026C44AC24EC006C61377F50BAD47AA89E6
:100594002E8995446306F70019456537653F8D44F8
:1005A4004E854537FD59FD1463983401B240A24489
:1005B4001249824941018280135509011375F50FCF
:1005C400453F2209CDB7011126CC06CEB704080059
:1005D40051371545BD37713769372AC6A53F3245AE
:1005E4009377150089EB136515001375F50FF24029
:1005F400E24405618280FD14E9FC0145CDBF3971F7
:1006040026DC4ADA4ED852D656D45AD25ED006DE0A
:1006140062CE66CCB7E700E07D5783AA070022C606
:1006240003AA470023A0E71823A2E718B71700403E
:10063400130770052380E704130780FA2380E70477
:1006440083C74704930B75FFB684E20793FBFB0F44
:100654008546AA892E8B328937240040E1870157C9
:1006640063FA76016308D500894613070002631311
:10067400D5000157D98F93F7F70FB71C0040238299
:10068400FC0411472303E4801305F00F5D3D094C7E
:10069400D13563697C11B70707003E9B3787070094
:1006A4007955637EEB02B3079B00636AF702A9479F
:1006B4006399F90689E48144713D26850DA0DA85A4
:1006C4000945753D05090345F9FFFD14050B4D3535
:1006D40081C49377FB0FFDF7FD3569FD7D55B71791
:1006E4000040130770052380E704130780FA238072
:1006F400E70403C74704418B2382E704F250B7E7BA
:1007040000E023A0571123A24711E2543244525966
:10071400C259325AA25A125B825B724CE24C21617A
:100724008280A5476395F90685691309F00FB3061E
:100734009900B3742B01B6941349F9FFB37499006B
:10074400856B33796901416B9387F9FFB3F727010F
:1007540099E363FC340193D94900C147E3E637FFC9
:1007640099BF0569C1697D19D9B71305800D6388DF
:100774006901130500026384790113051008CA8511
:10078400FD3B913521DD4E99B3843441D9B7DA85E7
:100794002D45F533CA94E30099F20509D933A30F23
:1007A400A9FED5BF9387F9FF93F7F70F636CFC0895
:1007B40003C75C04B70708001377070219E3B78778
:1007C40007007955E37DFBF033079B00E3E9E7F08D
:1007D40089476390F9048980D549E38E04ECDA856E
:1007E4000945713B11090327C9FF91472320E48080
:1007F40003076480E34E07FE23033481FD17EDFBFA
:10080400FD14110B81C49377FB0FE9FF6D3B71F568
:10081400F1B58547E387F9F4DA852D458D3393895E
:10082400F4FFE38A04E8353B93F7390091EB832620
:1008340004800327090093074900E39FE6E63E8905
:10084400CE84F1BFB5476396F9001305900BD539F3
:100854009DB5B1471305B00AE38BF9FE9947639E32
:10086400F902DA852D45213B81448D4BA149D539C7
:1008740063967401832704802320F9008504E39898
:1008840034FF8327048013172B01635507002312B9
:10089400F90015B52322F90039BD9D476399F90282
:1008A40081451305B004E139BD4423200900232206
:1008B4000900FD597D3193F77400CA9703C70700F7
:1008C400FD14398D2380A700E39634FFEDB3A147CF
:1008D4006392F904CD398144630D0B008D47930471
:1008E400C0036308FB009304000563048B019304B5
:1008F40040041375C507E30095DC1945993199390E
:10090400054581312685AD3109459D316D39E314A5
:1009140005DAE9B391476399F900130560061531C7
:1009240015391305900925B7E38709D8F15469B33C
:1009340009CDB7170040130770052380E704130798
:1009440080FA2380E7042396A702828019C1814795
:1009540099E982803387F500834607003307F50061
:1009640085072300D700E397C7FEE5B719C1FD57F4
:1009740081E98280910503A7C5FF1105232EE5FEB9
:100984007D16E319F6FEF5B7797122D41724000019
:10099400130444411C4006D626D24AD04ECE91C7F9
:1009A40082979727000023AF073E5C4089CB03D58D
:1009B400C183BD3F5C40829703D5E183953F1C40D2
:1009C400639907189727000083C7D73F858B95C77E
:1009D40097270000A388073E172700000347B73E68
:1009E400914763FCE700BD299727000083C7B73D03
:1009F400F9178A07A2979C4382979727000083C719
:100A04002741918B89C7970000E0E78040AE1C44E2
:100A140091C38297938781839843172600000346E6
:100A240036363E8997240000938484359727000046
:100A340083C7073593961700BA9683D6060063805A
:100A440006109727000083C7A73363F2C7088607F9
:100A54003E97835507002310070003D5C1832EC694
:100A640023920184F135938701859C431725000067
:100A74000345053113172500BA979C43B245829765
:100A8400AA8903D5E1836D359727000083C7472FD3
:100A9400139717008327090003D541841345F5FFF5
:100AA400BA9703D7070033753501598D2390A700F2
:100AB40083C70400850793F7F70F17270000230166
:100AC400F72C172700000347B72B63E6E7009727A7
:100AD40000002387072A1C40ADEF93878184984345
:100AE4003E8425CB9727000083C7372E91CB9727C9
:100AF400000083C7572D89E797F0FFDFE780E055B3
:100B04001C4082972A8431C59C48AA971727000065
:100B14002320F7289387C1849C4385CF03D5C183C1
:100B2400013D228597F0FFDFE78060AD2254B2508B
:100B340092540259F24903D5E1834561D5BB850737
:100B440093F7F70F97260000238CF622E3E0C7EE15
:100B5400CDBDB250225492540259F249456182806B
:100B64009167B7C600409387373023A6F6200F104D
:100B74000000972700009387A720884F9387C1869A
:100B84009C43316713073730F053B7071000FD1744
:100B9400918F99833A0523A6E6205D8D82804111C9
:100BA400B7170040985F3AC6945F3247E39CE6FE6D
:100BB400324541018280411106C6D537972600008F
:100BC40083C68619858AB1C6930730333307F50285
:100BD400B337F5023983CA07D98F172700001307E3
:100BE400271A584B01456303F7023385E740636BCB
:100BF400F70037653D0889C637856F0813050590EA
:100C0400198D3E95172700002326F718B24041019D
:100C14008280E5473307F502B337F5022583DE0703
:100C240065BF5D7122DE1384C1853AD218403ED07F
:100C34004ACA1C5F86C696C499839AC29EC026DCA3
:100C44002ADA2ED832D636D442CE46CC72C876C6EC
:100C54007AC47EC2858B13898185C1C31C5F9724A6
:100C640000009384E41593F7F7F91CDF972700003D
:100C740083C7071593F707048DC3938741859C4366
:100C840082979727000023A5A71483C7040093F72E
:100C9400F70B172700002305F712854717270000D5
:100CA400A302F71283C7440093F7070481EF9387E5
:100CB400C1869C43D844B8D3930700FC172700008F
:100CC4002302F7108387640063D907008327090090
:100CD4009C43172700002308F70E18401C5F8583E8
:100CE400858BC9CBF5571CDF010001000100010011
:100CF40001000100010001000100010001000100E8
:100D040001000100010001000100010001000100D7
:100D140001000100010001000100010001000100C7
:100D240001000100010001000100010001000100B7
:100D340001000100010001000100010001000100A7
:100D44000100010001000100010001000100010097
:100D54000100010001000100010001000100010087
:100D640001000100010001009387C1869C43130721
:100D74005004B8CB18401C5F9183858B89CFBD5735
:100D84001CDF9387C1869C4323A807048547172744
:100D940000002309F70283270900D8430583058B44
:100DA40019C7D843759BD8C3D843799BD8C3725409
:100DB400B640A64216438643E2545255C2553256B3
:100DC400A256125782577248E2485249424EB24ED6
:100DD400224F924F6161730020309387C186944300
:100DE400172700001307C7FDBC5289CF834727008C
:100DF400858B89EB83473700858BFDD797270000C8
:100E0400238207FC8280938781869C4399CB944BF1
:100E1400D04B9842518F98C294439C479842D98FA3
:100E24009CC29387C1869C4337C700401306C00306
:100E3400A8CB9306200397250000938565F88327A4
:100E44008720C18393F7F7036369F600832787201C
:100E5400C18393F7F70363E6F60083C74500858BE8
:100E6400F9DF82809387C186944317270000130714
:100E740027F5BC5289CB83470700858B91CB9727F5
:100E84000000238107F497270000A38D07F28280D6
:100E940083471700858BF1DFDDB7938781869C43F9
:100EA40099CB944BD04B9842518F98C294439C4712
:100EB4009842D98F9CC29387C186944337C7004018
:100EC400C145A8CA654683278720C18393F7F703E2
:100ED40063FBF50083278720C18393F7F7036364DB
:100EE400F600BC52EDF382801387C1851843AA87AC
:100EF400185F1583058B25EF03451500150513773A
:100F0400C51F19C6B386E70083C626002300D60092
:100F140095C59726000083C606EB93F6060409459B
:100F2400A1CAB386E70083C63600054693F5F606E4
:100F34006390C504E206E18663CC06023385E700CC
:100F44008347150003470500A20793F70770D98F5D
:100F54001397070141839376074099C61367078067
:100F64002392E186014582802392F186E5BF0545FF
:100F74008280011136C89386C1862ECC8C423AC633
:100F84003EC498452ACE32CA9317070142C2C18390
:100F94001378172036853E8697260000938646E20E
:100FA400630408041377072061CF03C7260013677F
:100FB4001700172800002306E8E013070019B8D12A
:100FC400130700F897250000238EE5DE1387C185FB
:100FD4000C4337080010D855719B13672700D8D5E8
:100FE40098413367070198C11377261005C3137618
:100FF400061045CA03C7060013671700172600002A
:101004002300E6DC17270000231007DC83C6460014
:1010140093C7F7FFC207E206E186C183184163D193
:1010240006029396170163D7060830538D4663E989
:10103400C6008546172600002306D6D83453FDFE85
:1010440097260000938606D08386460163DD06005A
:1010540093960701C18663D506067053894663E4F7
:10106400C6007453FDFE14477245E245F58F1CC754
:101074005246C2463247A2471248056173002030E7
:1010840003C716001367170097250000A38AE5D24B
:1010940017270000230807D217270000231607D2BA
:1010A400A1B703C736001367170017260000A30A69
:1010B400E6D089BF8546172600002305D6D049B758
:1010C40054471396060163510602B7061000FD1635
:1010D40074D3972600009386A6CA944E85061726D5
:1010E4000000232BD6CA41B7A166D58FADBF172701
:1010F40000001307A7CE8346B7019727000083C7D4
:1011040037D1B69793F7F70FFD4663EAF6044C4BD5
:1011140097260000A384F6CC9727000083C717CC3A
:1011240005473317F70097260000A383F6CE6D8F8B
:101134001DEF9726000083C6F6CDB3F6D70213053C
:101144000002814733D6F500058A13F8F70F09CE5C
:101154006399E60097270000A38207C9828081175C
:101164007DB705071377F70F8507E39DA7FC8280FA
:10117400938741879843B75702009387279F832615
:101184000709139656006358060083260709139629
:10119400660063440600FD17FDF3828051C9AA87E7
:1011A4000145C9C98D07C207C183F19BC207C18329
:1011B40013074003636BF70213878188084313877F
:1011C400018814436396A60217270000130787B704
:1011D400185B014525C34111C20706C60545DD8DCF
:1011E4000297B24001454101828013874188F9B7D3
:1011F4000357650005EF035745006369F702B3061B
:10120400F74021466370D6021041938687001D8FF4
:10121400AA96611790C22392E6002393060014C194
:101224002312F5002313B50021058280084159BF1C
:1012340001458280828001CD9387818803A80700BD
:10124400938701888C430147C28763E3B700828098
:101254009443636FF50663EDA60613868700E3687F
:10126400C5FE03D56700216605066317C50003C6DE
:10127400C18805062386C188239307006384070376
:10128400138641881042630FF6000356670019EA7B
:1012940083D7470014C383564700B697A107231288
:1012A400F700BA879843E304B7FA938641889442D7
:1012B400E30FD7F883566700D9FA83D6470003565D
:1012C40047001843A106B2962392D70098C38280A0
:0812D4003E87B6879DBF0000B4
:1012E000974100209381010C17710020130181D1D7
:1012F00013054000972500209385C5501736002020
:101300001306C67D63FAC5008322050023A055009D
:1013100011059105E3EAC5FE17550000130585691F
:10132000973500209385857B1386018163FAC5007C
:101330008322050023A0550011059105E3EAC5FEAF
:1013400013850181975500209385C5376377B500D4
:10135000232005001105E36DB5FE9302800873A0FC
:101360000230972200209382E24993E212007390A8
:101370005230971200009382026A73901234730005
:101380002030B717004083C88705194703C8970561
:10139000A38C0704238CE70403C7970593F8F80F81
:1013A0001378F80F13679702A38CE7040547238D82
:1013B000E704371700408347A7059305A705858BEA
:1013C000FDFB0565C14637170040054E1303F5FFC9
:1013D0002380C50103C60500058A6DFE0356C705B7
:1013E000FD16C2061346F6FF33766600C182B29739
:1013F000E5F283469705A107918393F6760F1305CF
:101400000580A30CD7041D8D230C17054205A30CE2
:10141000070541858280B717004003C777051A0585
:1014200092054D8D1377E70F13653500A38BE70405
:101430001375F50FA38CA7048280B717004003C76C
:1014400077051377E70FA38BE704130700F8A38D45
:10145000E7043D47238CE70413075003A38CE704FC
:1014600082800547B7170040238DE70437170040F7
:101470008347A705858BEDFF0355C70552055181AD
:101480008280B717004003C7E704930670052380E6
:10149000D7041377C70F0D89930680FA2380D704EA
:1014A000498F2387E704238007048280B717004011
:1014B00003D587005D714EDE4205418186C6A2C418
:1014C000A6C2CAC052DC56DA5AD85ED662D466D2F8
:1014D0006AD06ECE9377050C1307000881496386A6
:1014E000E71813070004639AE714B7240D8F7D896A
:1014F00093840480B3D4A4029167938707E8BE94D1
:10150000A167938707D0B3D4F402EF40B04B97574D
:1015100000009387272C9043D443EF40607FEF5027
:10152000E00CAA8B939C040103D9018193DC0C018C
:1015300063150900056913090980B71700401307EF
:1015400070052380E704130780FA2380E704B71AA5
:1015500000400547939D0401096C2389E704514B22
:1015600001438145138D0A0413067005930680FA22
:10157000094893DD0D01130C0C71A9482300CD001F
:101580002300DD0023962A0323000D0083C72A05CC
:10159000898BEDDF83D70A0583C72A05898BEDFF89
:1015A00083C72A05898BEDDF83D70A05239821811C
:1015B000C207C18333859741131A0501135A0A41A3
:1015C000630B0A143307BA02635E070C0503420378
:1015D000135303016368680C63D9050A3305B040EF
:1015E00093150501C185C204C18063D7450B096508
:1015F000130505713385A502B71700401307700561
:101600002380E704130780FA2380E7042396370337
:10161000238007043345950242054181B6402644A4
:1016200096440649F259625AD25A425BB25B225C36
:10163000925C025DF24D61618280B1E3B774890909
:101640007D8993840480B3C4A4029167938707E8DB
:10165000BE94A167938707D0B3C4F402EF409036DD
:1016600097570000938787177DB59757000093879A
:101670002716856483AB07009384843865B5930B84
:101680000000954445B53A89D5BDB387FC40139A0F
:101690000701135A0A4181BF096513050571330516
:1016A000AA028DBF3385B74163E4FC003385FD405A
:1016B000330585033344B50363C58800131504015E
:1016C000A9BF528532C636C4EF40F065DE85EF40D3
:1016D0007036EF40305F1313050113530341330796
:1016E000694042074183A24632460948A948631A25
:1016F000E90013071900634440011307F9FF42078B
:1017000041837D1B137BFB0FCA89D285E31D0BF63A
:101710002398E18065B7014511B7B717004003D59D
:10172000870039715ECE4205418106DE22DC26DA71
:101730004AD84ED652D456D25AD062CC66CA6AC85B
:101740006EC69377050C13070008814B6388E71476
:1017500013070004639CE710B7240D8F7D899384E1
:101760000480B3D4A4029167938707E8BE94A1676D
:10177000938707D0B3D4F402EF40D02497570000EA
:10178000938747059043D443EF408058EF4010665D
:10179000AA89939A040103D9218193DA0A01631576
:1017A0000900056913090980B71700401307700580
:1017B0002380E704130780FA2380E704139B0401C6
:1017C0000547096A2389E704D14D014D814C135B1C
:1017D0000B01130A0A714A8597200020E780400E0A
:1017E000330C5541420C135C0C4123992181630A4F
:1017F0000C14B3079C0363D0070E050D420D135D57
:101800000D01894763E9A70D63DA0C0A330590419E
:10181000931C050193DC0C41C204C18063D78C0B7F
:101820000965130505713385AC02B717004013072E
:1018300070052380E704130780FA2380E7042396CA
:101840007703238007043345950242054181F25016
:101850006254D2544259B259225A925A025BF24B04
:10186000624CD24C424DB24D21618280B1E3B774DB
:1018700089097D8993840480B3C4A4029167938706
:1018800007E8BE94A167938707D0B3C4F402EF4082
:10189000701397570000938767F4EDB597570000D2
:1018A000938707F3856483A9070093848438D5B5AB
:1018B000930900009544F1BD3E8931BF3385AA40AC
:1018C000131C0501135C0C4181BF096513050571EB
:1018D0003305AC028DBF63FEAA00330565413305B5
:1018E0004503A9473344650363C887001315040102
:1018F000B1BF3305AB40E5B76285EF40D042CE853E
:10190000EF405013EF40103C131D0501135D0D41D6
:10191000B307A941C207C183631AF90093071900ED
:10192000634480019307F9FFC207C1831387FDFF5A
:10193000937DF70FCA8BE28CE3900DF82399F18029
:1019400075B7014529B741112A83014E930E407E98
:10195000130F0019930F400663EB6E0A93080019EA
:1019600013034006B3781503854E0D4FA14F337313
:1019700065020D891335150063E5BE0C1308F6FFEB
:10198000794672984208135808013307C70213D6E4
:101990001700BE0732976146B3F6C6021306807081
:1019A000B386C6023697A166F58F42075D8FB717DB
:1019B000004083C6F70293F60608A307D10003464A
:1019C000F10083C6F70293F60608E394C6FE834649
:1019D000F10093F6F60FF1DE930670052380D7042D
:1019E000930680FA2380D70423AA070383C617032C
:1019F00093E60608A388D702D8DB03C7170313674B
:101A00000704A388E70223800704410182807D1335
:101A10003368E3039308E016630E08003368F303AA
:101A20009308D016630808009378330093B8180021
:101A30009388D81633081E01131E0801135E0E0189
:101A400021BF6393E50305486386080001486303EB
:101A500003002A8871087298FD15131E0801C2053B
:101A6000135E0E01C18109BF13F8150063F4BF00B6
:101A70007908D5B713381800E5BF4111B7170040F2
:101A8000985F3AC6945F3247E39CE6FE32454101D7
:101A90008280914763EEB70217570000130787D47F
:101AA0008A05BA959C41BA978287B717004003A769
:101AB000470B1345F5FF698F23AAE70A03A7070B16
:101AC000698F23A8E70A03A7070A798D23A0A70A2D
:101AD0008280B717004083A6470B1347F5FFF98EA6
:101AE00023AAD70A83A6070B558D23A8A70A83A686
:101AF000070A758F23A0E70A8280B717004003A763
:101B0000470B498F23AAE70A03A7070B1345F5FFE5
:101B100045BFB717004083A6470B1347F5FF758FE6
:101B200023AAE70A03A7070A598D4DB7B717004044
:101B300003A7470B498FEDB7914763EEB7021757DD
:101B40000000130767CB8A05BA959C41BA97828734
:101B5000B717004003A7470D1345F5FF698F23AA68
:101B6000E70C03A7070D698F23A8E70C03A7070C51
:101B7000798D23A0A70C8280B717004083A6470D5C
:101B80001347F5FFF98E23AAD70C83A6070D558DB1
:101B900023A8A70C83A6070C758F23A0E70C8280CF
:101BA000B717004003A7470D498F23AAE70C03A7E7
:101BB000070D1345F5FF45BFB717004083A6470D36
:101BC0001347F5FF758F23AAE70C03A7070C598D60
:101BD0004DB7B717004003A7470D498FEDB705E98B
:101BE00037170040930770052300F704930780FA26
:101BF0002300F70483570702C207C18393F7F79FB7
:101C0000C207C1832310F702230007048280011159
:101C1000B7F5070081463000B105194506CE97207B
:101C20000020E780001EA24713972701634A07029E
:101C3000B7170040130770052380E704130780FAE5
:101C40002380E70403D70702136707402390E702C6
:101C500003D70702136707202390E70223800704B6
:101C6000F2400561828037E700E01C435443A183C2
:101C7000E206D58F1CC1FD572320F7182322F71841
:101C8000828013178500B7E700E023A0E710618189
:101C900023A2A7108280B7F700E0C8439C47828048
:101CA000411106C6EFF09F80BD4763F4A700EFF037
:101CB000EFFFA534BD4763F3A7008534B24083D559
:101CC000218103D5018141016F10C02F41119396ED
:101CD0002500AA852D4506C697200020E7806012C2
:101CE000B240014541018280411126C293942500F2
:101CF00022C44AC02A843289A686AA85014625457F
:101D000006C697200020E780C00FA6864A86A285D7
:101D1000294597200020E780C00EB240224492441B
:101D20000249014541018280011122CC06CE3714BF
:101D3000004026CA4AC84EC652C483447405034AAA
:101D4000B4058349840503499405EFF00FEF8347F9
:101D5000A40593F4F40F137AFA0F93E71700230DF9
:101D6000F40493F9F90F1379F90FB717004003C77B
:101D7000A705058B6DFF03D5C705A38D4705238CEC
:101D80003705A38C2705A38B9704F2406244D24405
:101D90004249B249224A0561828041119397050167
:101DA00022C406C6C1872E8463DD0700EF00B04F52
:101DB00019C1EF00904C2165218DB24022444101B0
:101DC000828093F7150013C51500E5FB9397250155
:101DD00063D00702EF105039E13537F602001306E1
:101DE00006E0896503C54181EF10E0100965E9B798
:101DF000939715010145E3D207FC13060064916532
:101E000003C54181EF10200F11657DB71D71494653
:101E1000975500009385859F17550000130545A031
:101E200086CEEF00D07611E101A037F700E0F95738
:101E30005CC7FD571CCB8566B7E700E023A0D71031
:101E40001306701010C3B8434146B0C323A0D7187F
:101E5000B8C3010001001306C00381454808EF0024
:101E6000F071973700209387E7ED3ECA8967938723
:101E70000780231CF100A167938707E03ECE9707F8
:101E800000009387E7E4BEC497070000938707E646
:101E9000BEC6B5472308F102970700009387E7DF26
:101EA0003EDA97070000938767E83EDE9707000059
:101EB000938747DFBEC0ED47A301F102B707142D9A
:101EC0009387A7103ED2B7F5070085472304F10298
:101ED0008146970700009387070F7000E1051945B9
:101EE0003EDC97200020E780C0F1580881479946E2
:101EF00070003E960346060085070507A30AC70043
:101F0000E398D7FED24791C7035781018567637372
:101F1000F70001A04808EF10E01D11C101A0F64034
:101F200025618280411117050000130545E706C6AB
:101F300022C4EF10A018138441812300A400252897
:101F4000212A034504002244B24037F6020013065A
:101F500006E0896541016F00107AB717004013074A
:101F600070052380E704130780FA2380E704C8DBA9
:101F700023AC01808280411106C6B71700401307C9
:101F800070052380E704130780FA2380E70403C762
:101F9000F7021377A70FA387E70203C7F7021367B8
:101FA0002700A387E702ED391305407E81470147EB
:101FB000814605468545413AB240014541016F10D1
:101FC0006039011122CC2A84680006CE26CA613904
:101FD0006D346367A4003305A440F54763EAA700A6
:101FE000324545310945F2406244D2440561828060
:101FF0002285A53732457131373700408347574036
:1020000093F70704A1CB938781819843BE840D4544
:1020100079FB83C7118391E7694597200020E7800A
:10202000609D05456D3E9C408DC31305D402B707E6
:10203000C0A863F7A700370540571305D5022295BE
:10204000293F97200020E780408C0545EFF06FC3C3
:10205000014551BF01005DB7B71700401307700578
:102060002380E704130780FA2380E70403C7E7000F
:10207000136787002387E70003C717031367070267
:10208000A388E7022380070437070010B7E700E0C2
:1020900023A0E710828041119397050122C406C650
:1020A00026C2C1872E8463DE0700EF00D01F19C14E
:1020B000EF00B01C2165218DB240224492444101C1
:1020C000828093F7150099CB1306803E894503C59E
:1020D0000183EF00506213451400F9BF93F7250008
:1020E000A1CFEF20A0749384C18283D704009440D1
:1020F00013978700A183D98F173700202314F79EE9
:102100008DCA9306F00F1306F00FA945173500206E
:102110001305C59CEF10906E1546894503C50183D4
:10212000EF00705D9C40FD1723A6F182134524004B
:1021300061B723830182DDBF93F745000145ADDF21
:10214000EF20C06E17350020130545998347050021
:102150009306F00F1306F00F8507A94517370020E7
:10216000230EF796EF202013EF00902423A4A182E2
:102170001345440091B785472383F18293880189F1
:10218000814713F7F70F636EB70803C701899307F9
:1021900050056319F71803C711899307A00A631341
:1021A000F718A54763F0B71883D7280083C6518274
:1021B00013978700A183D98F13930701135303014A
:1021C0001317830083C74189D98FA20703C7518999
:1021D000D98F2382B182638C06140147138E418C00
:1021E000131627007296034836000345260022087E
:1021F00033650501131885000345160003460600E4
:10220000336505012205518D6393A70036870507C5
:102210001377F70FE3F6E6FC639FA70023830182A1
:1022200082803307F500834607003387F80085076F
:102230002300D700B9B7130500031387418C138619
:1022400081986365D50A139626001387418C3297CF
:1022500013D687002300F700A300C700850613D616
:102260000701E183A301F7002301C700A382D18204
:10227000411106C622C48147173600201306068680
:10228000B386F80083C606003307F60085072300EF
:10229000D700E3C7B7FE83D7880013948700A183D4
:1022A0005D8C9307A00F420423A6F18283C711839C
:1022B000418099EB056613060677854517350020A2
:1022C0000345458EEF003043854517350020034513
:1022D000958DEF00F02F15463306C4022244B2401C
:1022E00003C50183894541016F00F04083464700E3
:1022F0001107230ED7FE83461700A30ED7FE834691
:102300002700230FD7FE83463700A30FD7FEE31F16
:10231000C7FC2384F19813D78700A384E198239501
:102320006198B9B723830182238201828280E39C72
:1023300007F0EDB58D47630AF50091476307F50295
:1023400089476319F5026F20604E411122C406C609
:102350003284EF00F00523A4A18283451400130505
:1023600024002244B240410139B5914503C501839F
:102370006F0010268280135685009356050103C70F
:102380005182930800031378F50F1376F60F93F636
:10239000F60F935585019387418C63E1E80213158D
:1023A0002700AA97050723800701A380C700238180
:1023B000D700A381B700A382E1828280138781982E
:1023C00083C647009107238ED7FE83C61700A38ECE
:1023D000D7FE83C62700238FD7FE83C63700A38F7F
:1023E000D7FEE31FF7FC23A4A198828093F7150082
:1023F000638A070C411122C406C62E84192323A028
:10240000A1829317450163D7070A85451725002048
:1024100003457579EF00D01B85471306C01291451F
:1024200017250020034515782383F182EF00B02C97
:10243000EF00007823A4A1826D77130757A59317A7
:10244000050197260020239BE668135785019726F0
:1024500000202386E668C1831357050197260020D4
:10246000A38FE666A18313178500D98F1727002055
:102470002318F7669307A00F23A6F182ED3D1546BA
:10248000894503C50183EF00102703C711838547E2
:10249000631CF7000566130606778545172500209F
:1024A00003454570EF00302513451400B240224427
:1024B0004101828003C711838547E317F7FE1306A6
:1024C000803EE1BF0145828079711306000281459B
:1024D0000A8506D6EF00900A170500001305E5BB34
:1024E000EF00D03D2388A182B7477671938797127A
:1024F0003EC4B7575500938757553EC6B76725006A
:10250000938707253EC28567938707842310F100D0
:1025100097070000938747E23EC80A85ED57230ED0
:10252000F100EF10101B170500001305450FEF0019
:10253000F038854597270020A386A766EF0050094D
:10254000170500001305C5EAEF005037B250972772
:1025500000202389A76445618280411122C48547F8
:102560001384618206C62300F400EF20202C3795E7
:10257000250013050596EF20805CB240230004007F
:10258000224441018280411122C485471384618223
:1025900006C62300F400EF20602937B52500130597
:1025A0000507EF20C059B240230004002244410136
:1025B000828041118945056506C622C4EFF06FCDC2
:1025C00089450965EFF0EFCC2D2E23A0A182856708
:1025D000E98F03C7D1819316250185C7054463029E
:1025E000870263C20602953FA38E818081450565FF
:1025F000EFF02FCA2244B2408145096541016FF0D6
:102600004FC963D806000944E30287FE99E3A53F5A
:10261000E1BF69FFEF208021D1BF411122C406C66E
:1026200093F715002E84638B071283C7C1818546FB
:1026300003C7118363E7F60C631A070C8507238E23
:10264000F180C12423A0A1829317450163D3070C15
:1026500083C71183DDEF172700200347E75489471D
:102660006309F70A8545172500200345D553EF0078
:10267000207685471306C012914517250020034593
:1026800075522383F182EF0010071D2323A4A1823A
:102690006D77130757A59317050197260020239FF1
:1026A000E6421357850197260020238AE642C1831C
:1026B0001357050197260020A383E642A183131731
:1026C0008500D98F17270020231CF7409307A00F00
:1026D00023A6F1824D310566130606778545172539
:1026E00000200345254CEF0010011546894503C520
:1026F0000183EF00500013451400B2402244410111
:10270000828009E7238E0180112425BF238E01805A
:102710000DBFEF20A011172700200347E748894786
:10272000630DF7009306F00F1306F00FA945172568
:1027300000201305A53AEF10103683C761821725D4
:1027400000200345354699E783C7D18181C73D46BF
:10275000894545B71306C012914561BF93F725001F
:1027600095CBEF20A00CB13583C7618217250020DF
:102770000345554381EF83C7D18189CB130680255B
:102780008545EF0040771345240085BF1306C0122E
:102790009145C5BF93F745000145A5D3193D83C7B2
:1027A0006182172500200345F53F81EF83C7D18162
:1027B00089CB130680258545EF00E073134544005F
:1027C0002DBF1306C0129145C5BF411122C4371455
:1027D00000408327C40A06C68D4593E70740232699
:1027E000F40A13050040EFF0CFAA8327840AB24011
:1027F00093E707402324F40A2244410182803717DB
:1028000000408327C70A89451305004093E7074026
:102810002326F70A6FF0EFA7411122C406C693F7EB
:1028200015002E84A9CB371700408327870AA1669D
:102830002945D58F2324F70A97100020E780404CC4
:10284000693785471306000A8D4517250020034583
:102850008535A388F18245251166130606E889456A
:102860001725002003453534792513451400B2405F
:1028700022444101828093F725000145EDDB3717A3
:1028800000408327870AA1662945D58F2324F70AAC
:1028900097100020E780C0469D371306C01285457B
:1028A0001725002003452530A3880182A92513069A
:1028B000000A8D45172500200345E52E2D2D1345D3
:1028C000240075B70565411189451305058006C6C5
:1028D000EFF02F9C81450565EFF0AF9B81450965C1
:1028E000EFF02F9B8D452165EFF0AF9A3717004031
:1028F0008327C70AB240A166D58F2326F70A410174
:102900008280B717004003A5470A828001118145E4
:10291000116506CE22CC26CA4AC84EC6EFF06F9784
:1029200089450145EFE03FAFEFE0BFA5B717004095
:1029300011479384C198AA89238CE7041389019ACB
:102940002684EFE01FB24E9588C09104E39B24FFDC
:1029500037170040A30C070454401C400546B697A7
:102960001444B6975444B6971448B69783C641802A
:102970006397C60285669386065863DBF60089472F
:102980002382F1808327870AA166D58F2324F70A43
:10299000F2406244D2444249B24905618280856670
:1029A00093867638E3C6F6FE2382C1808327C70A62
:1029B000A166D58F2326F70AE1BF93F7150081CFD3
:1029C000411122C406C62E84913713451400B2402B
:1029D00022444101828093F7250081CF37170040C0
:1029E0008327870AA16613C52500D58F2324F70AFC
:1029F000828093F73500014581CF37170040832748
:102A0000C70AA16613C53500D58F2326F70A828031
:102A100082804111054506C6EFF06F9C13058004C6
:102A200097100020E780401685457D55EFF06F86B2
:102A300085457D55EFF04F90493BD1336135EFF03F
:102A4000EFBCEFF02FCEEF20A014EFF0FFA717059B
:102A500000001305A5DC9D2597270020A385A7145A
:102A6000170500001305A5F5912D97270020238C4D
:102A7000A71297100020E780802C1DC18346E5FF38
:102A80001307F00F9147639EE600411106C6972099
:102A90000020E78080FAB24081473E854101828074
:102AA00095473E858280138741831C43411122C490
:102AB00026C24AC006C601440149BA8489E7A16515
:102AC000D1210DC401A803C7E7FF6318A7021DC8E1
:102AD000A165FD2C9840832784FF6317E40223AA95
:102AE000F182FD57232C04FE230FF4FE2285B24011
:102AF0002244924402494101828011E03E8983A729
:102B000087FF6DBF3E84E5BF232CF9FED9BF23AA02
:102B1000018282809387C1849C4399E33E858280B1
:102B200003D727006316B70003C70700E308A7FE13
:102B3000DC47E5B74111939705014AC006C622C498
:102B400026C2C1872E8963DE0700B13F11C1353728
:102B500021653345A900B240224492440249410113
:102B60008280AA860145E5D901443D47B357894093
:102B7000858B95CB938701848443BD4791E2814740
:102B8000A2978E070545BE943315850013140501E1
:102B90009C40C8404180829723A0040023A20400E7
:102BA000334524014DBF0504E312E4FC0144CDBFCD
:102BB00097470020938707999C53411122C406C66A
:102BC0001384818095C7829723A4A1800840B747CA
:102BD00003009387D73F3305F502B7A726009387F5
:102BE00037ECB24022443E9523A4A180410182806B
:102BF000974700209387C79818409C4BBA9723A407
:102C0000F180E9B79387818390439746002083C67C
:102C10003697814713F7F70F6360D70A17470020ED
:102C20000347779A914763E0E70A9747002083C7F5
:102C3000279E918BC9EB0111680006CE22CC26CAD3
:102C4000EF00D002FD56630FD50C324797470020A6
:102C500083C7779063F3E70C174700201307479269
:102C60004047174700200347278F6305D406058B8D
:102C700021CF51473304E40263F1870A9710002003
:102C8000E7802072B2476373F400A28717470020E1
:102C90000347778C998F3E95974700209387878AC3
:102CA0008387470163CD0702B707C0A86369F502B0
:102CB000B70740573E9525A0850713971700329711
:102CC0000357E7FF21DB8280130790023304E402FD
:102CD00005805DB762076187635707001D8D19E99D
:102CE0003705C0A801A8E37BF5FE3707C0A8B307E6
:102CF000F7403E95974700209387C784DC5382971F
:102D000009ED974700209387A78B9C4F99C7EF0049
:102D10005014EF001059EF003008F2406244D244E2
:102D2000056182809747002093878785DC47E3868B
:102D3000A7FE174700201307E78083464701BA84A0
:102D4000858A9DC65144338487029747002083C7F4
:102D50009780E3F487FC97100020E7808064973722
:102D6000002083C7577F1D8C2295838744011DBF98
:102D700013049002338487020580C1BF2A9609E5B7
:102D800082800505A30FB5FEE31DC5FED5BF8147B3
:102D90006314F600054582803307F5008507B38686
:102DA000F5000347070083C6F6FFE383E6FE01450F
:102DB0008280814711E9014582803307F50003478E
:102DC0000700E31AB7FE8507E319F6FE0545828082
:102DD0009737002083C7D77A637FF50013878183F5
:102DE0009317150008433E9583570500DD8D23108A
:102DF000B500014582800D458280FD5701111737CE
:102E000000202325F7789387C18422CC80434EC6C7
:102E1000973900209389097326CA4AC852C456C2FA
:102E200006CE5AC02A8981444E8A973A0020938A56
:102E30002A75184481476374E900B307274103A743
:102E400049021CC409CB03A7CA0063F6E700173781
:102E50000020232DF772A1E7835524009DE95C44EF
:102E6000A1E823A6F184032BC4002285972000202B
:102E7000E780A0BC5A8455FC83274A0285CF624470
:102E8000F240D2444249B249224A924A024B056179
:102E900095BB034504002D3F5C4081CB1CC4835788
:102EA0002400D5DFA2844044F9B71C44CDDBC5BF64
:102EB000DCC455BFF2406244D2444249B249224A7E
:102EC000924A024B056182809737002083C7576B77
:102ED0006371F5021387818393171500084393C527
:102EE000F5FF3E9583570500FD8D2310B500014584
:102EF00082800D4582809737002083C7776863649E
:102F0000F50001458280411122C426C24AC006C68E
:102F10002A842E89B284FD3E01C504C505452DA035
:102F2000936504F0C205C181414597200020E780E8
:102F300020A70DE1973700209387C7609C5B81C76E
:102F4000A285114582970145B2402244924402492C
:102F5000410182809387C1849C438DE323A6A18491
:102F600085472326050004C523112501230085007C
:102F7000A300F5002322050055B7BA87D84775FF8F
:102F8000C8C7F9BF411122C426C24AC006C6AA84D6
:102F90002E8949362A8419C123110500973700204C
:102FA00083C7075E6394970023922185CA8526858F
:102FB000213F014511E01945B240224492440249A3
:102FC00041018280239EA182239FB1828280411190
:102FD00006C623A4A1840295B2409737002023ABF4
:102FE000A75A014541018280994763E9B7008A05E4
:102FF000973700209387075BBE9588C18280411177
:1030000006C622C426C2EF20104B714681451735F3
:103010000020130525599D3317340020130444560E
:103020001306400222858145913B23A6018423A4F7
:1030300001849737002083C7A75213D527008D8BB3
:103040003E958D473305F5029947930510109384FB
:10305000018535051375F50F2301A4003305F5022D
:103060001305050F97200020E780809323A0A184FB
:10307000834724001305050F88C08A073E9523ACBB
:10308000A182EFF0DFA82D26834714009840170691
:103090000000130666AA93962700BA9690C29386FC
:1030A0002700850793F7F70FA300D400B24022440E
:1030B0008A07BA9790C392444101828097370020D3
:1030C00083C7174C173700200347A74B63F1E7026C
:1030D0001387018518439386170017360020A30134
:1030E000D64A93962700369708C33E858280930779
:1030F000F00FE5BF1C41638E071841777D8FB7063F
:10310000002089476318D718035745006304071840
:10311000411126C21946AA849305F00F590506C627
:1031200022C4413905478D47630FE5141734002049
:10313000130444411C4481CB585899476315071424
:10314000185C631207141306C0038145173500206D
:103150001305453F25311306C003A685173500200A
:103160001305453E97100020E78080FE973700202A
:1031700083D7073E99E793070010173700202319DC
:10318000F73C9737002083C7C73C91E7854717373F
:1031900000202300F73C9737002083C7973B91E737
:1031A000ED4717370020A306F73A9737002083C76B
:1031B000673A91E7954717370020230DF73897377F
:1031C000002083C7373991E7854717370020A303CD
:1031D000F7389737002083C7373899E783470401CA
:1031E00017370020A30AF7369737002083C7A73682
:1031F00091E7D14717370020230FF7349737002086
:1032000083C7273695E7173700200347E73493161F
:103210008701E1869307C00263C806009377170011
:1032200093B717009387D70217370020230BF73285
:103230009737002083C7373295E7173700200347B9
:10324000A73193168701E1869307C00263C8060081
:103250009377170093B717009387D702173700208B
:10326000A30BF72E83C7D40191E7894717370020B6
:10327000A308F72E1C5491C78297973700202394F8
:10328000A730B53B8147B240224492443E8541017C
:10329000828089473E858280973700209387872ADE
:1032A000985739CF411122C426C206C6BE84029760
:1032B000173700200357272D2A8451C3BA87637319
:1032C000A700AA87C207C183BA866373E400A286F7
:1032D000C206C182958F51476353F706DC5491C3F0
:1032E00082978547173700202300F72EB52D973793
:1032F0000020239A8728B2402244924441018280D0
:103300009737002083C7472C95E79737002093878E
:10331000272B83C79700850793F7F70F17370020F0
:10332000A304F72AA18B95C7854717370020231DD3
:10333000F72849AD97370020A3880728DDBF9737C6
:10334000002083C76728C5DB2244B2409244410174
:10335000CDB78280973700209387C71ED8570111B9
:1033600022CC06CE3E8401C72AC60297324509CD3B
:1033700023AAA18417150020130525048939F240DA
:1033800062440145056182808307440163DD0700D3
:103390009737002023A2072097170020938787FCE8
:1033A00023AAF184C1BF97170020938787FFCDBF61
:1033B000011122CC173400201304C418084406CE8F
:1033C00026CA4AC801E90545F2406244D24442494E
:1033D000056182805C58E5DB185C75D77000854517
:1033E00082971844B247E300F7FE9305E0041735CF
:1033F00000200355E51597100020E780605A173725
:103400000020232DA71861D117360020035646143B
:103410009305F00FEFF09F968144173900201309B0
:1034200029169737002083C7C7120326C90163C135
:10343000F402328597100020E7802060014597371D
:10344000002023AD07149737002023AB0714ADBF2E
:103450009735002083D5C50FB38795020844185CC3
:10346000898185043E9508C2029765BF9737002081
:1034700083C7371163800712411126C206C6AA848A
:1034800022C44AC07D55CDC8973700209387C718FE
:10349000B8475DC3173900201309C90A030549015C
:1034A0009735002083C5D50B85057D540548B708A1
:1034B000C0A8130E000C8346770083270708639982
:1034C00006050353070783560703637DD3060346A8
:1034D000D700631906070326070F2DE603264709C1
:1034E00035E20346F700631FC605705FB38666408A
:1034F00079163306D60283264708B356D602B2970A
:10350000AE96C206C182231BD70663500504958F71
:1035100063F387003E84184359FF938741859C439A
:1035200082976368A402B307A4409CC09C403547BF
:103530006361F70423A00400B2402244924402498C
:103540004101828083566707C9B7E3F2D7FCC6976B
:103550007DBFB307854063DB070083074901E3C4F0
:1035600007FCB707C0A8A297898FC1B723A00400A2
:1035700075BFCD179CC08307490163D507001305AC
:1035800034FF5DBFB147E3EC87FE3705C0A84D159A
:1035900022955DB77D5582809386C185904297378D
:1035A000002083C747FB139787000C4293F7F7036C
:1035B000A2074D8FB78500014D8F18C21842F175D3
:1035C0009385F50F6D8FD98F1CC237170040930775
:1035D00070052300F704930780FA2300F704010025
:1035E000010017360020034606F7D14763FBC704E6
:1035F0008357270293E707012311F7029C4245678F
:10360000130787E7D8D7984FA166558F98CF984F63
:10361000E1769386F607758F8D6693860650558FF3
:1036200098CF13072015D8DB971700209387A7DFC3
:10363000B20737070014B183D98F37E700E07CD792
:10364000828083572702C207C183BD9BC207C18303
:1036500065B7173700201307A7F6938701869C43A9
:10366000544B184F096694CBD4CB98CFD8CF9447FE
:10367000D18E94C7D847518FD8C794470566D18E4D
:1036800094C7D847518FD8C798431367270098C36A
:1036900098431367070298C38280938781869C436F
:1036A00099CBD44390479842518F98C2D447DC4B72
:1036B0009842D98F9CC217130020670043F293876A
:1036C00081869C4399CB944BD04B9842518F98C2A2
:1036D00094439C479842D98F9CC29387C1869C4350
:1036E000094798C317130020670063EF973700203E
:1036F00083C7B7ED8DE7173700200347D7EC930753
:10370000B7FF93F7F70F894663EBF6009737002072
:10371000238DE7EA854717370020A308F7EA828060
:103720001387C1861C4394438D8A85C2B44BE19AAA
:10373000B4CB944393E6860094C39C438D83858BDE
:1037400089C701000100010001001C4323A80704F0
:10375000938781869C4399CBD44390479842518F5D
:1037600098C2944BDC4B9842D98F9CC2973700206B
:10377000A38B07E482809386C1869C4298430D8B7D
:1037800005C3B84B619BB8CB98431367870098C3B8
:103790009C438D83858B89C70100010001000100D6
:1037A0009387C1859C4337080010D857719B1367D6
:1037B0002700D8D798433367070198C3984F370835
:1037C00000F97D18337707013708000233670701D6
:1037D00098CF984F137737F81367870198CF1387DF
:1037E0004187032807000327C802759B2326E802A8
:1037F0001377F6079043137606F8598E90C388C75F
:10380000CCC397370020238D07DA97370020A38B8E
:1038100007DA984297370020238607DAFD475CC312
:10382000938781869C4399CB904BCC4B1442CD8E91
:1038300014C290439C471442D58F1CC2856793875E
:10384000870B9736002023A3F6D885471CC3930720
:1038500090053CCB8280411197370020A38707D683
:1038600022C406C626C217340020034404D6954756
:103870006318F40697370020938707DA985F3E8431
:1038800083467700A9CA03465700B755550037C588
:10389000898E93855555130565EDF13D97360020CA
:1038A00083C676D29387A6FF93F7F70F0547636A1F
:1038B000F70097370020238AD7D097370020A386B8
:1038C000E7D0954717370020A30FF7CE1C5C1307EE
:1038D00010FA2383E700B2402244924441018280DF
:1038E0009947631DF402973400209384E4D2BC40CE
:1038F00003C777006DD303C65700B755550037C5CA
:10390000898E93855555130565EDB535973700209C
:10391000A38B87CABC40130710FB65BF9D47E31C00
:10392000F4FA9737002083C767CB858B17360020C2
:103930000346F6CC9736002083C666CC9DC39737E6
:1039400000209387A7CBC84309CD834515000905FF
:10395000EF00701449D1854717370020A307F7C639
:103960009DBF81450145EDB797370020938747C537
:103970009C4FA1CB411106C622C4E1391384C186F4
:103980000D22EF10E02F09391C401307D005B8CBEA
:10399000EF108062EF202031EF108045EF10004DD6
:1039A0008547173700202301F7C21C4023A80704CE
:1039B000353BB240224497370020A38607C041011F
:1039C00082808280411122C417340020130444BF36
:1039D0001C4C06C626C285CB9384C1869C40130727
:1039E000D005B8CBEF1080489C4023A8070483473C
:1039F00084008507173700202308F7BCC53997379F
:103A00000020A38207BCB24022449244410182803C
:103A100023A40186B7C7004023A0F186138707308F
:103A200023ACE1841387072023A6E1869387071040
:103A300037D7004023AAE18623AEF1840547411120
:103A400097370020A381E7B822C41734002013045D
:103A500064AF1C4006C69736002023ADF6B69387A8
:103A600007119736002023A9F6B697370020238D3B
:103A7000E7B4DD3D37E700E0B70710002320F7107B
:103A8000B70620002320D71003074401635707001F
:103A90001387C1861843FD177CD3B24022444101ED
:103AA00082809387C1869C43930600052947D4CB27
:103AB000D8CF9305C008CCD31306C003D0D7CCDB36
:103AC000D0DFF4C3F8C71307600FB8CF316713070F
:103AD0003730D8C7971700209387E7C9370700F01A
:103AE0007D8FB7E600E0B207F8C2B1833707001553
:103AF000D98FBCD682809387C1859C43B70600F9D5
:103B0000FD16984F758FB7060004558F98CF984FC4
:103B1000137737F81367C70198CF1387418714438A
:103B2000F5CD37B724001307F7E96361A708984379
:103B3000137707F81367570298C305476394E500A6
:103B4000130585C1D856370810FE7D181367270066
:103B5000D8D64167130707A03356E5023377E5024D
:103B60001305A00F7D8A93154601F04233760601B6
:103B70004D8EF0C2F042B705FCFF6D8E2A07335719
:103B8000A7023A073983518FF8C21737002003473D
:103B9000E7A4098B19CB98431377F70793660704BB
:103BA0009843137707F8558F98C38280370725000D
:103BB0001306F7486363A6023767DBFF1307079313
:103BC0002A971306007D3357C7027D17904313775A
:103BD000F707137606F8518F85B71307074963185F
:103BE000E5009843137707F813676702B1B737D733
:103BF00025001307F777636DA7003767DBFF13070F
:103C000007932A971306007D3357C70279177DBFA4
:103C10009843137707F81367770239BFD856759B17
:103C2000D8D61377F5078843137505F8498F98C3DD
:103C3000A9BF938741859C43011122CC4EC606CE75
:103C400026CA4AC852C456C2829797370020938723
:103C5000E79A804781496308A406BE84973700200D
:103C60009387478E038747013E8963580706018D76
:103C7000135455009737002083C7E7979379F501D0
:103C80006360F404370AC0A8B70A405797100020B1
:103C9000E78020C69C449736002083C6C6951397BC
:103CA00056003E9783074901158C63C5070063637F
:103CB000470156979737002023A6E794E378D4FC72
:103CC0001604B3693401F24062444E85D24442493D
:103CD000B249224A924A05618280E37A85F8B707A1
:103CE000C0A833848740229561B7938741859C4360
:103CF000411122C406C626C28297973700209387B7
:103D0000E78F80476309A406BE8497370020938716
:103D100067838387470163D80704018D13545500D7
:103D20009737002083C7278D6367F404971000201E
:103D3000E78020BC98449737002083C7C78B9396B1
:103D4000570036971D8C9736002023ADE68AE37F17
:103D5000F4FC2244B24092441735002003451588F4
:103D60008145410149BBE37A85FAB707C0A833848E
:103D70008740229565B7B240224492444101828037
:103D8000411106C69737002023850788EFF05F9919
:103D900001458145EFF04FA5B240014541018280C8
:103DA000011126CA973400209384448383C70400FA
:103DB00022CC06CE4AC8858B1734002013044480D9
:103DC0006385070E83472400858BE1C79727002072
:103DD0002389077EEFF07F8C65379C48014681453B
:103DE00005458297834734002689858BC1C7084CD7
:103DF00097270020A387077C81451306F1009727AA
:103E000000202381077C97100020E780208EAA8560
:103E10000DE11C4C9306F00F03C70700630BD7009E
:103E20009727002083C7977D6385D7006303F7003A
:103E300089458307090063C707001C4C0347F1004D
:103E40002380E70083270901104C094582979727B3
:103E5000002083C7E77B898B81CB85451725002010
:103E60000345457BEFE0DFF6F2406244D24442492D
:103E7000056182809387C1869C43BC53F5F79727E1
:103E80000020238107749C4801468145494582975B
:103E9000E1BFFD35EFF04FC0972700202384077264
:103EA0009C48014681454545DDB783473400858BF5
:103EB00099CFF93597270020A38507709727002011
:103EC000238207709C48014681450545C9B74D3D91
:103ED000E1B71C4963820712411122C406C6834719
:103EE00005002A8493F7070489C75C41094563816B
:103EF0000710130600028145172500201305056EE3
:103F0000EFE0DFE7A2851306000217250020130566
:103F1000E56C97000020E780A023172400201304FD
:103F2000E46B5C4891E7FD57172700202322F76CCC
:103F30009727002083C7176C99E7930780021727FC
:103F40000020A309F76A9727002083C7C76A91E773
:103F5000A147172700202300F76A9727002083C76F
:103F6000976991E7C54717270020A306F7689727A9
:103F7000002083C7676891E7ED5717270020230DBE
:103F8000F7669727002083C7376791E7ED57172714
:103F90000020A303F7669727002093872766C8436E
:103FA00009C597100020E78040A99727002023A982
:103FB000076483470400858B85C3172500200345CC
:103FC000B56393059004090597100020E780409D94
:103FD0009727002023A6A7628347140001451727CF
:103FE0000020A308F7621C4417270020232EF76047
:103FF000B24022444101828005458280797126D2F7
:10400000972400209384845D9C4406D622D44AD011
:104010004ECE52CC56CA5AC85EC6638C0726138A47
:10402000C18683270A0098430D8B09C798431367FD
:10403000870098C3172900201309495C8347490169
:10404000B689B28A898B2E842A8B9D4B89EB83C7D4
:10405000040093F707049DC38945C8402DA0D13EB5
:10406000E3FFABFE9727002083C7E7589607D117D9
:10407000E3E7A7FE83474901898BF1DB81451725DB
:1040800000200345B555EFF01FA783260A009307CC
:10409000A0051727002003476754BCCA937707047D
:1040A0006380071CD040B797DBFF938707813E965C
:1040B000E1679387076A63F5C71A9307000DBCD2BF
:1040C0009387C1859C439044058B1367E70190C794
:1040D000D044D0C3D8C2034769011367270097268D
:1040E00000202388E65217270020A30937511727FD
:1040F000002023055751D857B70600F0FD16719BD5
:10410000D8D79843972900209389894B758F98C3F6
:1041100003A5490163090B1423005501A300850081
:104120002286DA85090597000020E78060029387E0
:1041300001869C4303A7490181451705000013052B
:1041400065C698CB97270020238D07469727002028
:10415000A38907469727002023860746EFE0DFE87C
:10416000EFF0CFD88D4717270020A30EF7449727ED
:10417000002083C767489D07920717270020232741
:10418000F74483270A00B8537DFF216713073730B0
:10419000D8C7131744001307C71CB8D3130700F878
:1041A000972600202380E642316713073730D8C7AF
:1041B00083474901898B95CF938741859C4382979B
:1041C00017270020130707380307470183278900B3
:1041D000635E07081D8D03C704000D8183A7490195
:1041E000418B49CF3707800062051307F72F598DA0
:1041F00088C3EFF0CFCC93874187984301455C5744
:104200008583858BB9C3DC40C165938505A0938701
:1042100087C1B3D6B702370810FE7D18B3F7B702CF
:10422000FD8A139646017443B3F60601D18E74C31A
:104230009306A00F3706FCFFAA07B3D7D702744333
:10424000F18EBA07B983D58F7CC3B25022549254F1
:104250000259F249624AD24A424BB24B45618280CE
:104260009307000AA9BD23205501D1B5E374F5F6E3
:104270003707C0A8B307F7403E95B1BF09041374D0
:10428000F40FA38087003E9423000400A300A40041
:104290008DB705455DBF011126CA9384C1869C4038
:1042A0004EC652C4984356C25AC006CE22CC4AC803
:1042B0000D8B2A8AAE89328BB68A05C3B84B619BB7
:1042C000B8CB98431367870098C39C438D83858B35
:1042D00089C7010001000100010017240020130418
:1042E000E43183474401172900201309292F918BBA
:1042F00099E78347090093F70704639507168145FB
:10430000172500200345952DEFF0EFFE9387C1851B
:104310009C4303278900B706001098C70327C900EC
:10432000D8C3D857719B13672700D8D79843558FA8
:1043300098C3834709009840858B93E7E7015CC3E6
:1043400097270020A38D672B972700202389572BC1
:104350005C43858BADC75C4085E317250020034592
:10436000B52993059004090597000020E780406374
:104370009727002023A6A7285C400545F1CB1727E7
:1043800000200347C7272380E7005C4063000A0E34
:10439000638E090CA380370148404E86D2850905FB
:1043A00097000020E780C0DA938701869C4358403D
:1043B000D8CB93070004172700202303F720EFF042
:1043C000EFB28347640193E74700172700202302D9
:1043D000F72497270020A385071E97270020A38393
:1043E000071E97270020238F071C9D4717270020B3
:1043F000A30BF71C972700209387C7149C5791CBDA
:1044000013060064C145172500200345A520EFE0F1
:104410009FAE938781869C4399CBD4439047984223
:10442000518F98C2D447DC4B9842D98F9CC29727B2
:10443000002083C7671C9D079207172700202327AA
:10444000F7189C400547014598C313079005B8CB62
:10445000F2406244D2444249B249224A924A024B53
:104460000561828085450325490079BDA380070049
:1044700025BF397126DA972400209384241683C738
:10448000040022DC06DE4AD84ED6858B1724002095
:10449000130404136387073083470400972900201F
:1044A0009389C915858B6380072C9387418798432F
:1044B000032984015C578583858BA1C3DC40C165DA
:1044C000938505A0B3D6B702370510FE7D15B3F767
:1044D000B702FD8A139646017443E98ED18E74C3E8
:1044E0009306A00F3706FCFFAA07B3D7D702744381
:1044F000F18EBA07B983D58F7CC381451306F101CC
:104500004A8597270020238D070A97000020E7801F
:10451000E01DAA850DE19727002083C7570E93065B
:10452000F00F638AD700184C034707006305D700D4
:104530006303F70089458387040063C00714639011
:1045400005148347F1012300F90083C74901918BCA
:1045500095C783471900CA9703C707009307000848
:10456000631EF7005C481307F00F98C383C704006D
:1045700093E70701172700202302F70683A74900C6
:104580001387C186184383C71700A1669386363008
:104590009387070A54C792073CD3930700F89726DE
:1045A00000202381F602B167938737305CC713057B
:1045B000A00597000020E780800E97000020E7808C
:1045C000A00AEFF0EF959726002083C6660493F7C4
:1045D0004600638C0714172700201307A7F603066D
:1045E00047011C48635E060CF117172700202321A2
:1045F000F7FE1C4803A78900635C060C3387E7407D
:104600008347190093958601E185CA9783C71700F0
:104610008E0763DE050C63F3E70C1D8F9306000223
:1046200063EBE6001848635E060AB307F7401727F6
:1046300000202329F7FC894517250020034585FD27
:10464000EFE00FF983C70400C18BF9CB03A5490044
:10465000172600200346B6FA9726002083C626FABE
:104660004DCD8345150009053D3183C70400BD9B31
:10467000172700202304F7F615A8E38805EC2EC6BB
:10468000EFF00F8A104C9C48B2450D45829703A568
:10469000490017260020034696F69726002083C679
:1046A00006F601CD834515000905F536F250625432
:1046B000D2544259B2592161828081450145F5B7F2
:1046C0000D47E363F7F23707C0A87117BA9731BFF8
:1046D000E3F6E7F2B705C0A8AE970DB73387E7401A
:1046E00035BFE374F7F4B706C0A836973DBF184846
:1046F000635F0600B307F74093E606F8172700202C
:104700002322F7F0972700202384D7F02DB7E373F7
:10471000F7FE3706C0A83297F1BF81450145A9B71A
:1047200083471900F917A300F900EFF06FE59C48E3
:10473000104C81450D45829783471400858B99CB9A
:1047400097270020A38E07E69C4801468145114526
:104750008297A9BF97270020238607E69C48014639
:1047600081455145F5B703A54900172600200346AA
:1047700016E99726002083C686E80DC183451500FB
:104780000905EFF05FB1972700209387A7DB9C5BBB
:10479000894589DF13051008829709BF81450145C6
:1047A000CDB783471400858BA9CF97270020A38915
:1047B00007E0EFF0EFDC084C9306F00F01490347E8
:1047C0000500630BD7009727002083C757E3638555
:1047D000D7006303F70009498387040063D0070209
:1047E0000146814597000020E78040F03365A9002D
:1047F0009375F50F9C48104C0D4599BF2A8681454D
:10480000D5B79726002083C686DF172600200346EB
:1048100016DF81450145EFF01FA8972700209387F9
:1048200067D29C5BE38407E88545ADB797270020F6
:10483000238107DE97270020938747DCC843411177
:1048400006C609C597000020E780201F9727002093
:1048500023A807DA9727002083C737D781CF1727E8
:104860000020034787D69D476316F700972700204F
:10487000A38D07D49726002083C6F6D49387B6FF6E
:1048800093F7F70F0547636AF70097270020238EF9
:10489000D7D297270020A38AE7D2EFE07FE8C1456F
:1048A00017250020034505D7EFE0CFED01458145F1
:1048B000EFE08FF3B240014541018280411106C60D
:1048C00022C4AD3797270020938747D303C77701CA
:1048D000DC47A145172500200345C5D397260020B6
:1048E000A38EE6CE17270020232EF7CEEFE08FE928
:1048F0009145172500200345E5D1EFE0AFE8972764
:10490000002083C7E7D013F72700172400201304E3
:10491000E4CC19CF1C48014681451305200282973B
:10492000B240224497270020238407CE4101828091
:10493000918BFDD71C480146814513054002C5B740
:10494000797126D297240020938444CB83C74401F5
:1049500006D622D44AD04ECE52CC56CA5AC85EC6CB
:10496000898BD1CF972A002083CA4AC793E71A01BF
:1049700021698569316A172700202301F7C60144A0
:10498000172B0020130BCBC3938BC186130939302F
:10499000938929F9130A3A309726002083C616C650
:1049A00017260020034686C581450145EFF00FE537
:1049B00083472B00858BEDD397270020238307C0E7
:1049C000EFE0BFCD83473B00858BA9C7EFF04FBB1E
:1049D00097270020A38707BE83C744018545172575
:1049E0000020034525C393E707F81727002023017C
:1049F000F7C2EFE0EFBD97270020238157BFB250E9
:104A0000225492540259F249624AD24A424BB24B62
:104A100045618280EFF0CFB605041374F40FA1470F
:104A20006314F400613DC1BF83A70B00130700F8B6
:104A300023A6270123A03707972600202384E6B862
:104A400023A64701B8537DFF81BF411122C406C68A
:104A500093F715002E84B9C39727002083C747BB5F
:104A600013F7270015C7E207E18717250020034544
:104A700065BA1306000563DA07001726002003460F
:104A800076B79307000A3306F6029145EFE0AFC60A
:104A900013451400B24022444101828093F725005F
:104AA000B1C39727002083C7A7B613F7470005CBEC
:104AB000E207E187172500200345C5B51306000A64
:104AC00063DC0700172600200346D6B29307000ACE
:104AD0003306F60213068602A145EFE0CFC1134567
:104AE00024004DBF93F7450089C7993D1345440005
:104AF00055B793F7850099CB9727002083C747B117
:104B0000918B91C3653B1345840069B793F7050109
:104B10000145C9D3EFE04FF8172700200347B7AA94
:104B20009D47631BF70013060064C145172500204D
:104B3000034545AEEFE02FBC13450401A1BF172785
:104B400000200347E7AC21E717270020034707A908
:104B50001377070405C3172700202323A7A81727C7
:104B60000020034757A68D4789456303F700854515
:104B70006FE07FF81377F50F97260020A380E6A655
:104B800097260020A387E6A881453A85D5B782807D
:104B9000411106C622C4EFE0BFE71724002013042A
:104BA000E4A5714681452285EFE04F9DFD5717052D
:104BB00000001305C5E91CC0EFE04FD0230CA40092
:104BC0009545170500001305058BEFE0EFC1B240D6
:104BD00022440145410182809387418794430566C1
:104BE000D846518FD8C6514701007D1775FF9043B5
:104BF000FD76FD165846758F58C6514701007D1742
:104C000075FF94430566D846518FD8C651470100B9
:104C10007D1775FF9443D84613671700D8C65147D0
:104C200001007D1775FF9443D846799BD8C651473C
:104C300001007D1775FF9443D84613671700D8C647
:104C4000514701007D1775FF9443D846136707103D
:104C5000D8C6514701007D1775FF9443D846137796
:104C6000F7EFD8C6514701007D1775FF98435C47A1
:104C700093E707105CC7D1470100FD17F5FF82805D
:104C8000411106C6913F938741879C431307004813
:104C90003703009098D7B8477D13370E002033773D
:104CA00067003367C701B8C7B847B70600F9FD16F4
:104CB000758F37060004518FB8C7B8473706F9FF1C
:104CC0007D16419B13679700B8C7B847B7080080A7
:104CD000B70E0002718FB8C7B847370600FF7D16C0
:104CE00033671701B8C7F84745757D1E619B136789
:104CF0003700F8C7F8471377F7F813670703F8C7C3
:104D0000EC4793F5F58F93E50530ECC7F847718FC5
:104D1000F8C7F84711663367D701F8C703A8070536
:104D20001307F5FF7D753378E8003368C80023A8C2
:104D3000070503A847057D15137808FF1368480089
:104D400023AA0705F04B13660608F0CBF04B698EDB
:104D5000F0CBC85F798D2167598DC8DFCC5F3707ED
:104D60000040F58DB3E5D501CCDFD05FB70570000D
:104D70003376C601598ED0DFD05709674D8ED0D714
:104D8000D057F18ED4D7D45775767D16F18ED98E43
:104D9000D4D7D4573706FDFF7D1637070200F18EB2
:104DA000D98ED4D7945BC19A94DB945B93F6F6F0DA
:104DB00094DB945B93F6F68F94DB985BB706005018
:104DC0004D8F98DB985B33776700558F98DB985F42
:104DD000B70608FFFD16758FB7061800558F98DFC8
:104DE000985FB368170123AC1703B240410182807A
:104DF000138741871C4341767D16B44BF18EB4CBAB
:104E0000944737062000D18E94C7D44793E6060115
:104E1000D4C7D447BD9AD4C70100010001000100E6
:104E200014430566DC4693E70701DCC6DC42D18FFC
:104E3000DCC283A7C609A183858BE5DF01000100E1
:104E4000010001001C43416603A7C709B44BD18E82
:104E5000B4CB9376F701B84B019B558FB8CB9847ED
:104E6000B706E0FFFD16758F98C7828013884187CB
:104E7000417703C60187832708007D176318061052
:104E8000B44FC1654111F98EB4CF9447C16E3D4F07
:104E9000CD8E94C78D4F8147414E83260800CC4666
:104EA00093F5F5EFCCC6CC42B3E5D501CCC2CC46E8
:104EB00093E50510CCC683A5C608A1818589E5DDEB
:104EC00001000100010001008326080003A5C608B7
:104ED000CC423D89F98DCCC26305E5010506137608
:104EE000F60F814513F3F50F636AF3006311F304C2
:104EF00093080101C6952388A5FE15A8AE888505EF
:104F0000B302B10083C2F2FFE37E55FCBE8593027B
:104F10000101AE9283C3F2FEFD1593F5F50F2388D0
:104F200072FEE316B3FE0C08AE982388A8FE630851
:104F3000F601850793F7F70FE391C7F731C283476F
:104F4000010021476371F702F5172300F100834741
:104F50000100BD8B13977700BC4E93F7F787D98F6D
:104F6000BCCE4101828011476374F700F917F1BF8D
:104F700005476374F700FD17C9BFF1FB8D47F1B713
:104F8000BC4E93F7F78793E70728D9BFB44F416624
:104F9000F98EB4CF9447D18E94C7D44793F6F6EFE9
:104FA000D4C7D443758FD8C3D44793E60610D4C76B
:104FB000D843518FD8C38280397122DC1384418752
:104FC0001C4006DE26DA4AD84ED652D456D25AD0E3
:104FD0005ECE62CC66CA6AC86EC6D843FD76FD1640
:104FE0001377F7EFD8C39857758F98D7D857B70668
:104FF00002003D9BD8D79847558F98C7D843136771
:105000000701D8C303C7818783C6B187558F71E372
:10501000D84381749384F40F799BD8C3985FB166A9
:10502000658F558F98DFD84313671700D8C3970053
:105030000020E78020941C4003A707091377F7039B
:10504000238CE18603A7470929831377F707A38DEC
:10505000E186D843B96693860670799BD8C3985F7A
:10506000658F558F98DFD84313671700D8C3970013
:105070000020E78020901C4003A707091377F7035F
:10508000238DE18603A7470929831377F707A38EAA
:10509000E186D843B56693860630799BD8C3985F7E
:1050A000658F558F98DFD84313671700D8C39700D3
:1050B0000020E780208C18408327070993F7F70327
:1050C000A38CF18683274709A98393F7F707238EDB
:1050D000F1861C4003CC918783C6818703A7070A0A
:1050E000B386864113F6F600419B518F23A0E70A51
:1050F000130760023387E6021306700283A5070ACE
:105100007D7E130EFE0F93F5F5F0130540024573F7
:105110007D13130430023347C702B708F1FFFD18AF
:1051200013082002930E10027D4FF94FF542F14310
:105130006D4DD14B454BBD443949314AAD4AB54916
:105140003D8B12074D8F9305500223A0E70A33874A
:10515000B60283A5070AB3F5C5013347C7023D8BE5
:1051600022074D8F23A0E70A3387A60283A5070AEB
:10517000370500F17D15B3F565003347C7023D8B58
:1051800032074D8F23A0E70A3387860283A5070ADB
:105190006144B3F515013347C7023D8B42074D8F7C
:1051A00023A0E70A3387060383A5070A370810FF01
:1051B0007D18B3F505013347C7023D8B52074D8F6C
:1051C00023A0E70A3387D60383A5070AB70E00108A
:1051D000FD1EE98D3347C7023D8B62074D8F23A02B
:1051E000E70A139756003347C7029315C70103A771
:1051F000070A3377D7014D8F23A0E70A3387E603E9
:105200005D4F3347C7029375F70003A7470A419BD9
:105210004D8F23A2E70A3387F60383A5470AD94FA8
:1052200093F5F5F03347C7023D8B12074D8F23A24C
:10523000E70A3387560283A5470AD542B3F5C5016D
:105240003347C7023D8B22074D8F23A2E70A3387DE
:10525000760283A5470ACD43B3F565003347C702FD
:105260003D8B32074D8F23A2E70A3387A60383A520
:10527000470A494DB3F515013347C7023D8B420735
:105280004D8F23A2E70A69473387E60283A5470AC1
:10529000B3F505013347C7023D8B52074D8FE545F6
:1052A00023A2E70A3387B60283A5470AE98D33476D
:1052B000C7023D8B62074D8F23A2E70A3387860220
:1052C0000D443347C7029315C70103A7470A337735
:1052D000D7014D8F23A2E70A3387E603254F3347D3
:1052E000C7029375F70003A7870A419B4D8F23A43C
:1052F000E70A3387F60383A5870A9D4F93F5F5F0F8
:105300003347C7023D8B12074D8F23A4E70A33872B
:10531000560283A5870A9942B3F5C5013347C702F0
:105320003D8B22074D8F23A4E70A3387760383A59D
:10533000870AB3F565003347C7023D8B32074D8FAF
:1053400023A4E70A3387760283A5870A9543B3F53A
:1053500015013347C7023D8B42074D8F23A4E70A4F
:105360003387A60383A5870A294DB3F50501334783
:10537000C7023D8B52074D8F23A4E70A338766038C
:1053800083A5870AE98D3347C7023D8B62074D8F9E
:1053900093954600B3C5C50223A4E70A03A7870A6D
:1053A0003377D701F2054D8FB385960223A4E70A20
:1053B00003A7C70A419BB3C5C502BD894D8F23A66C
:1053C000E70A3387260383A5C70A93F5F5F0334729
:1053D000C7023D8B12074D8FB3C5860223A6E70A8D
:1053E00003A7C70A3377C701BD89A2054D8F23A63E
:1053F000E70A3387460383A5C70AB3F56500334739
:10540000C7023D8B32074D8F23A6E70A3387560329
:1054100083A5C70AB3F515013347C7023D8B420781
:105420004D8F23A6E70A3387A60383A5C70AB3F5E2
:1054300005013347C7023D8B52074D8F23A6E70A6C
:105440003387E60383A5C70AE98D3347C7023D8B3F
:1054500062074D8F93953600B3C5C50223A6E70AB0
:1054600003A7C70A3377D701F2054D8FB385F6033B
:1054700023A6E70A03A7070B419BB3C5C502BD8955
:105480004D8F23A8E70A3387560283A5070B93F5B0
:10549000F5F03347C7023D8B12074D8F23A8E70A6B
:1054A0003387760283A5070BB3F5C5013347C702DF
:1054B0003D8B22074D8F23A8E70A13972600334719
:1054C000C70283A5070BB3F565003D8B32074D8FEF
:1054D000B3C5360323A8E70A03A7070B33771701E1
:1054E000BD89C2054D8F23A8E70A139716003347DD
:1054F000C70283A5070BB3F505013D8B52074D8FFE
:10550000B3C5C60223A8E70A03A7070B698FBD89A5
:10551000E2054D8F23A8E70A03A7070B9305800236
:105520003377D70123A8E70A03C7A1873307EC40E5
:10553000B34DB70283AC470B93FC0CFFB34B77031F
:1055400093FDFD00B3ECBC0123AA970B83AC470B82
:10555000CD4D93FCFCF093FBFB00920BB3EB7C0175
:1055600023AA770BB30B870283AC470BB3FCCC01A8
:10557000B3CBBB0293FBFB00A20BB3EB7C01B34CA0
:10558000A70323AA770B83AB470BB3FB6B0093FCFA
:10559000FC00B20CB3EB9B0123AA770BA14BB34BDE
:1055A000770383AC470BB3FC1C0193FBFB00C20BDE
:1055B000B3EB7C0123AA770BB30B570283AC470BE9
:1055C000B3FC0C01B3CBBB0293FBFB00D20BB3EBE0
:1055D0007C0123AA770BB30BF70383AC470BB3FC17
:1055E000AC00B3CBBB0293FBFB00E20BB3EB7C0143
:1055F000B34C770223AA770B83AB470BB3FBDB01DA
:10560000F20CB3EB9B01B30CE70323AA770B83AB3C
:10561000870B93FB0BFFB3CCBC02B30A570393FC7D
:10562000FC00B3EB9B0123AC770B914B83AC870B56
:1056300093FCFCF0B34B7703330A470393FBFB0067
:10564000920BB3EB7C0123AC770B83AB870BD54C70
:10565000B3FBCB01B3CABA02B309370393FAFA001A
:10566000A20AB3EA5B0123AC570B83AA870BD94B81
:10567000B3FA6A00334ABA0233092703137AFA00ED
:10568000320A33EA4A0123AC470B03AA870BE14AEB
:10569000337A1A01B3C9B902B304970293F9F90036
:1056A000C209B3693A0123AC370B83A9870B654A5A
:1056B000B3F909013349B902B3C4B4021379F9004B
:1056C000520933E9290123AC270B03A9870BE949C8
:1056D0003379A900330B6703BD88E204B3649900F2
:1056E0001319470023AC970A83A4870BB3F4D401A2
:1056F0003349B902334BBB027209B3E4240123AC32
:10570000970A83A4C70BC198137BFB0033EB64019A
:10571000C944B304970223AE670B03A9C70B5D4BC3
:105720001379F9F0B3C4B402BD889204B36499004C
:1057300023AE970AB304B70303A9C70BF54D33791A
:10574000C901B3C4B402BD88A204B364990023AEF6
:10575000970A8944B344970203A9C70B33796900B8
:10576000BD88B204B364990023AE970AB3049703CB
:1057700003A9C70BF94C33791901B3C4B402BD882E
:10578000C204B364990023AE970AB304770303A954
:10579000C70BFD4B33790901B3C4B402BD88D204F1
:1057A000B364990023AE970AB304670303A9C70B38
:1057B000130B10023379A900B3C4B402BD88E2040C
:1057C000B364990023AE970AB304570303A9C70B28
:1057D000930A20023379D901B3C4B402F204B3644A
:1057E000990023AE970AB304470303A9070C130AD1
:1057F0003002137909FFB3C4B402BD88B3649900C1
:1058000023A0970CB304370303A9070C93094002A4
:105810001379F9F0B3C4B402BD889204B36499005B
:105820006D4923A0970CB304270303A9070C337910
:10583000C901B3C4B402BD88A204B364990023A013
:10584000970CF144B304970203A9070C337969005C
:10585000B3C4B402BD88B204B364990023A0970C0A
:10586000B304B70303A9070C33791901B3C4B40215
:10587000BD88C204B364990023A0970CB3049703B6
:1058800003A9070C33790901B3C4B402BD88D2045B
:10589000B364990023A0970CB304770303A9070C02
:1058A0003379A900B3C4B402BD88E204B36499009B
:1058B00023A0970C93145700B3C4B4021399C401E6
:1058C00083A4070C3306C702B3F4D401B3E4240164
:1058D00023A0970C03A9470C137909FFB3046703AE
:1058E000B3C4B402BD88B364990023A2970CB30477
:1058F000570303A9470C1379F9F0B3C4B402BD8868
:105900009204B364990023A2970CB304470303A93C
:10591000470C3379C901B3C4B402BD88A204B3648F
:10592000990023A2970CB304370303A9470C3379DA
:105930006900B3C4B402BD88B204B364990013090A
:10594000500223A2970CB304270303A9470C337911
:105950001901B3C4B402BD88C204B364990023A280
:10596000970C93046002B304970203A9470C3379A0
:105970000901B3C4B4023346B602BD88D204B3648D
:10598000990023A2970C83A4470CE98C3D8A6206F8
:10599000458E23A2C70C03A6470C9314C701337688
:1059A000D601458E23A2C70C130690023306C70208
:1059B00083A4870CC1983346B6023D8A458E23A442
:1059C000C70C1306A0023306C702B345B60203A6EE
:1059D000870C1376F6F0BD899205D18D23A4B70C00
:1059E00083C5C18703C6D1873386C540B304A603E8
:1059F00003A9870C3379C901B3C4E40293E484009A
:105A0000BD88A204B364990023A4970CB304E603F1
:105A100003A9870C33796900B3C4E40293E48400DA
:105A2000BD88B204B364990023A4970C9314360084
:105A3000B3C4E40203A9870C3379190193E4840009
:105A4000BD88C204B364990023A4970CB304F60381
:105A500003A9870C33790901B3C4E40293E48400F9
:105A6000BD88D204B364990023A4970CB3045602F2
:105A700003A9870C3379A900B3C4E40293E484003A
:105A8000BD88E204B364990023A4970CB3047602A2
:105A900003A9870C3379D901B3C4E40293E48400E9
:105AA000F204B364990023A4970C93142600B3C4A2
:105AB000E40203A9C70C137909FF93E48400BD88AD
:105AC000B364990023A6970CB304860203A9C70CFC
:105AD0001379F9F0B3C4E40293E48400BD8892041E
