:040000006F10002E4F
:1000040000000000000000006F0080086F00C04A7C
:1000140000000000000000000000000000000000DC
:1000240000000000000000000000000000000000CC
:100034006F004006000000006F00E00500000000B3
:100044006F0080056F0060056F0040056F0020059C
:100054006F0000056F00E0046F00C00400000000A2
:100064006F0060046F0040046F0020046F00000400
:100074006F00404B6F00C003000000006F0060037E
:100084006F0040036F0020036F0000036F00E00265
:1000940001A001A001A001A001A001A001A001A054
:1000A40001A001A001A001A001A001A001A001A044
:1000B40001A001A001A001A001A001A0B717004068
:1000C400130770052380E704130780FA2380E704ED
:1000D4002396A70223800704371700408347270588
:1000E400898BEDDF835707053717004083472705C2
:1000F400898BEDFF3717004083472705898BEDDF98
:100104000355070582804111814601468145114509
:1001140006C6F521B727004011472383E780B7F7C8
:1001240000E003A707D16D9B23A8E7D003A707D15D
:100134005D9B23A8E7D07300501001000100B2407A
:10014400410182804111814601468145114506C61F
:100154007D21B727004011472383E780B71700406C
:1001640003C7E70283C6E70483D7870311661377BF
:10017400F70F93E6360063E5C700719B136717001A
:10018400B7170040930570052380B704130680FA5F
:100194002380C704238207022387E7022387D70427
:1001A40003C7B70413670702A385E7042380070482
:1001B40037F700E0832607D193E646002328D7D0FB
:1001C400832607D1DD9A2328D7D07300501001006D
:1001D40001002380B7042380C70403C7B70413773F
:1001E400F70DA385E70423800704B2404101828010
:1001F400411122C4814681452A840146114506C61F
:10020400FD2EB727004011472383E780B71700402E
:1002140003C7E70283C5E70483D78703916613778F
:10022400F70F93E5350063E5D700719B136717005B
:10023400B7170040130670052380C704930680FA9D
:100244002380D704238207022387E7022387B70486
:100254002380070437F700E0832507D193E54500A1
:100264002328B7D02380C7042380D70483C5F7008D
:1002740093E50504A387B70083C5B70493E5050296
:10028400A385B704E57591054D8C42044180239004
:100294008702832507D1DD992328B7D07300501036
:1002A400010001002380C7042380D70403C7B704D7
:1002B400130560041377F70DA385E704238007046F
:1002C4002244B240410125A4011126CA81460146B7
:1002D400AA848145114506CE22CC4AC84EC60526BD
:1002E400B727004011472383E780B716004083C730
:1002F400E60203C7E60483D68603116693F7F70F75
:100304001367370063E5C600F19B93E717003714C2
:1003140000409309700523003405130980FA230073
:100324002405230204022307F4022307E404230020
:10033400040413055002B920B7F700E003A707D15E
:100344001367470023A8E7D02300340523002405BE
:100354000347F40013670704A307E4002567D98C57
:100364002310940203A707D15D9B23A8E7D0730051
:10037400501001000100F2406244D2444249B249A3
:1003840005618280B7170040930670052380D70467
:10039400130780FA2380E70403C6B7041376F60D27
:1003A400A385C70423800704137605022DC603C65C
:1003B400A700118A0DE22380D7042380E70403C732
:1003C400A700136747002385E7009307004B01004C
:1003D4000100FD17EDFFB717004093067005238059
:1003E400D704130780FA2380E7047D892394A700A8
:1003F4000100010001000100238007042380D704C9
:100404002380E7049306100537270040A303D78011
:10041400238007048280137605046DDE03C6A700DB
:10042400418A0DE22380D7042380E70403C7A70091
:10043400136707012385E7009307007D010001008E
:10044400FD17EDFFB7170040930670052380D7040E
:10045400130780FA7D892380E70413650504239438
:10046400A70001000100010001002380070423808C
:10047400D7042380E704930630053727004079B773
:100484004111814601468145114506C68D2AB7179B
:100494000040130770052380E704130780FA2380C4
:1004A400E70403C76704136717002383E704238063
:1004B4000704B240410182808146014681451145CD
:1004C4003D2AB7170040130770052380E70413077C
:1004D40080FA2380E7047D572396E70203C7670465
:1004E400136717002383E7042380070401A0BD4793
:1004F4003305F50201007D1575FD8280411122C48A
:1005040026C206C6AA84014463179400B24022445A
:1005140092444101828005041305803E4204C13F98
:100524004180DDB7B7170040130700032388E702B3
:10053400854723ACF18073002030411106C6A92100
:10054400FDBF2303048015472303E4800100230235
:10055400A480828083076480E3CE07FE23030480A3
:10056400828083076480E3CE07FE03454480828053
:1005740083076480E3CE07FE2302A48082804111B6
:1005840026C44AC24EC006C61377F50BAD47AA89E6
:100594002E8995446306F70019456537653F8D44F8
:1005A4004E854537FD59FD1463983401B240A24489
:1005B4001249824941018280135509011375F50FCF
:1005C400453F2209CDB7011126CC06CEB704080059
:1005D40051371545BD37713769372AC6A53F3245AE
:1005E4009377150089EB136515001375F50FF24029
:1005F400E24405618280FD14E9FC0145CDBF3971F7
:1006040026DC4ADA4ED852D656D45AD25ED006DE0A
:1006140062CE66CCB7E700E07D5783AA070022C606
:1006240003AA470023A0E71823A2E718B71700403E
:10063400130770052380E704130780FA2380E70477
:1006440083C74704930B75FFB684E20793FBFB0F44
:100654008546AA892E8B328937240040E1870157C9
:1006640063FA76016308D500894613070002631311
:10067400D5000157D98F93F7F70FB71C0040238299
:10068400FC0411472303E4801305F00F5D3D094C7E
:10069400D13563697C11B70707003E9B3787070094
:1006A4007955637EEB02B3079B00636AF702A9479F
:1006B4006399F90689E48144713D26850DA0DA85A4
:1006C4000945753D05090345F9FFFD14050B4D3535
:1006D40081C49377FB0FFDF7FD3569FD7D55B71791
:1006E4000040130770052380E704130780FA238072
:1006F400E70403C74704418B2382E704F250B7E7BA
:1007040000E023A0571123A24711E2543244525966
:10071400C259325AA25A125B825B724CE24C21617A
:100724008280A5476395F90685691309F00FB3061E
:100734009900B3742B01B6941349F9FFB37499006B
:10074400856B33796901416B9387F9FFB3F727010F
:1007540099E363FC340193D94900C147E3E637FFC9
:1007640099BF0569C1697D19D9B71305800D6388DF
:100774006901130500026384790113051008CA8511
:10078400FD3B913521DD4E99B3843441D9B7DA85E7
:100794002D45F533CA94E30099F20509D933A30F23
:1007A400A9FED5BF9387F9FF93F7F70F636CFC0895
:1007B40003C75C04B70708001377070219E3B78778
:1007C40007007955E37DFBF033079B00E3E9E7F08D
:1007D40089476390F9048980D549E38E04ECDA856E
:1007E4000945713B11090327C9FF91472320E48080
:1007F40003076480E34E07FE23033481FD17EDFBFA
:10080400FD14110B81C49377FB0FE9FF6D3B71F568
:10081400F1B58547E387F9F4DA852D458D3393895E
:10082400F4FFE38A04E8353B93F7390091EB832620
:1008340004800327090093074900E39FE6E63E8905
:10084400CE84F1BFB5476396F9001305900BD539F3
:100854009DB5B1471305B00AE38BF9FE9947639E32
:10086400F902DA852D45213B81448D4BA149D539C7
:1008740063967401832704802320F9008504E39898
:1008840034FF8327048013172B01635507002312B9
:10089400F90015B52322F90039BD9D476399F90282
:1008A40081451305B004E139BD4423200900232206
:1008B4000900FD597D3193F77400CA9703C70700F7
:1008C400FD14398D2380A700E39634FFEDB3A147CF
:1008D4006392F904CD398144630D0B008D47930471
:1008E400C0036308FB009304000563048B019304B5
:1008F40040041375C507E30095DC1945993199390E
:10090400054581312685AD3109459D316D39E314A5
:1009140005DAE9B391476399F900130560061531C7
:1009240015391305900925B7E38709D8F15469B33C
:1009340009CDB7170040130770052380E704130798
:1009440080FA2380E7042396A702828019C1814795
:1009540099E982803387F500834607003307F50061
:1009640085072300D700E397C7FEE5B719C1FD57F4
:1009740081E98280910503A7C5FF1105232EE5FEB9
:100984007D16E319F6FEF5B7797122D41724000019
:10099400130404481C4006D626D24AD04ECE91C732
:1009A40082979727000023A507465C4089CB03D58F
:1009B400C183BD3F5C40829703D5E183953F1C40D2
:1009C400639907189727000083C79746858B95C7B7
:1009D40097270000A38E0744172700000347774595
:1009E400914763FCE700BD299727000083C777443C
:1009F400F9178A07A2979C4382979727000083C719
:100A0400E747918B89C7970000E0E78080121C4478
:100A140091C38297938781839843172600000346E6
:100A2400F63C3E89972400009384443C97270000B9
:100A340083C7C73B93961700BA9683D60600638094
:100A440006109727000083C7673A63F2C708860732
:100A54003E97835507002310070003D5C1832EC694
:100A640023920184F135938701859C431725000067
:100A74000345C53713172500BA979C43B24582979F
:100A8400AA8903D5E1836D359727000083C707360C
:100A9400139717008327090003D541841345F5FFF5
:100AA400BA9703D7070033753501598D2390A700F2
:100AB40083C70400850793F7F70F17270000230760
:100AC400F732172700000347773263E6E7009727DA
:100AD4000000238D07301C40ADEF93878184984339
:100AE4003E8425CB9727000083C7F73491CB972703
:100AF400000083C7173489E7970000E0E78020BA35
:100B04001C4082972A8431C59C48AA971727000065
:100B14002326F72E9387C1849C4385CF03D5C183B5
:100B2400013D228597F0FFDFE78080112254B25007
:100B340092540259F24903D5E1834561D5BB850737
:100B440093F7F70F972600002382F62AE3E0C7EE17
:100B5400CDBDB250225492540259F249456182806B
:100B64009167B7C600409387373023A6F6200F104D
:100B740000009727000093876727884F9387C186D3
:100B84009C43316713073730F053B7071000FD1744
:100B9400918F99833A0523A6E6205D8D82804111C9
:100BA400B7170040985F3AC6945F3247E39CE6FE6D
:100BB400324541018280411106C6D537972600008F
:100BC40083C64620858AB1C6930730333307F502BE
:100BD400B337F5023983CA07D98F172700001307E3
:100BE400E720584B01456303F7023385E740636B05
:100BF400F70037653D0889C637856F0813050590EA
:100C0400198D3E9517270000232CF71EB240410191
:100C14008280E5473307F502B337F5022583DE0703
:100C240065BF5D7122DE1384C1853AD218403ED07F
:100C34004ACA1C5F86C696C499839AC29EC026DCA3
:100C44002ADA2ED832D636D442CE46CC72C876C6EC
:100C54007AC47EC2858B13898185C1C31C5F9724A6
:100C640000009384A41C93F7F7F91CDF9727000076
:100C740083C7C71B93F707048DC3938741859C43A0
:100C840082979727000023ABA71A83C7040093F722
:100C9400F70B17270000230BF718854717270000C9
:100CA400A308F71883C7440093F7070481EF9387D9
:100CB400C1869C43D844B8D3930700FC172700008F
:100CC4002308F7168387640063D907008327090084
:100CD4009C4317270000230EF71418401C5F8583DC
:100CE400858BC9CBF5571CDF010001000100010011
:100CF40001000100010001000100010001000100E8
:100D040001000100010001000100010001000100D7
:100D140001000100010001000100010001000100C7
:100D240001000100010001000100010001000100B7
:100D340001000100010001000100010001000100A7
:100D44000100010001000100010001000100010097
:100D54000100010001000100010001000100010087
:100D640001000100010001009387C1869C43130721
:100D74005004B8CB18401C5F9183858B89CFBD5735
:100D84001CDF9387C1869C4323A807048547172744
:100D94000000230FF70883270900D8430583058B38
:100DA40019C7D843759BD8C3D843799BD8C3725409
:100DB400B640A64216438643E2545255C2553256B3
:100DC400A256125782577248E2485249424EB24ED6
:100DD400224F924F6161730020309387C186944300
:100DE4001727000013078704BC5289CF83472700C5
:100DF400858B89EB83473700858BFDD797270000C8
:100E0400238807028280938781869C4399CB944BE5
:100E1400D04B9842518F98C294439C479842D98FA3
:100E24009CC29387C1869C4337C700401306C00306
:100E3400A8CB9306200397250000938525FF8327DD
:100E44008720C18393F7F7036369F600832787201C
:100E5400C18393F7F70363E6F60083C74500858BE8
:100E6400F9DF82809387C186944317270000130714
:100E7400E7FBBC5289CB83470700858B91CB97272F
:100E84000000238707FA97270000A38307FA8280CC
:100E940083471700858BF1DFDDB7938781869C43F9
:100EA40099CB944BD04B9842518F98C294439C4712
:100EB4009842D98F9CC29387C186944337C7004018
:100EC400C145A8CA654683278720C18393F7F703E2
:100ED40063FBF50083278720C18393F7F7036364DB
:100EE400F600BC52EDF382801387C1851843AA87AC
:100EF400185F1583058B25EF03451500150513773A
:100F0400C51F19C6B386E70083C626002300D60092
:100F140095C59726000083C6C6F193F606040945D5
:100F2400A1CAB386E70083C63600054693F5F606E4
:100F34006390C504E206E18663CC06023385E700CC
:100F44008347150003470500A20793F70770D98F5D
:100F54001397070141839376074099C61367078067
:100F64002392E186014582802392F186E5BF0545FF
:100F74008280011136C89386C1862ECC8C423AC633
:100F84003EC498452ACE32CA9317070142C2C18390
:100F94001378172036853E8697260000938606E947
:100FA400630408041377072061CF03C7260013677F
:100FB400170017280000230CE8E613070019B8D11E
:100FC400130700F8972500002384E5E61387C185FD
:100FD4000C4337080010D855719B13672700D8D5E8
:100FE40098413367070198C11377261005C3137618
:100FF400061045CA03C7060013671700172600002A
:101004002306E6E217270000231607E283C64600FC
:1010140093C7F7FFC207E206E186C183184163D193
:1010240006029396170163D7060830538D4663E989
:10103400C600854617260000230CD6DE3453FDFE79
:10104400972600009386C6D68386460163DD060094
:1010540093960701C18663D506067053894663E4F7
:10106400C6007453FDFE14477245E245F58F1CC754
:101074005246C2463247A2471248056173002030E7
:1010840003C716001367170097250000A380E5DA4D
:1010940017270000230E07D817270000231C07D8A2
:1010A400A1B703C736001367170017260000A30073
:1010B400E6D889BF854617260000230BD6D649B744
:1010C40054471396060163510602B7061000FD1635
:1010D40074D397260000938666D1944E850617260E
:1010E40000002321D6D241B7A166D58FADBF172703
:1010F4000000130767D58346B7019727000083C70D
:10110400F7D7B69793F7F70FFD4663EAF6044C4B0F
:1011140097260000A38AF6D29727000083C7D7D268
:1011240005473317F70097260000A389F6D46D8F7F
:101134001DEF9726000083C6B6D4B3F6D702130575
:101144000002814733D6F500058A13F8F70F09CE5C
:101154006399E60097270000A38807CF8280811750
:101164007DB705071377F70F8507E39DA7FC8280FA
:10117400938741879843B75702009387279F832615
:101184000709139656006358060083260709139629
:10119400660063440600FD17FDF3828051C9AA87E7
:1011A4000145C9C98D07C207C183F19BC207C18329
:1011B40013074003636BF70213878188084313877F
:1011C400018814436396A60217270000130747BE3D
:1011D400185B014525C34111C20706C60545DD8DCF
:1011E4000297B24001454101828013874188F9B7D3
:1011F4000357650005EF035745006369F702B3061B
:10120400F74021466370D6021041938687001D8FF4
:10121400AA96611790C22392E6002393060014C194
:101224002312F5002313B50021058280084159BF1C
:1012340001458280828001CD9387818803A80700BD
:10124400938701888C430147C28763E3B700828098
:101254009443636FF50663EDA60613868700E3687F
:10126400C5FE03D56700216605066317C50003C6DE
:10127400C18805062386C188239307006384070376
:10128400138641881042630FF6000356670019EA7B
:1012940083D7470014C383564700B697A107231288
:1012A400F700BA879843E304B7FA938641889442D7
:1012B400E30FD7F883566700D9FA83D6470003565D
:1012C40047001843A106B2962392D70098C38280A0
:0812D4003E87B6879DBF0000B4
:1012E000974100209381011217710020130181D1D1
:1012F00013054000972500209385C5501736002020
:101300001306C67D63FAC5008322050023A055009D
:1013100011059105E3EAC5FE1775000013050546A2
:10132000973500209385857B1386018163FAC5007C
:101330008322050023A0550011059105E3EAC5FEAF
:1013400013850181975500209385C53E6377B500CD
:10135000232005001105E36DB5FE9302800873A0FC
:101360000230972200209382E24993E212007390A8
:101370005230972200009382C2CA739012347300D5
:1013800020303D432A876373C3029377F700BDEF94
:10139000ADE5937606FF3D8ABA960CC34CC30CC7E5
:1013A0004CC74107E36BD7FE11E28280B306C3400E
:1013B0008A069702000096966780A6002307B7006A
:1013C000A306B7002306B700A305B7002305B7009F
:1013D000A304B7002304B700A303B7002303B70097
:1013E000A302B7002302B700A301B7002301B7008F
:1013F000A300B7002300B700828093F5F50F939602
:101400008500D58D93960501D58D61B793962700FC
:101410009702000096968682E78086FA9680C1172A
:101420001D8F3E96E374C3F8A5B7B717004083C875
:101430008705194703C89705A38C0704238CE70485
:1014400003C7970593F8F80F1378F80F13679702FF
:10145000A38CE7040547238DE70437170040834733
:10146000A7059305A705858BFDFB0565C1463717C5
:101470000040054E1303F5FF2380C50103C6050098
:10148000058A6DFE0356C705FD16C2061346F6FF14
:1014900033766600C182B297E5F283469705A107CD
:1014A000918393F6760F13050580A30CD7041D8D49
:1014B000230C17054205A30C070541858280B71749
:1014C000004003C777051A0592054D8D1377E70F86
:1014D00013653500A38BE7041375F50FA38CA704E0
:1014E0008280B717004003C777051377E70FA38BF8
:1014F000E704130700F8A38DE7043D47238CE704B6
:1015000013075003A38CE70482800547B7170040F8
:10151000238DE704371700408347A705858BEDFF30
:101520000355C705520551818280B717004003C794
:10153000E704930670052380D7041377C70F0D893E
:10154000930680FA2380D704498F2387E7042380FA
:1015500007048280B717004003D587005D714EDE17
:101560004205418186C6A2C4A6C2CAC052DC56DA70
:101570005AD85ED662D466D26AD06ECE9377050C06
:101580001307000881496386E71813070004639A6C
:10159000E714B7240D8F7D8993840480B3D4A4020B
:1015A0009167938707E8BE94A167938707D0B3D468
:1015B000F402EF50C025977700009387A7BB9043B4
:1015C000D443EF409059EF500067AA8B939C0401DD
:1015D00003D9018193DC0C01631509000569130926
:1015E0000980B7170040130770052380E70413072D
:1015F00080FA2380E704B71A00400547939D040151
:10160000096C2389E704514B01438145138D0A047A
:1016100013067005930680FA094893DD0D01130C3B
:101620000C71A9482300CD002300DD0023962A0376
:1016300023000D0083C72A05898BEDDF83D70A05B8
:1016400083C72A05898BEDFF83C72A05898BEDDFC8
:1016500083D70A0523982181C207C1833385974127
:10166000131A0501135A0A41630B0A143307BA020D
:10167000635E070C05034203135303016368680CA0
:1016800063D9050A3305B04093150501C185C2042D
:10169000C18063D7450B0965130505713385A50224
:1016A000B7170040130770052380E704130780FA7B
:1016B0002380E704239637032380070433459502EC
:1016C00042054181B640264496440649F259625A81
:1016D000D25A425BB25B225C925C025DF24D616168
:1016E0008280B1E3B77489097D8993840480B3C48F
:1016F000A4029167938707E8BE94A167938707D0F8
:10170000B3C4F402EF50A01097770000938707A7A7
:101710007DB597770000938767A5856483AB070045
:101720009384843865B5930B0000954445B53A8998
:10173000D5BDB387FC40139A0701135A0A4181BFF4
:101740000965130505713305AA028DBF3385B741BD
:1017500063E4FC003385FD40330585033344B50362
:1017600063C5880013150401A9BF528532C636C46B
:10177000EF500040DE85EF508010EF5040391313DA
:101780000501135303413307694042074183A246D1
:1017900032460948A948631AE9001307190063444F
:1017A00040011307F9FF420741837D1B137BFB0FA9
:1017B000CA89D285E31D0BF62398E18065B7014500
:1017C00011B7B717004003D5870039715ECE4205C7
:1017D000418106DE22DC26DA4AD84ED652D456D2D1
:1017E0005AD062CC66CA6AC86EC69377050C1307D6
:1017F0000008814B6388E71413070004639CE7101B
:10180000B7240D8F7D8993840480B3D4A40291679B
:10181000938707E8BE94A167938707D0B3D4F402F7
:10182000EF40F07E977700009387C7949043D443AE
:10183000EF40B032EF502040AA89939A040103D9B7
:10184000218193DA0A0163150900056913090980EA
:10185000B7170040130770052380E704130780FAC9
:101860002380E704139B04010547096A2389E704E1
:10187000D14D014D814C135B0B01130A0A714A854E
:1018800097200020E780C003330C5541420C135CC5
:101890000C4123992181630A0C14B3079C0363D084
:1018A000070E050D420D135D0D01894763E9A70D74
:1018B00063DA0C0A33059041931C050193DC0C415B
:1018C000C204C18063D78C0B09651305057133858C
:1018D000AC02B7170040130770052380E704130715
:1018E00080FA2380E7042396770323800704334597
:1018F000950242054181F2506254D2544259B25984
:10190000225A925A025BF24B624CD24C424DB24D7B
:1019100021618280B1E3B77489097D899384048051
:10192000B3C4A4029167938707E8BE94A167938725
:1019300007D0B3C4F402EF40906D9777000093870F
:10194000E783EDB59777000093874782856483A985
:10195000070093848438D5B5930900009544F1BD00
:101960003E8931BF3385AA40131C0501135C0C412D
:1019700081BF0965130505713305AC028DBF63FE98
:10198000AA003305654133054503A9473344650380
:1019900063C8870013150401B1BF3305AB40E5B739
:1019A0006285EF50E01CCE85EF40706DEF50201641
:1019B000131D0501135D0D41B307A941C207C18382
:1019C000631AF90093071900634480019307F9FF34
:1019D000C207C1831387FDFF937DF70FCA8BE28C8B
:1019E000E3900DF82399F18075B7014529B74111AE
:1019F0002A83014E930E407E130F0019930F400669
:101A000063EB6E0A9308001913034006B3781503BD
:101A1000854E0D4FA14F337365020D8913351500A7
:101A200063E5BE0C1308F6FF794672984208135816
:101A300008013307C70213D61700BE073297614665
:101A4000B3F6C60213068070B386C6023697A16647
:101A5000F58F42075D8FB717004083C6F70293F6F4
:101A60000608A307D1000346F10083C6F70293F6E8
:101A70000608E394C6FE8346F10093F6F60FF1DE06
:101A8000930670052380D704930680FA2380D70439
:101A900023AA070383C6170393E60608A388D70281
:101AA000D8DB03C7170313670704A388E702238063
:101AB0000704410182807D133368E3039308E01635
:101AC000630E08003368F3039308D0166308080018
:101AD0009378330093B818009388D81633081E0102
:101AE000131E0801135E0E0121BF6393E503054831
:101AF000638608000148630303002A88710872980E
:101B0000FD15131E0801C205135E0E01C18109BF38
:101B100013F8150063F4BF007908D5B7133818001F
:101B2000E5BF4111B7170040985F3AC6945F32474E
:101B3000E39CE6FE324541018280914763EEB702A5
:101B400017670000130707648A05BA959C41BA9786
:101B50008287B717004003A7470B1345F5FF698F2E
:101B600023AAE70A03A7070B698F23A8E70A03A79D
:101B7000070A798D23A0A70A8280B717004083A6A1
:101B8000470B1347F5FFF98E23AAD70A83A6070B45
:101B9000558D23A8A70A83A6070A758F23A0E70AF5
:101BA0008280B717004003A7470B498F23AAE70A93
:101BB00003A7070B1345F5FF45BFB717004083A6E2
:101BC000470B1347F5FF758F23AAE70A03A7070AF8
:101BD000598D4DB7B717004003A7470B498FEDB795
:101BE000914763EEB702176700001307E75A8A05AB
:101BF000BA959C41BA978287B717004003A7470D53
:101C00001345F5FF698F23AAE70C03A7070D698F1A
:101C100023A8E70C03A7070C798D23A0A70C8280CB
:101C2000B717004083A6470D1347F5FFF98E23AA87
:101C3000D70C83A6070D558D23A8A70C83A6070CE8
:101C4000758F23A0E70C8280B717004003A7470DCC
:101C5000498F23AAE70C03A7070D1345F5FF45BFDE
:101C6000B717004083A6470D1347F5FF758F23AACA
:101C7000E70C03A7070C598D4DB7B717004003A712
:101C8000470D498FEDB705E93717004093077005F9
:101C90002300F704930780FA2300F7048357070211
:101CA000C207C18393F7F79FC207C1832310F702CE
:101CB0002300070482800111B7F507008146300038
:101CC000B105194506CE97200020E7808013A24772
:101CD00013972701634A0702B717004013077005DF
:101CE0002380E704130780FA2380E70403D7070261
:101CF000136707402390E70203D707021367072003
:101D00002390E70223800704F24005618280B71721
:101D1000004003D58700420541819377050491EB8C
:101D20009377F5013755E801130505803345F50232
:101D300082809377050C130700046397E70093777D
:101D4000F50137459C1CCDB72165130505D0828070
:101D500037E700E01C435443A183E206D58F1CC142
:101D6000FD572320F7182322F718828013178500C8
:101D7000B7E700E023A0E710618123A2A7108280CB
:101D8000B7F700E0C8439C4782808147373700405F
:101D9000A14663C4C700328582800345B740E38E05
:101DA000A6FE3385F5000345050085072304A740FB
:101DB000CDB7411122C406C62A84913F2947B307F3
:101DC000E502B2408D83B3D7870222449507B3D78B
:101DD000E70237370040C207C1832316F7404101AD
:101DE0008280716541111305052006C6D937B737C2
:101DF0000040130770F82381E7400D47A381E740B7
:101E000013070004A380E74005472387E740B2405B
:101E100041018280411106C6EFF0CFF3BD4763F464
:101E2000A700EFF02FF3713ABD4763F3A700513AD3
:101E3000B24083D5218103D5018141016F10C07C5F
:101E4000411193962500AA852D4506C697200020AE
:101E5000E78020FBB240014541018280411126C24A
:101E60009394250022C44AC02A843289A686AA8572
:101E70000146254506C697200020E78080F8A68603
:101E80004A86A285294597200020E78080F7B24046
:101E9000224492440249014541018280011122CC31
:101EA00006CE3714004026CA4AC84EC652C48344E0
:101EB0007405034AB4058349840503499405EFF08A
:101EC0004FE28347A40593F4F40F137AFA0F93E7D4
:101ED0001700230DF40493F9F90F1379F90FB717CD
:101EE000004003C7A705058B6DFF03D5C705A38D6C
:101EF0004705238C3705A38C2705A38B9704F24055
:101F00006244D2444249B249224A05618280411169
:101F10009397050122C406C6C1872E8463DD07009E
:101F2000EF10801C19C1EF1060192165218DB2409E
:101F300022444101828093F7150013C51500E5FB8B
:101F40009397250163D00702EF204006E13537F66D
:101F50000200130606E0896503C54181EF10C05DEC
:101F60000965E9B7939715010145E3D207FC1765A9
:101F7000000013056529EF40507E1306006491654B
:101F800003C54181EF10405B11654DB71D71494696
:101F90009765000093858521176500001305C55AD4
:101FA00086CEEF10E04201E91765000013054521D8
:101FB000EF40B07A01A037F700E0F9575CC7FD5752
:101FC0001CCB8566B7E700E023A0D710130670107E
:101FD00010C3B8434146B0C323A0D718B8C301000B
:101FE00001001306C00381454808EF10403D9737B4
:101FF00000209387E7DB3ECA896793870780231C0D
:10200000F100A167938707E03ECE97070000938712
:1020100067E3BEC497070000938787E4BEC6B54751
:102020002308F102970700009387C7D53EDA970788
:1020300000009387E7E63EDE970700009387C7DD41
:10204000BEC0ED47A301F102B7071F2D9387A7106C
:10205000970500009385A5113ED217650000130572
:10206000651785472304F1022EDCEF40D05AB7F5FF
:10207000070081467000E105194597200020E780A0
:1020800040D858088147994670003E96034606009E
:1020900085070507A30AC700E398D7FED24791C773
:1020A0000357810185676373F70001A04808EF10AB
:1020B000A068AA8501C9176500001305E512EF4065
:1020C000905501A0F640256182804111170500005E
:1020D000130525E406C622C4EF10806213844181F3
:1020E0002300A4002528292A034504002244B240E5
:1020F00037F60200130606E0896541016F10C04300
:10210000B7170040130770052380E704130780FA10
:102110002380E704C8DB23AC01808280411106C61E
:10212000B7170040130770052380E704130780FAF0
:102130002380E70403C7F7021377A70FA387E702FB
:1021400003C7F70213672700A387E702E1311305EE
:10215000407E81470147814605468545EFF03F892E
:10216000B240014541016F103003011122CC2A8495
:10217000680006CE26CAE93E6D326367A4003305C7
:10218000A440F54763EAA7003245CD360945F24041
:102190006244D2440561828022859D373245F936FA
:1021A000373700408347574093F70704A1CB938705
:1021B00081819843BE840D4579FB83C7118391E7E4
:1021C000694597200020E780E08205456D3C9C40F2
:1021D0008DC31305D402B707C0A863F7A70037055E
:1021E00040571305D5022295213F97100020E78024
:1021F000C0710545EFF06FB3014551BF01005DB7F8
:10220000B7170040130770052380E704130780FA0F
:102210002380E70403C7E700136787002387E700ED
:1022200003C7170313670702A388E7022380070485
:1022300037070010B7E700E023A0E71082804111C4
:102240009397050122C406C626C2C1872E8463DE89
:102250000700EF00706919C1EF0050662165218DFC
:10226000B240224492444101828093F715008DC30D
:102270001306803E894503C50183EF10E02B1765E7
:1022800000001305A503EF40504D13451400C9BFCE
:1022900093F72500A1CFEF20103E9384C18283D70E
:1022A0000400944013978700A183D98F173700202B
:1022B000231AF7828DCA9306F00F1306F00FA94573
:1022C0001735002013058581EF2080371546894595
:1022D00003C50183EF1040269C40FD1723A6F18221
:1022E00013452400B5BF23830182DDBF93F745006A
:1022F0000145BDD7EF203038172500201305057E96
:10230000834705009306F00F1306F00F8507A945D4
:10231000172700202304F77CEF20405CAA8517656F
:102320000000130565FBEF40102FEF00906CAA85AD
:1023300023A4A18217650000130545FBEF40B02DD3
:102340001345440031BF797122D42A8417650000F7
:102350001305C5FA52CC56CA06D626D24AD04ECE5E
:102360005AC85EC662C4AE8AEF40303F85472383B9
:10237000F182138AC189814713F7F70F636A570FF8
:1023800003C7C18993075005631BF72A03C7D18987
:102390009307A00A6315F72AA54763F2572B8357C3
:1023A0002A0003C6018A17650000130565F6139914
:1023B0008700A183B367F900139907011359090135
:1023C00093148900458E220683C4118AD18CA68578
:1023D000EF4070242382518383C751828149A5C76E
:1023E0000144938B018D176C0000130CACF3176B39
:1023F0000000130B2BF493172400DE9703C737005C
:10240000A28562859319870003C7270033673701C8
:1024100083C917002207B3E9E9001397890083C92C
:102420000700B3E9E900EF40101FCE855A85EF4061
:10243000901E83C75182639334013E840504137454
:10244000F40FE3FA87FA639F34032254B250925494
:102450000259F249624AD24A424BB24B224C238380
:10246000018217650000130565EE45616F40F02E8F
:102470003307F400834607003307FA00850723007B
:10248000D700DDBD13D7840093D6040183C55182E4
:102490009307000313F6F40F1377F70F93F6F60F75
:1024A00013D584011384018D63E6B710939725003B
:1024B000A2972380C70003C60700A381A700176562
:1024C0000000130565ECA380E7002381D700EF40EF
:1024D000901483C5518293972500A29703C61700D5
:1024E00017650000130545ECEF40F01283C55182DB
:1024F00093972500A29703C62700176500001305D0
:10250000A5ECEF40501183C5518293972500A29707
:1025100003C6370017650000130505EDEF40B00F47
:102520009387518283C707008507A382F182814781
:10253000172600201306865AB306FA0083C6060043
:102540003307F60085072300D700E3C757FF8357FB
:102550008A0013948700A1835D8C9307A00F420427
:1025600023A6F18283C71183418099EB0566130688
:1025700006778545172500200345C568EF00D07B09
:1025800085451725002003451568EF00906815461E
:102590003306C4022254B25092540259F249624A9C
:1025A000D24A424BB24B224C03C501838945456157
:1025B0006F009078A2879386419983C54700910761
:1025C000238EB7FE83C51700A38EB7FE83C52700F1
:1025D000238FB7FE83C53700A38FB7FEE39FD7FCD9
:1025E000238AC1989305100313F6F40F17650000B2
:1025F000130585D9A38AE198239B2199EF40B00167
:1026000003C6519993051003176500001305C5D93A
:10261000EF40700003C66199930510031765000031
:10262000130585DAEF40207F03C6719993051003E7
:1026300017650000130545DBEF40E07DCDBDB250CE
:102640002254238301822382018292540259F24947
:10265000624AD24A424BB24B224C45618280797128
:1026600022D44AD006D626D24ECE8D472A8932842D
:102670006300F50A91476306F51289476315F50271
:102680002EC6EF20407FB245854717650000130531
:10269000E5BA6388F5006395250317650000130507
:1026A000A5BAEF40900B2254B2509254F249CA8519
:1026B000025917650000130565BE45616F40A0759E
:1026C0008305040017650000130545B98144EF40F8
:1026D00080748345140017650000130565B9976978
:1026E0000000938969B9EF4000738347140063E6E3
:1026F000F4002945EF4020767DB7B307940083C5E9
:1027000027004E858504EF40007193F4F40FF1BF6C
:10271000854717650000130565B26389F500894791
:102720006399F50217650000130505B2EF40F0024A
:10273000EF00302CAA8523A4A182176500001305A1
:10274000E5BAEF40406D8345140013052400E53ED3
:1027500099BF8305060017650000130525B2814463
:10276000EF40606B8345140017650000130545B208
:1027700097690000938949B0EF40E06983471400EE
:1027800063E6F4002945EF40006D5DB7B3079400A0
:1027900083C527004E858504EF40E06793F4F40F6E
:1027A000F1BF914503C50183EF00B046EDBD411176
:1027B00022C406C683C55182930700031384018D8A
:1027C00063E3B70A93972500A2971378F50F238048
:1027D000070113568501A381C70003C6070093565E
:1027E0008500135705011377F70F93F6F60F17655A
:1027F0000000130565B92381E700A380D700EF40EF
:10280000806183C5518293972500A29703C6170064
:1028100017650000130545B9EF40E05F83C551829D
:1028200093972500A29703C627001765000013059C
:10283000A5B9EF40405E83C5518293972500A297CA
:1028400003C6370017650000130505BAEF40A05C0A
:102850009387518283C70700B24022448507A38231
:10286000F18241018280A2871387419983C6470084
:102870009107238ED7FE83C61700A38ED7FE83C68B
:102880002700238FD7FE83C63700A38FD7FEE31F11
:10289000F7FC1376F50F23AAA1989305100317658B
:1028A0000000130565AEEF40005703C6519993052C
:1028B000100317650000130525AFEF40C05503C690
:1028C000619993051003176500001305E5AFEF400C
:1028D00080542244B24003C67199930510031765D2
:1028E0000000130565B041016F40E05293F71500F9
:1028F000638A070C411122C406C62E84692B23A0CB
:10290000A1829317450163D7070A85451725002043
:102910000345752FEF00F02F85471306C012914530
:10292000172500200345152E2383F182EF00D040A8
:10293000EF00300C23A4A1826D77130757A59317DE
:10294000050197260020239BE6181357850197263B
:1029500000202386E618C18313570501972600201F
:10296000A38FE616A18313178500D98F17270020A0
:102970002318F7169307A00F23A6F1820D3D1546E5
:10298000894503C50183EF00303B03C711838547A9
:10299000631CF7000566130606778545172500209A
:1029A00003454526EF00503913451400B240224438
:1029B0004101828003C711838547E317F7FE1306A1
:1029C000803EE1BF01458280797113060002814596
:1029D0000A8506D6EF00B01E1705000013056586B0
:1029E000EF0010522388A182B74776719387971220
:1029F0003EC4B7575500938757553EC6B767250065
:102A0000938707253EC28567938707842310F100CB
:102A1000970700009387E7C43EC80A85ED57230E49
:102A2000F100EF10502FAA85176500001305C58728
:102A3000EF40603E1705000013050513EF00504CF2
:102A4000854597270020A38FA71AEF00901C170534
:102A500000001305E5E9EF00B04AB25097270020C7
:102A60002382A71A45618280411122C485471384BD
:102A7000618206C62300F400EF20E03F3795250071
:102A800013050596EF20407081451765000013057A
:102A9000A597EF404038B240230004002244410192
:102AA0008280411122C485471384618206C62300B7
:102AB000F400EF20403C37B5250013050507EF2053
:102AC000A06C81451765000013058595EF40A03483
:102AD000B240230004002244410182804111894513
:102AE000056506C622C4EFF04F8589450965EFF0FC
:102AF000CF84552623A0A182AA851755000013056F
:102B0000E570EF404031938701829443856703C7A6
:102B1000D181F58F1396260185C70544630287028C
:102B2000634206029137A38E818081450565EFF0EF
:102B3000CF802244B2408145096541016FE0FFFF2B
:102B4000635806000944E30287FE99E3993FE1BF19
:102B500069FFEF204032175500001305E56CEF4088
:102B6000C03FE1B7411122C406C693F715002E8479
:102B7000638C071483C7C181854603C7118363E152
:102B8000F60E6314070E8507238EF180292623A0F5
:102B9000A182AA85176500001305058AEF40A027CA
:102BA000938701829C43139747016353070C83C7A4
:102BB0001183DDEF172700200347070589476309C5
:102BC000F70A8545172500200345F503EF0070043B
:102BD00085471306C012914517250020034595022D
:102BE0002383F182EF005015292523A4A1826D775C
:102BF000130757A593170501972600202390E6EEAB
:102C00001357850197260020238BE6ECC1831357C9
:102C1000050197260020A384E6ECA1831317850005
:102C2000D98F17270020231DF7EA9307A00F23A6AB
:102C3000F182B53E05661306067785451725002007
:102C4000034545FCEF00500F1546894503C5018338
:102C5000EF00900E13451400B240224441018280DF
:102C600009E7238E01802D2C15B7238E018039BFF3
:102C7000EF20602017270020034707F989476304E6
:102C8000F702A9459306F00F1306F00F1725002051
:102C90001305C5E4EF109044AA85175500001305ED
:102CA000A563EF40401783C76182172500200345C5
:102CB00075F599E783C7D18181C75146894549BFD9
:102CC0001306C012914569B793F72500A1C3EF2001
:102CD000801A2935175500001305C576EF40E02707
:102CE00083C76182172500200345D5F181EF83C793
:102CF000D18189CB130680258545EF00F00313456C
:102D0000240099BF1306C0129145C5BF93F7450033
:102D10000145B9D3E13383C76182172500200345FC
:102D200075EE81EF83C7D18189CB13068025854558
:102D3000EF0090001345440005B71306C0129145FB
:102D4000C5BF411122C4371400408327C40A06C6F8
:102D50008D4593E707402326F40A13050040EFE072
:102D6000DFDD8327840AB24093E707402324F40A77
:102D7000224441018280371700408327C70A8945D2
:102D80001305004093E707402326F70A6FE0FFDAB8
:102D9000411122C406C693F715002E84B9CF83C70C
:102DA000118385EB371700408327870AA166130537
:102DB000800CD58F2324F70A97100020E78040F479
:102DC000130600649145172500200345C5E3EF0075
:102DD000A076853F11668547130606E889451725C5
:102DE0000020034555E2A388F182EF00E07413450B
:102DF0001400B24022444101828093F7250001452E
:102E0000EDDB03C7118385476312F70437170040D2
:102E10008327870AA1661305800CD58F2324F70A20
:102E200097100020E780C0ED130600649145172538
:102E30000020034545DDEF0020701306401F854547
:102E400017250020034525DCEF00006F2D371345C3
:102E50002400A388018271BF0565411189451305CE
:102E6000058006C6EFE07FCD81450565EFE0FFCC2C
:102E700081450965EFE07FCC8D452165EFE0FFCB13
:102E8000371700408327C70AB240A166D58F232693
:102E9000F70A41018280B717004003A5470A8280E4
:102EA0000111175500001305255B06CE22CC26CA5A
:102EB0004AC84EC652C4EF40400A81451165EFE052
:102EC000DFC789450145EFE08FDFEFE00FD6AA8528
:102ED0002A8A175500001305255AEF30D073138442
:102EE0008199B71700401147238CE7049389C19A51
:102EF0002289A284EFE06FE152952320A9001109F5
:102F0000E39A29FFB7170040A38C07041759000064
:102F10001309C9590C404A851104EF30D06FE39B67
:102F200089FED8409C40BA979844BA97D844BA973B
:102F30009848BA971307A022635AF7028947238259
:102F4000F180371700408327870AA16617550000D4
:102F500013054556D58F2324F70A6244F240D24424
:102F60004249B249224A05616F30307F1307301F52
:102F70006342F70285472382F18037170040832799
:102F8000C70AA166175500001305C554D58F23261F
:102F9000F70AE1B7F2406244D2444249B249224AB8
:102FA00005618280411122C406C693F715002E8464
:102FB00091CFFD351755000013050554EF30F0791A
:102FC00013451400B24022444101828093F725004A
:102FD00095C3371700408327870AA166175500005D
:102FE00013050553D58F2324F70AEF3010771345C7
:102FF0002400C9BF93F745000145E9D737170040C2
:103000008327C70AA166175500001305E551D58F20
:103010002326F70AEF3070741345440065B7411159
:10302000054506C6EFE03FC6130580049710002053
:10303000E78080B585457D55EFE03FB085457D55FE
:10304000EFE01FBA371700408327870A8D45130525
:10305000002093E707202324F70AEFE01FAEEFE0FC
:103060005FD8C531093B175500001305654DEF309A
:10307000D06E175500001305254DEF30106EE93B5B
:10308000EFE0DFF0EFF06F84EF202015EFF0DF933B
:1030900017050000130505D0A52597270020A38458
:1030A000A7B617050000130525F0992D97270020D6
:1030B000238BA7B497100020E78060C81DC183460A
:1030C000E5FF1307F00F9147639EE600411106C626
:1030D00097200020E7806096B24081473E854101FD
:1030E000828095473E858280138741831C4341112E
:1030F00022C426C24AC006C601440149BA8489E7EF
:10310000A165D1210DC401A803C7E7FF6318A70279
:103110001DC8A165FD2C9840832784FF6317E40236
:1031200023AAF182FD57232C04FE230FF4FE2285EF
:10313000B2402244924402494101828011E03E891A
:1031400083A787FF6DBF3E84E5BF232CF9FED9BF5F
:1031500023AA018282809387C1849C4399E33E85A0
:10316000828003D727006316B70003C70700E30870
:10317000A7FEDC47E5B74111939705014AC006C693
:1031800022C426C2C1872E8963DE0700B13F11C168
:10319000353721653345A900B240224492440249A3
:1031A00041018280AA860145E5D901443D47B357D4
:1031B0008940858B95CB938701848443BD4791E2F9
:1031C0008147A2978E070545BE94331585001314D9
:1031D00005019C40C8404180829723A0040023A29F
:1031E0000400334524014DBF0504E312E4FC01440F
:1031F000CDBF973700209387A73B9C53411122C432
:1032000006C61384818095C7829723A4A1800840B5
:10321000B74703009387D73F3305F502B7A72600CA
:10322000938737ECB24022443E9523A4A18041010C
:103230008280973700209387673B18409C4BBA9752
:1032400023A4F180E9B793878183904397360020C8
:1032500083C6D639814713F7F70F6360D70A17374C
:1032600000200347173D914763E0E70A97370020A6
:1032700083C7C740918BC9EB0111680006CE22CCF1
:1032800026CAEF00F002FD56630FD50C3247973780
:10329000002083C7173363F3E70C173700201307A9
:1032A000E7344047173700200347C7316305D4068A
:1032B000058B21CF51473304E40263F1870A97104D
:1032C0000020E780000EB2476373F400A28717372F
:1032D00000200347172F998F3E959737002093873B
:1032E000272D8387470163CD0702B707C0A863690D
:1032F000F502B70740573E9525A08507139717009D
:1033000032970357E7FF21DB8280130790023304D3
:10331000E40205805DB762076187635707001D8D72
:1033200019E93705C0A801A8E37BF5FE3707C0A857
:10333000B307F7403E959737002093876727DC5304
:10334000829709ED973700209387472E9C4F99C7A6
:10335000EF007014EF003059EF005008F240624463
:10336000D244056182809737002093872728DC4765
:10337000E386A7FE173700201307872383464701FC
:10338000BA84858A9DC651443384870297370020CA
:1033900083C73723E3F487FC97100020E7806000A1
:1033A0009737002083C7F7211D8C2295838744011E
:1033B0001DBF13049002338487020580C1BF2A9683
:1033C00009E582800505A30FB5FEE31DC5FED5BF47
:1033D00081476314F600054582803307F5008507B1
:1033E000B386F5000347070083C6F6FFE383E6FED6
:1033F00001458280814711E9014582803307F5004C
:1034000003470700E31AB7FE8507E319F6FE0545F3
:1034100082809737002083C7771D637FF50013876D
:1034200081839317150008433E9583570500DD8D72
:103430002310B500014582800D458280FD570111A2
:1034400017370020232AF71A9387C18422CC8043A0
:103450004EC6973900209389A91526CA4AC852C476
:1034600056C206CE5AC02A8981444E8A973A002015
:10347000938ACA17184481476374E900B307274148
:1034800003A749021CC409CB03A7CA0063F6E700DF
:10349000173700202322F716A1E7835524009DE962
:1034A0005C44A1E823A6F184032BC4002285971075
:1034B0000020E78080585A8455FC83274A0285CF34
:1034C0006244F240D2444249B249224A924A024BF3
:1034D000056195BB034504002D3F5C4081CB1CC4B6
:1034E00083572400D5DFA2844044F9B71C44CDDBC8
:1034F000C5BFDCC455BFF2406244D2444249B24920
:10350000224A924A024B056182809737002083C786
:10351000F70D6371F5021387818393171500084334
:1035200093C5F5FF3E9583570500FD8D2310B5002B
:10353000014582800D4582809737002083C7170B95
:103540006364F50001458280411122C426C24AC04D
:1035500006C62A842E89B284FD3E01C504C50545F0
:103560002DA0936504F0C205C1814145971000204C
:10357000E78000430DE197370020938767039C5B4A
:1035800081C7A285114582970145B24022449244E9
:103590000249410182809387C1849C438DE323A625
:1035A000A18485472326050004C523112501230096
:1035B0008500A300F5002322050055B7BA87D84738
:1035C00075FFC8C7F9BF411122C426C24AC006C64A
:1035D000AA842E89EFF03FB82A8419C1231105006F
:1035E0009737002083C78700639497002392218533
:1035F000CA852685193F014511E01945B24022448C
:103600009244024941018280239EA182239FB1827C
:103610008280411106C623A4A1840295B240973747
:10362000002023AFA7FC014541018280994763E94F
:10363000B7008A0597370020938787FDBE9588C11C
:103640008280411106C622C426C2EF20704B71460B
:103650008145173500201305A5FB9533173400204D
:103660001304C4F81306400222858145893B23A632
:10367000018423A401849737002083C727F513D53D
:1036800027008D8B3E958D473305F50299479305AD
:1036900010109384018535051375F50F2301A400DF
:1036A0003305F5021305050F97100020E780402F22
:1036B00023A0A184834724001305050F88C08A072F
:1036C0003E9523ACA182EFF0BFA82D2683471400BE
:1036D000984017060000130646AA93962700BA964C
:1036E00090C293862700850793F7F70FA300D400B5
:1036F000B24022448A07BA9790C392444101828023
:103700009737002083C797EE17370020034727EE2F
:1037100063F1E70213870185184393861700173674
:103720000020A305D6EC93962700369708C33E8564
:1037300082809307F00FE5BF1C41638E0718417725
:103740007D8FB706002089476318D71803574500B7
:1037500063040718411126C21946AA849305F00F85
:10376000590506C622C4793105478D47630FE51414
:10377000173400201304C4E31C4481CB58589947E4
:1037800063150714185C631207141306C003814500
:10379000173500201305C5E11D311306C003A685AA
:1037A000173500201305C5E097100020E780409AE8
:1037B0009737002083D787E099E7930700101737E2
:1037C0000020231DF7DE9737002083C747DF91E7EE
:1037D0008547173700202304F7DE9737002083C77B
:1037E00017DE91E7ED4717370020A30AF7DC97377C
:1037F000002083C7E7DC91E79547173700202301B6
:10380000F7DC9737002083C7B7DB91E78547173789
:103810000020A307F7DA9737002083C7B7DA99E7C4
:103820008347040117370020A30EF7D897370020ED
:1038300083C727D991E7D147173700202303F7D84B
:103840009737002083C7A7D895E71737002003478D
:1038500067D793168701E1869307C00263C8060005
:103860009377170093B717009387D7021737002075
:10387000230FF7D49737002083C7B7D495E71737BE
:103880000020034727D493168701E1869307C002DF
:1038900063C806009377170093B717009387D70282
:1038A00017370020A30FF7D083C7D40191E78947CA
:1038B00017370020A30CF7D01C5491C78297973775
:1038C00000202398A7D2B53B8147B24022449244BE
:1038D0003E854101828089473E858280973700205E
:1038E000938707CD985739CF411122C426C206C607
:1038F000BE840297173700200357A7CF2A8451C3ED
:10390000BA876373A700AA87C207C183BA866373A5
:10391000E400A286C206C182958F51476353F70621
:10392000DC5491C382978547173700202304F7D0D2
:10393000B52D97370020239E87CAB2402244924477
:10394000410182809737002083C7C7CE95E797371C
:1039500000209387A7CD83C79700850793F7F70FBC
:1039600017370020A308F7CCA18B95C785471737D9
:1039700000202311F7CC49AD97370020A38C07CA4C
:10398000DDBF9737002083C7E7CAC5DB2244B240BA
:1039900092444101CDB7828097370020938747C179
:1039A000D857011122CC06CE3E8401C72AC6029701
:1039B000324509CD23AAA184171500201305E59FE0
:1039C0008939F240624401450561828083074401E0
:1039D00063DD07009737002023A607C29717002052
:1039E0009387479823AAF184C1BF97170020938734
:1039F000479BCDBF011122CC17340020130444BBD8
:103A0000084406CE26CA4AC801E90545F240624488
:103A1000D2444249056182805C58E5DB185C75D769
:103A20007000854582971844B247E300F7FE93057E
:103A3000E00417350020035565B897100020E78093
:103A400020F6173700202321A7BC61D117360020AC
:103A50000356C6B69305F00FEFF07F9681441739F1
:103A600000201309A9B89737002083C747B503265C
:103A7000C90163C1F402328597100020E780E0FBA2
:103A800001459737002023A107B89737002023AFBF
:103A900007B6ADBF9735002083D545B2B3879502F1
:103AA0000844185C898185043E9508C2029765BF69
:103AB0009737002083C7B7B363800712411126C22E
:103AC00006C6AA8422C44AC07D55CDC897370020B7
:103AD000938747BBB8475DC317390020130949AD29
:103AE000030549019735002083C555AE85057D54F2
:103AF0000548B708C0A8130E000C8346770083273B
:103B00000708639906050353070783560703637D78
:103B1000D3060346D700631906070326070F2DE6D1
:103B20000326470935E20346F700631FC605705FA9
:103B3000B386664079163306D60283264708B35605
:103B4000D602B297AE96C206C182231BD706635037
:103B50000504958F63F387003E84184359FF9387CC
:103B600041859C4382976368A402B307A4409CC02C
:103B70009C4035476361F70423A00400B24022440F
:103B8000924402494101828083566707C9B7E3F234
:103B9000D7FCC6977DBFB307854063DB070083076B
:103BA0004901E3C407FCB707C0A8A297898FC1B732
:103BB00023A0040075BFCD179CC08307490163D5BE
:103BC0000700130534FF5DBFB147E3EC87FE3705FF
:103BD000C0A84D1522955DB77D5582809386C1851D
:103BE00090429737002083C7C79D139787000C42E8
:103BF00093F7F703A2074D8FB78500014D8F18C2C9
:103C00001842F1759385F50F6D8FD98F1CC2371748
:103C10000040930770052300F704930780FA230000
:103C2000F704010001001736002003468699D147AA
:103C300063FBC7048357270293E707012311F702A9
:103C40009C424567130787E7D8D7984FA166558FE1
:103C500098CF984FE1769386F607758F8D66938699
:103C60000650558F98CF13072015D8DB97070020F3
:103C70009387677BB20737070014B183D98F37E783
:103C800000E07CD7828083572702C207C183BD9B97
:103C9000C207C18365B71737002013072799938799
:103CA00001869C43544B184F096694CBD4CB98CFD4
:103CB000D8CF9447D18E94C7D847518FD8C794474F
:103CC0000566D18E94C7D847518FD8C798431367DC
:103CD000270098C398431367070298C3828093878D
:103CE00081869C4399CBD44390479842518F98C288
:103CF000D447DC4B9842D98F9CC217130020670031
:103D0000038E938781869C4399CB944BD04B9842EA
:103D1000518F98C294439C479842D98F9CC29387F5
:103D2000C1869C43094798C3171300206700238B63
:103D30009737002083C737908DE717370020034758
:103D4000578F9307B7FF93F7F70F894663EBF6009A
:103D5000973700202381E78E854717370020A30C73
:103D6000F78C82801387C1861C4394438D8A85C259
:103D7000B44BE19AB4CB944393E6860094C39C433E
:103D80008D83858B89C701000100010001001C4360
:103D900023A80704938781869C4399CBD4439047FB
:103DA0009842518F98C2944BDC4B9842D98F9CC259
:103DB00097370020A38F078682809386C1869C4216
:103DC00098430D8B05C3B84B619BB8CB98431367E1
:103DD000870098C39C438D83858B89C701000100B0
:103DE000010001009387C1859C4337080010D85714
:103DF000719B13672700D8D798433367070198C38F
:103E0000984F370800F97D1833770701370800020B
:103E10003367070198CF984F137737F813678701F7
:103E200098CF13874187032807000327C802759B93
:103E30002326E8021377F6079043137606F8598E87
:103E400090C388C7CCC3972700202381077E97277C
:103E50000020A38F077C984297270020238A077CA5
:103E6000FD475CC3938781869C4399CB904BCC4B99
:103E70001442CD8E14C290439C471442D58F1CC26D
:103E800085679387870B9726002023A7F67A8547B7
:103E90001CC3930790053CCB8280411197270020DB
:103EA000A38B077822C406C626C217240020034429
:103EB000847895476318F406972700209387877CBA
:103EC000985F3E8483467700A9CA03465700B755DA
:103ED000550037C5898E93855555130565EDF13D20
:103EE0009726002083C6F6749387A6FF93F7F70FF3
:103EF0000547636AF70097270020238ED77297271C
:103F00000020A38AE772954717270020A303F772C2
:103F10001C5C130710FA2383E700B240224492444A
:103F2000410182809947631DF40297240020938405
:103F30006475BC4003C777006DD303C65700B755FF
:103F4000550037C5898E93855555130565EDB535F3
:103F500097270020A38F876CBC40130710FB65BF19
:103F60009D47E31CF4FA9727002083C7E76D858BF4
:103F7000172600200346766F9726002083C6E66E3C
:103F80009DC3972700209387276EC84309CD83459B
:103F900015000905EF00901449D185471727002027
:103FA000A30BF7689DBF81450145EDB7972700201A
:103FB0009387C7679C4FA1CB411106C622C4E13944
:103FC0001384C1860D22EF10403009391C401307BD
:103FD000D005B8CBEF10E062EF208031EF10E04564
:103FE000EF10604D8547172700202305F7641C401C
:103FF00023A80704353BB240224497270020A38A18
:104000000762410182808280411122C4172400206E
:104010001304C4611C4C06C626C285CB9384C1869A
:104020009C401307D005B8CBEF10E0489C4023A874
:10403000070483478400850717270020230CF75EB9
:10404000C53997270020A386075EB24022449244D8
:104050004101828023A40186B7C7004023A0F186D6
:104060001387073023ACE1841387072023A6E1865A
:104070009387071037D7004023AAE18623AEF18447
:104080000547411197270020A385E75A22C417242A
:1040900000201304E4511C4006C69726002023A1EB
:1040A000F65A938707119726002023ADF6589727D5
:1040B00000202381E758DD3D37E700E0B707100017
:1040C0002320F710B70620002320D7100307440150
:1040D000635707001387C1861843FD177CD3B2408E
:1040E0002244410182809387C1869C439306000548
:1040F0002947D4CBD8CF9305C008CCD31306C0032F
:10410000D0D7CCDBD0DFF4C3F8C71307600FB8CF2C
:10411000316713073730D8C7970700209387A76503
:10412000370700F07D8FB7E600E0B207F8C2B18331
:1041300037070015D98FBCD682809387C1859C43F1
:10414000B70600F9FD16984F758FB7060004558F16
:1041500098CF984F137737F81367C70198CF138715
:1041600041871443F5CD37B724001307F7E963619E
:10417000A7089843137707F81367570298C30547B2
:104180006394E500130585C1D856370810FE7D18E5
:1041900013672700D8D64167130707A03356E502F7
:1041A0003377E5021305A00F7D8A93154601F0428F
:1041B000337606014D8EF0C2F042B705FCFF6D8EDE
:1041C0002A073357A7023A073983518FF8C21727B6
:1041D000002003476747098B19CB98431377F707EC
:1041E000936607049843137707F8558F98C3828026
:1041F000370725001306F7486363A6023767DBFF1E
:10420000130707932A971306007D3357C7027D17BC
:1042100090431377F707137606F8518F85B7130786
:1042200007496318E5009843137707F81367670297
:10423000B1B737D725001307F777636DA700376746
:10424000DBFF130707932A971306007D3357C70236
:1042500079177DBF9843137707F81367770239BF43
:10426000D856759BD8D61377F5078843137505F88C
:10427000498F98C3A9BF938741859C43011122CCE4
:104280004EC606CE26CA4AC852C456C2829797273F
:1042900000209387673D804781496308A406BE8458
:1042A000972700209387C730038747013E896358CB
:1042B0000706018D135455009727002083C7673ADE
:1042C0009379F5016360F404370AC0A8B70A405730
:1042D00097000020E780E0619C449726002083C679
:1042E0004638139756003E9783074901158C63C5DE
:1042F00007006363470156979727002023AAE736F4
:10430000E378D4FC1604B3693401F24062444E856C
:10431000D2444249B249224A924A05618280E37AF4
:1043200085F8B707C0A833848740229561B7938783
:1043300041859C43411122C406C626C28297972715
:1043400000209387673280476309A406BE849727BD
:1043500000209387E7258387470163D80704018DF1
:10436000135455009727002083C7A72F6367F404D1
:1043700097000020E780E05798449727002083C7E4
:10438000472E9396570036971D8C9726002023A121
:10439000E62EE37FF4FC2244B2409244172500202D
:1043A0000345952A8145410149BBE37A85FAB70760
:1043B000C0A833848740229565B7B2402244924416
:1043C00041018280411106C6972700202389072AD0
:1043D000EFF05F9901458145EFF04FA5B2400145EF
:1043E00041018280011126CA972400209384C425AC
:1043F00083C7040022CC06CE4AC8858B1724002030
:104400001304C4226385070E83472400858BE1C70C
:1044100097270020238D0720EFF07F8C65379C487D
:104420000146814505458297834734002689858B5F
:10443000C1C7084C97270020A38B071E8145130690
:10444000F100972700202385071E97000020E780B2
:10445000E029AA850DE11C4C9306F00F03C7070065
:10446000630BD7009727002083C717206385D700E9
:104470006303F70089458307090063C707001C4CE5
:104480000347F1002380E70083270901104C094509
:1044900082979727002083C7671E898B81CB85452C
:1044A000172500200345C51DEFE0BFF6F24062442A
:1044B000D2444249056182809387C1869C43BC53A4
:1044C000F5F797270020238507169C48014681456C
:1044D00049458297E1BFFD35EFF04FC09727002097
:1044E000238807149C48014681454545DDB783472D
:1044F0003400858B99CFF93597270020A3890712BF
:1045000097270020238607129C48014681450545D0
:10451000C9B74D3DE1B71C4963820712411122C45E
:1045200006C6834705002A8493F7070489C75C41C0
:1045300009456381071013060002814517250020F5
:1045400013058510EFE0BFE7A285130600021725CB
:1045500000201305650F97000020E78060BF172437
:1045600000201304640E5C4891E7FD5717270020D4
:104570002326F70E9727002083C7970E99E7930706
:10458000800217270020A30DF70C9727002083C770
:10459000470D91E7A147172700202304F70C972721
:1045A000002083C7170C91E7C54717270020A30AEF
:1045B000F70A9727002083C7E70A91E7ED571727E7
:1045C00000202301F70A9727002083C7B70991E746
:1045D000ED5717270020A307F70897270020938798
:1045E000A708C84309C597000020E7800045972722
:1045F000002023AD070683470400858B85C317255C
:104600000020034535069305900409059700002016
:10461000E78000399727002023AAA70483471400C6
:10462000014517270020A30CF7041C44172700207E
:104630002322F704B2402244410182800545828052
:10464000797126D297240020938404009C4406D6D6
:1046500022D44AD04ECE52CC56CA5AC85EC6638DBA
:104660000726138AC18683270A0098430D8B09C742
:1046700098431367870098C3172900201309C9FEC0
:1046800083474901B689B28A898B2E842A8B9D4B38
:1046900089EB83C7040093F7070485C78945C840A1
:1046A00035A0EFF05FBDE3FEABFE9727002083C788
:1046B00047FB9607D117E3E6A7FE83474901898B9D
:1046C000E9DB814517250020034515F8EFF0FFA62B
:1046D00083260A009307A005172700200347C7F683
:1046E000BCCA937707046380071CD040B797DBFFF1
:1046F000938707813E96E1679387076A63F5C71A38
:104700009307000DBCD29387C1859C439044058BD1
:104710001367E70190C7D044D0C3D8C203476901EB
:104720001367270097260020238BE6F41727002025
:10473000A30C37F317270020230857F3D857B706E1
:1047400000F0FD16719BD8D79843972900209389D4
:10475000E9ED758F98C303A5490163090B14230084
:104760005501A30085002286DA85090597000020FF
:10477000E780009E938701869C4303A749018145FA
:1047800017050000130545C698CB97270020238006
:1047900007EA97270020A38C07E8972700202389A2
:1047A00007E8EFE0BFE8EFF0AFD88D47172700200C
:1047B000A301F7E89727002083C7C7EA9D07920760
:1047C00017270020232AF7E683270A00B8537DFF26
:1047D000216713073730D8C7131744001307C71CC6
:1047E000B8D3130700F8972600202383E6E4316747
:1047F00013073730D8C783474901898B95CF9387F3
:1048000041859C43829717270020130767DA030727
:10481000470183278900635E07081D8D03C70400D5
:104820000D8183A74901418B49CF3707800062057D
:104830001307F72F598D88C3EFF0AFCC93874187CB
:10484000984301455C578583858BB9C3DC40C165BE
:10485000938505A0938787C1B3D6B702370810FEAA
:104860007D18B3F7B702FD8A139646017443B3F679
:104870000601D18E74C39306A00F3706FCFFAA076A
:10488000B3D7D7027443F18EBA07B983D58F7CC3EF
:10489000B250225492540259F249624AD24A424BCF
:1048A000B24B456182809307000AA9BD23205501C0
:1048B000D1B5E374F5F63707C0A8B307F7403E95C6
:1048C000B1BF09041374F40FA38087003E94230042
:1048D0000400A300A4008DB705455DBF011126CAE1
:1048E0009384C1869C404EC652C4984356C25AC057
:1048F00006CE22CC4AC80D8B2A8AAE89328BB68A64
:1049000005C3B84B619BB8CB98431367870098C326
:104910009C438D83858B89C7010001000100010044
:1049200017240020130444D483474401172900208E
:10493000130989D1918B99E78347090093F70704FD
:10494000639507168145172500200345F5CFEFF045
:10495000CFFE9387C1859C4303278900B7060010CB
:1049600098C70327C900D8C3D857719B136727007E
:10497000D8D79843558F98C3834709009840858BB3
:1049800093E7E7015CC397270020A38067CF9727B1
:104990000020238C57CD5C43858BADC75C4085E3FD
:1049A00017250020034515CC9305900409059700B1
:1049B0000020E780E0FE9727002023A9A7CA5C40DB
:1049C0000545F1CB17270020034727CA2380E700BE
:1049D0005C4063000A0E638E090CA38037014840D7
:1049E0004E86D285090597F0FF1FE7806076938792
:1049F00001869C435840D8CB93070004172700201A
:104A00002306F7C2EFF0CFB28347640193E7470074
:104A1000172700202305F7C697270020A38807C083
:104A200097270020A38607C097270020238207C06E
:104A30009D4717270020A30EF7BE972700209387D6
:104A400027B79C5791CB13060064C145172500205A
:104A5000034505C3EFE05FAE938781869C4399CB06
:104A6000D44390479842518F98C2D447DC4B984228
:104A7000D98F9CC29727002083C7C7BE9D07920786
:104A800017270020232AF7BA9C400547014598C301
:104A900013079005B8CBF2406244D2444249B24970
:104AA000224A924A024B05618280854503254900CE
:104AB00079BDA380070025BF397126DA972400202D
:104AC000938484B883C7040022DC06DE4AD84ED61D
:104AD000858B17240020130464B56389073083474E
:104AE000040097290020938929B8858B6382072CBD
:104AF000938741879843032984015C578583858B7D
:104B0000A1C3DC40C165938505A0B3D6B7023705C4
:104B100010FE7D15B3F7B702FD8A13964601744364
:104B2000E98ED18E74C39306A00F3706FCFFAA0747
:104B3000B3D7D7027443F18EBA07B983D58F7CC33C
:104B400081451306F1014A8597270020238007AE8F
:104B500097000020E78080B9AA850DE19727002003
:104B600083C7B7B09306F00F638AD700184C03478A
:104B700007006305D7006303F700894583870400B6
:104B800063C10714639105148347F1012300F90001
:104B900083C74901918B95C783471900CA9703C7FB
:104BA000070093070008631EF7005C481307F00F27
:104BB00098C383C7040093E7070117270020230544
:104BC000F7A883A749001387C186184383C7170036
:104BD000A166938636309387070A54C792073CD361
:104BE000930700F8972600202384F6A4B1679387E3
:104BF00037305CC71305A00597000020E78020AA86
:104C000097000020E78040A6EFF0CF959726002080
:104C100083C6C6A693F74600638E071417270020A5
:104C200013070799030647011C486350060EF11746
:104C3000172700202324F7A01C4803A78900635EE0
:104C4000060C3387E7408347190093958601E18579
:104C5000CA9783C717008E0763D0050E63F5E70C6C
:104C60001D8F9306000263EBE60018486350060CA4
:104C7000B307F74017270020232CF79E89451725F7
:104C800000200345E59FEFE0CFF883C70400C18B08
:104C9000E9CF03A54900172600200346169D972655
:104CA000002083C6869C5DCD834515000905EFF085
:104CB000FFC283C70400BD9B172700202306F79877
:104CC0001DA8E38705EC2EC6EFF0CF89104C9C4859
:104CD000B2450D45829703A54900172600200346DB
:104CE000D6989726002083C6469809CD834515009F
:104CF0000905EFF0BFBEF2506254D2544259B25986
:104D00002161828081450145EDB70D47E361F7F2EE
:104D10003707C0A87117BA9721BFE3F4E7F2B705C8
:104D2000C0A8AE9739BF3387E74025BFE372F7F4D9
:104D3000B706C0A836972DBF1848635F0600B307B3
:104D4000F74093E606F8172700202323F7929727CA
:104D500000202385D7921DB7E373F7FE3706C0A85E
:104D60003297F1BF8145014599B783471900F9177B
:104D7000A300F900EFF00FE59C48104C81450D456C
:104D8000829783471400858B99CB97270020A38FA8
:104D900007889C480146814511458297A9BF9727FE
:104DA0000020238707889C48014681455145F5B777
:104DB00003A54900172600200346368B97260020BE
:104DC00083C6A68A0DC1834515000905EFF01FB102
:104DD000971700209387C77D9C5B894589DF130562
:104DE0001008829709BF81450145CDB7834714005C
:104DF000858BA9CF97270020A38A0782EFF08FDC4D
:104E0000084C9306F00F014903470500630BD700D8
:104E10009727002083C777856385D7006303F70052
:104E200009498387040063D0070201468145970042
:104E30000020E780A08B3365A9009375F50F9C488F
:104E4000104C0D4599BF2A868145D5B7972600207D
:104E500083C6A68117260020034636818145014579
:104E6000EFF0DFA797170020938787749C5BE3849C
:104E700007E88545ADB7972700202382078097175D
:104E800000209387677EC843411106C609C5970075
:104E90000020E78080BA9717002023A9077C971786
:104EA000002083C7577981CF171700200347A778C1
:104EB0009D476316F70097170020A38E0776971675
:104EC000002083C616779387B6FF93F7F70F054741
:104ED000636AF70097170020238FD7749717002075
:104EE000A38BE774EFE01FE8C145171500200345C9
:104EF0002579EFE04FED01458145EFE02FF3B2401A
:104F0000014541018280411106C622C4AD37971781
:104F100000209387677503C77701DC47A145171504
:104F200000200345E57597160020A38FE67017173C
:104F30000020232FF770EFE00FE9914517150020AF
:104F400003450574EFE02FE89717002083C7077328
:104F500013F72700171400201304046F19CF1C48FF
:104F600001468145130520028297B24022449717DB
:104F700000202385077041018280918BFDD71C485A
:104F80000146814513054002C5B7797126D29714B1
:104F900000209384646D83C7440106D622D44AD08E
:104FA0004ECE52CC56CA5AC85EC6898BD1CF971AFC
:104FB000002083CA6A6993E71A0121698569316A09
:104FC000171700202302F7680144171B0020130B5A
:104FD000EB65938BC18613093930938929F9130A3C
:104FE0003A309716002083C636681716002003460D
:104FF000A66781450145EFF0AFE483472B00858B21
:10500000EDD39717002023840762EFE05FCD83473D
:105010003B00858BA9C7EFF0EFBA97170020A38854
:10502000076083C744018545171500200345456582
:1050300093E707F8171700202302F764EFE06FBD2E
:105040009717002023825761B2502254925402597C
:10505000F249624AD24A424BB24B45618280EFF03C
:105060006FB605041374F40FA1476314F400613D97
:10507000C1BF83A70B00130700F823A6270123A0B5
:105080003707971600202385E65A23A64701B85311
:105090007DFF81BF411122C406C693F715002E84FF
:1050A000B9C39717002083C7675D13F7270015C79B
:1050B000E207E187171500200345855C130600050C
:1050C00063DA070017160020034696599307000A73
:1050D0003306F6029145EFE02FC613451400B240A7
:1050E00022444101828093F72500B1C39717002025
:1050F00083C7C75813F7470005CBE207E1871715A9
:1051000000200345E5571306000A63DC0700171665
:1051100000200346F6549307000A3306F6021306EE
:105120008602A145EFE04FC1134524004DBF93F720
:10513000450089C7993D1345440055B793F785004D
:1051400099CB9717002083C76753918B91C3653B19
:105150001345840069B793F705010145C9D3EFE012
:10516000EFF7171700200347D74C9D47631BF70045
:1051700013060064C1451715002003456550EFE094
:10518000AFBB13450401A1BF171700200347074F0A
:1051900021E7171700200347274B1377070405C3A0
:1051A000171700202324A74A171700200347774822
:1051B0008D4789456303F70085456FE01FF8137736
:1051C000F50F97160020A381E64897160020A388C4
:1051D000E64A81453A85D5B78280411106C622C488
:1051E000EFE05FE71714002013040448714681457F
:1051F0002285EFE0CF9CFD57170500001305C5E998
:105200001CC0EFE0EFCF230CA4009545170500006C
:105210001305C58AEFE08FC1B24022440145410128
:1052200082809387418794430566D846518FD8C6BC
:10523000514701007D1775FF9043FD76FD165846D6
:10524000758F58C6514701007D1775FF9443056659
:10525000D846518FD8C6514701007D1775FF94433A
:10526000D84613671700D8C6514701007D1775FF50
:105270009443D846799BD8C6514701007D1775FFE6
:105280009443D84613671700D8C6514701007D17CD
:1052900075FF9443D84613670710D8C651470100DD
:1052A0007D1775FF9443D8461377F7EFD8C651475B
:1052B00001007D1775FF98435C4793E707105CC7B3
:1052C000D1470100FD17F5FF8280411106C6913FCD
:1052D000938741879C43130700483703009098D772
:1052E000B8477D13370E0020337767003367C70157
:1052F000B8C7B847B70600F9FD16758F3706000422
:10530000518FB8C7B8473706F9FF7D16419B136721
:105310009700B8C7B847B7080080B70E0002718F72
:10532000B8C7B847370600FF7D1633671701B8C7FF
:10533000F84745757D1E619B13673700F8C7F8472E
:105340001377F7F813670703F8C7EC4793F5F58F62
:1053500093E50530ECC7F847718FF8C7F847116639
:105360003367D701F8C703A807051307F5FF7D7555
:105370003378E8003368C80023A8070503A8470569
:105380007D15137808FF1368480023AA0705F04B22
:1053900013660608F0CBF04B698EF0CBC85F798DB1
:1053A0002167598DC8DFCC5F37070040F58DB3E525
:1053B000D501CCDFD05FB70570003376C601598EBA
:1053C000D0DFD05709674D8ED0D7D057F18ED4D7C4
:1053D000D45775767D16F18ED98ED4D7D45737062B
:1053E000FDFF7D1637070200F18ED98ED4D7945B6E
:1053F000C19A94DB945B93F6F6F094DB945B93F69E
:10540000F68F94DB985BB70600504D8F98DB985B66
:1054100033776700558F98DB985FB70608FFFD1656
:10542000758FB7061800558F98DF985FB36817011E
:1054300023AC1703B24041018280138741871C438C
:1054400041767D16B44BF18EB4CB944737062000DD
:10545000D18E94C7D44793E60601D4C7D447BD9AEA
:10546000D4C7010001000100010014430566DC46B9
:1054700093E70701DCC6DC42D18FDCC283A7C609F3
:10548000A183858BE5DF01000100010001001C43C1
:10549000416603A7C709B44BD18EB4CB9376F7010D
:1054A000B84B019B558FB8CB9847B706E0FFFD1668
:1054B000758F98C7828013884187417703C601871B
:1054C000832708007D1763180610B44FC16541118A
:1054D000F98EB4CF9447C16E3D4FCD8E94C78D4F9A
:1054E0008147414E83260800CC4693F5F5EFCCC6A4
:1054F000CC42B3E5D501CCC2CC4693E50510CCC671
:1055000083A5C608A1818589E5DD010001000100B0
:1055100001008326080003A5C608CC423D89F98D09
:10552000CCC26305E50105061376F60F814513F33A
:10553000F50F636AF3006311F30493080101C69544
:105540002388A5FE15A8AE888505B302B10083C2E5
:10555000F2FFE37E55FCBE8593020101AE9283C348
:10556000F2FEFD1593F5F50F238872FEE316B3FEE8
:105570000C08AE982388A8FE6308F601850793F708
:10558000F70FE391C7F731C28347010021476371E9
:10559000F702F5172300F10083470100BD8B139735
:1055A0007700BC4E93F7F787D98FBCCE410182803C
:1055B00011476374F700F917F1BF05476374F700EB
:1055C000FD17C9BFF1FB8D47F1B7BC4E93F7F787C5
:1055D00093E70728D9BFB44F4166F98EB4CF9447FB
:1055E000D18E94C7D44793F6F6EFD4C7D443758FC2
:1055F000D8C3D44793E60610D4C7D843518FD8C335
:105600008280397122DC138441871C4006DE26DA51
:105610004AD84ED652D456D25AD05ECE62CC66CA42
:105620006AC86EC6D843FD76FD161377F7EFD8C368
:105630009857758F98D7D857B70602003D9BD8D793
:105640009847558F98C7D84313670701D8C303C736
:10565000818783C6B187558F71E3D8438174938462
:10566000F40F799BD8C3985FB166658F558F98DF2B
:10567000D84313671700D8C397F0FF1FE780802F28
:105680001C4003A707091377F703238CE18603A7C0
:10569000470929831377F707A38DE186D843B966B5
:1056A00093860670799BD8C3985F658F558F98DF76
:1056B000D84313671700D8C397F0FF1FE780802BEC
:1056C0001C4003A707091377F703238DE18603A77F
:1056D000470929831377F707A38EE186D843B56678
:1056E00093860630799BD8C3985F658F558F98DF76
:1056F000D84313671700D8C397F0FF1FE7808027B0
:1057000018408327070993F7F703A38CF1868327B3
:105710004709A98393F7F707238EF1861C4003CC32
:10572000918783C6818703A7070AB386864113F64C
:10573000F600419B518F23A0E70A130760023387CD
:10574000E6021306700283A5070A7D7E130EFE0F84
:1057500093F5F5F01305400245737D1313043002F1
:105760003347C702B708F1FFFD1813082002930E54
:1057700010027D4FF94FF542F1436D4DD14B454B32
:10578000BD443949314AAD4AB5493D8B12074D8F69
:105790009305500223A0E70A3387B60283A5070AC0
:1057A000B3F5C5013347C7023D8B22074D8F23A0B8
:1057B000E70A3387A60283A5070A370500F17D159E
:1057C000B3F565003347C7023D8B32074D8F23A0E9
:1057D000E70A3387860283A5070A6144B3F51501FA
:1057E0003347C7023D8B42074D8F23A0E70A33871B
:1057F000060383A5070A370810FF7D18B3F50501D6
:105800003347C7023D8B52074D8F23A0E70A3387EA
:10581000D60383A5070AB70E0010FD1EE98D334796
:10582000C7023D8B62074D8F23A0E70A13975600EE
:105830003347C7029315C70103A7070A3377D70178
:105840004D8F23A0E70A3387E6035D4F3347C70236
:105850009375F70003A7470A419B4D8F23A2E70AE0
:105860003387F60383A5470AD94F93F5F5F03347FD
:10587000C7023D8B12074D8F23A2E70A33875602DA
:1058800083A5470AD542B3F5C5013347C7023D8B0F
:1058900022074D8F23A2E70A3387760283A5470AA2
:1058A000CD43B3F565003347C7023D8B32074D8FBB
:1058B00023A2E70A3387A60383A5470A494DB3F518
:1058C00015013347C7023D8B42074D8F23A2E70ADC
:1058D00069473387E60283A5470AB3F505013347D5
:1058E000C7023D8B52074D8FE54523A2E70A338758
:1058F000B60283A5470AE98D3347C7023D8B62078D
:105900004D8F23A2E70A338786020D443347C7022F
:105910009315C70103A7470A3377D7014D8F23A2F9
:10592000E70A3387E603254F3347C7029375F7002D
:1059300003A7870A419B4D8F23A4E70A3387F60309
:1059400083A5870A9D4F93F5F5F03347C7023D8B3A
:1059500012074D8F23A4E70A3387560283A5870ACF
:105960009942B3F5C5013347C7023D8B22074D8FDE
:1059700023A4E70A3387760383A5870AB3F5650076
:105980003347C7023D8B32074D8F23A4E70A338785
:10599000760283A5870A9543B3F515013347C702FD
:1059A0003D8B42074D8F23A4E70A3387A60383A5C7
:1059B000870A294DB3F505013347C7023D8B5207CE
:1059C0004D8F23A4E70A3387660383A5870AE98DF1
:1059D0003347C7023D8B62074D8F93954600B3C591
:1059E000C50223A4E70A03A7870A3377D701F20584
:1059F0004D8FB385960223A4E70A03A7C70A419BEC
:105A0000B3C5C502BD894D8F23A6E70A3387260398
:105A100083A5C70A93F5F5F03347C7023D8B1207FC
:105A20004D8FB3C5860223A6E70A03A7C70A3377BB
:105A3000C701BD89A2054D8F23A6E70A3387460318
:105A400083A5C70AB3F565003347C7023D8B32070C
:105A50004D8F23A6E70A3387560383A5C70AB3F5FC
:105A600015013347C7023D8B42074D8F23A6E70A36
:105A70003387A60383A5C70AB3F505013347C702D9
:105A80003D8B52074D8F23A6E70A3387E60383A594
:105A9000C70AE98D3347C7023D8B62074D8F939547
:105AA0003600B3C5C50223A6E70A03A7C70A3377A2
:105AB000D701F2054D8FB385F60323A6E70A03A7A6
:105AC000070B419BB3C5C502BD894D8F23A8E70ACB
:105AD0003387560283A5070B93F5F5F03347C702CA
