:040000006F10002E4F
:1000040000000000000000006F0080086F00C04A7C
:1000140000000000000000000000000000000000DC
:1000240000000000000000000000000000000000CC
:100034006F004006000000006F00E00500000000B3
:100044006F0080056F0060056F0040056F0020059C
:100054006F0000056F00E0046F00C00400000000A2
:100064006F0060046F0040046F0020046F00000400
:100074006F00404B6F00C003000000006F0060037E
:100084006F0040036F0020036F0000036F00E00265
:1000940001A001A001A001A001A001A001A001A054
:1000A40001A001A001A001A001A001A001A001A044
:1000B40001A001A001A001A001A001A0B717004068
:1000C400130770052380E704130780FA2380E704ED
:1000D4002396A70223800704371700408347270588
:1000E400898BEDDF835707053717004083472705C2
:1000F400898BEDFF3717004083472705898BEDDF98
:100104000355070582804111814601468145114509
:1001140006C6F521B727004011472383E780B7F7C8
:1001240000E003A707D16D9B23A8E7D003A707D15D
:100134005D9B23A8E7D07300501001000100B2407A
:10014400410182804111814601468145114506C61F
:100154007D21B727004011472383E780B71700406C
:1001640003C7E70283C6E70483D7870311661377BF
:10017400F70F93E6360063E5C700719B136717001A
:10018400B7170040930570052380B704130680FA5F
:100194002380C704238207022387E7022387D70427
:1001A40003C7B70413670702A385E7042380070482
:1001B40037F700E0832607D193E646002328D7D0FB
:1001C400832607D1DD9A2328D7D07300501001006D
:1001D40001002380B7042380C70403C7B70413773F
:1001E400F70DA385E70423800704B2404101828010
:1001F400411122C4814681452A840146114506C61F
:10020400FD2EB727004011472383E780B71700402E
:1002140003C7E70283C5E70483D78703916613778F
:10022400F70F93E5350063E5D700719B136717005B
:10023400B7170040130670052380C704930680FA9D
:100244002380D704238207022387E7022387B70486
:100254002380070437F700E0832507D193E54500A1
:100264002328B7D02380C7042380D70483C5F7008D
:1002740093E50504A387B70083C5B70493E5050296
:10028400A385B704E57591054D8C42044180239004
:100294008702832507D1DD992328B7D07300501036
:1002A400010001002380C7042380D70403C7B704D7
:1002B400130560041377F70DA385E704238007046F
:1002C4002244B240410125A4011126CA81460146B7
:1002D400AA848145114506CE22CC4AC84EC60526BD
:1002E400B727004011472383E780B716004083C730
:1002F400E60203C7E60483D68603116693F7F70F75
:100304001367370063E5C600F19B93E717003714C2
:1003140000409309700523003405130980FA230073
:100324002405230204022307F4022307E404230020
:10033400040413055002B920B7F700E003A707D15E
:100344001367470023A8E7D02300340523002405BE
:100354000347F40013670704A307E4002567D98C57
:100364002310940203A707D15D9B23A8E7D0730051
:10037400501001000100F2406244D2444249B249A3
:1003840005618280B7170040930670052380D70467
:10039400130780FA2380E70403C6B7041376F60D27
:1003A400A385C70423800704137605022DC603C65C
:1003B400A700118A0DE22380D7042380E70403C732
:1003C400A700136747002385E7009307004B01004C
:1003D4000100FD17EDFFB717004093067005238059
:1003E400D704130780FA2380E7047D892394A700A8
:1003F4000100010001000100238007042380D704C9
:100404002380E7049306100537270040A303D78011
:10041400238007048280137605046DDE03C6A700DB
:10042400418A0DE22380D7042380E70403C7A70091
:10043400136707012385E7009307007D010001008E
:10044400FD17EDFFB7170040930670052380D7040E
:10045400130780FA7D892380E70413650504239438
:10046400A70001000100010001002380070423808C
:10047400D7042380E704930630053727004079B773
:100484004111814601468145114506C68D2AB7179B
:100494000040130770052380E704130780FA2380C4
:1004A400E70403C76704136717002383E704238063
:1004B4000704B240410182808146014681451145CD
:1004C4003D2AB7170040130770052380E70413077C
:1004D40080FA2380E7047D572396E70203C7670465
:1004E400136717002383E7042380070401A0BD4793
:1004F4003305F50201007D1575FD8280411122C48A
:1005040026C206C6AA84014463179400B24022445A
:1005140092444101828005041305803E4204C13F98
:100524004180DDB7B7170040130700032388E702B3
:10053400854723A8F18073002030411106C6A92104
:10054400FDBF2303048015472303E4800100230235
:10055400A480828083076480E3CE07FE23030480A3
:10056400828083076480E3CE07FE03454480828053
:1005740083076480E3CE07FE2302A48082804111B6
:1005840026C44AC24EC006C61377F50BAD47AA89E6
:100594002E8995446306F70019456537653F8D44F8
:1005A4004E854537FD59FD1463983401B240A24489
:1005B4001249824941018280135509011375F50FCF
:1005C400453F2209CDB7011126CC06CEB704080059
:1005D40051371545BD37713769372AC6A53F3245AE
:1005E4009377150089EB136515001375F50FF24029
:1005F400E24405618280FD14E9FC0145CDBF3971F7
:1006040026DC4ADA4ED852D656D45AD25ED006DE0A
:1006140062CE66CCB7E700E07D5783AA070022C606
:1006240003AA470023A0E71823A2E718B71700403E
:10063400130770052380E704130780FA2380E70477
:1006440083C74704930B75FFB684E20793FBFB0F44
:100654008546AA892E8B328937240040E1870157C9
:1006640063FA76016308D500894613070002631311
:10067400D5000157D98F93F7F70FB71C0040238299
:10068400FC0411472303E4801305F00F5D3D094C7E
:10069400D13563697C11B70707003E9B3787070094
:1006A4007955637EEB02B3079B00636AF702A9479F
:1006B4006399F90689E48144713D26850DA0DA85A4
:1006C4000945753D05090345F9FFFD14050B4D3535
:1006D40081C49377FB0FFDF7FD3569FD7D55B71791
:1006E4000040130770052380E704130780FA238072
:1006F400E70403C74704418B2382E704F250B7E7BA
:1007040000E023A0571123A24711E2543244525966
:10071400C259325AA25A125B825B724CE24C21617A
:100724008280A5476395F90685691309F00FB3061E
:100734009900B3742B01B6941349F9FFB37499006B
:10074400856B33796901416B9387F9FFB3F727010F
:1007540099E363FC340193D94900C147E3E637FFC9
:1007640099BF0569C1697D19D9B71305800D6388DF
:100774006901130500026384790113051008CA8511
:10078400FD3B913521DD4E99B3843441D9B7DA85E7
:100794002D45F533CA94E30099F20509D933A30F23
:1007A400A9FED5BF9387F9FF93F7F70F636CFC0895
:1007B40003C75C04B70708001377070219E3B78778
:1007C40007007955E37DFBF033079B00E3E9E7F08D
:1007D40089476390F9048980D549E38E04ECDA856E
:1007E4000945713B11090327C9FF91472320E48080
:1007F40003076480E34E07FE23033481FD17EDFBFA
:10080400FD14110B81C49377FB0FE9FF6D3B71F568
:10081400F1B58547E387F9F4DA852D458D3393895E
:10082400F4FFE38A04E8353B93F7390091EB832620
:1008340004800327090093074900E39FE6E63E8905
:10084400CE84F1BFB5476396F9001305900BD539F3
:100854009DB5B1471305B00AE38BF9FE9947639E32
:10086400F902DA852D45213B81448D4BA149D539C7
:1008740063967401832704802320F9008504E39898
:1008840034FF8327048013172B01635507002312B9
:10089400F90015B52322F90039BD9D476399F90282
:1008A40081451305B004E139BD4423200900232206
:1008B4000900FD597D3193F77400CA9703C70700F7
:1008C400FD14398D2380A700E39634FFEDB3A147CF
:1008D4006392F904CD398144630D0B008D47930471
:1008E400C0036308FB009304000563048B019304B5
:1008F40040041375C507E30095DC1945993199390E
:10090400054581312685AD3109459D316D39E314A5
:1009140005DAE9B391476399F900130560061531C7
:1009240015391305900925B7E38709D8F15469B33C
:1009340009CDB7170040130770052380E704130798
:1009440080FA2380E7042396A702828019C1814795
:1009540099E982803387F500834607003307F50061
:1009640085072300D700E397C7FEE5B719C1FD57F4
:1009740081E98280910503A7C5FF1105232EE5FEB9
:100984007D16E319F6FEF5B7797122D41724000019
:10099400130444301C4006D626D24AD04ECE91C70A
:1009A40082979727000023A7072E5C4089CB03D5A5
:1009B4004183BD3F5C40829703D56183953F1C40D2
:1009C400639907189727000083C7D72E858B95C78F
:1009D40097270000A380072E172700000347B72D91
:1009E400914763FCE700BD299727000083C7B72C14
:1009F400F9178A07A2979C4382979727000083C719
:100A04002730918B89C7970000E0E780E0981C4469
:100A140091C3829793870183984317260000034666
:100A240036253E8997240000938484249727000068
:100A340083C7072493961700BA9683D6060063806B
:100A440006109727000083C7A72263F2C70886070A
:100A54003E97835507002310070003D541832EC614
:100A6400239E0182F135938781849C4317250000DE
:100A74000345052013172500BA979C43B245829776
:100A8400AA8903D561836D359727000083C7471E64
:100A9400139717008327090003D5C1831345F5FF76
:100AA400BA9703D7070033753501598D2390A700F2
:100AB40083C70400850793F7F70F1727000023095E
:100AC400F71A172700000347B71A63E6E7009727CA
:100AD4000000238F07181C40ADEF938701849843CF
:100AE4003E8425CB9727000083C7371D91CB9727DA
:100AF400000083C7571C89E797F0FFDFE780804039
:100B04001C4082972A8431C59C48AA971727000065
:100B14002328F716938741849C4385CF03D54183CB
:100B2400013D228597F0FFDFE78000982254B25000
:100B340092540259F24903D561834561D5BB8507B7
:100B440093F7F70F972600002384F612E3E0C7EE2D
:100B5400CDBDB250225492540259F249456182806B
:100B64009167B7C600409387373023A6F6200F104D
:100B74000000972700009387A70F884F938741862B
:100B84009C43316713073730F053B7071000FD1744
:100B9400918F99833A0523A6E6205D8D82804111C9
:100BA400B7170040985F3AC6945F3247E39CE6FE6D
:100BB400324541018280411106C6D537972600008F
:100BC40083C68608858AB1C6930730333307F50296
:100BD400B337F5023983CA07D98F172700001307E3
:100BE4002709584B01456303F7023385E740636BDC
:100BF400F70037653D0889C637856F0813050590EA
:100C0400198D3E9517270000232EF706B2404101A7
:100C14008280E5473307F502B337F5022583DE0703
:100C240065BF5D7122DE138441853AD218403ED0FF
:100C34004ACA1C5F86C696C499839AC29EC026DCA3
:100C44002ADA2ED832D636D442CE46CC72C876C6EC
:100C54007AC47EC2858B13890185C1C31C5F972426
:100C640000009384E40493F7F7F91CDF972700004E
:100C740083C7070493F707048DC39387C1849C43F8
:100C840082979727000023ADA70283C7040093F738
:100C9400F70B17270000230DF700854717270000DF
:100CA400A30AF70083C7440093F7070481EF9387EF
:100CB40041869C43D844B8D3930700FC172700000F
:100CC400230AF7FE8387640063D90700832709009A
:100CD4009C43172700002300F7FE18401C5F858300
:100CE400858BC9CBF5571CDF010001000100010011
:100CF40001000100010001000100010001000100E8
:100D040001000100010001000100010001000100D7
:100D140001000100010001000100010001000100C7
:100D240001000100010001000100010001000100B7
:100D340001000100010001000100010001000100A7
:100D44000100010001000100010001000100010097
:100D54000100010001000100010001000100010087
:100D64000100010001000100938741869C431307A1
:100D74005004B8CB18401C5F9183858B89CFBD5735
:100D84001CDF938741869C4323A8070485471727C4
:100D940000002301F7F283270900D8430583058B5C
:100DA40019C7D843759BD8C3D843799BD8C3725409
:100DB400B640A64216438643E2545255C2553256B3
:100DC400A256125782577248E2485249424EB24ED6
:100DD400224F924F61617300203093874186944380
:100DE400172700001307C7ECBC5289CF834727009D
:100DF400858B89EB83473700858BFDD797270000C8
:100E0400238A07EA8280938701869C4399CB944B7B
:100E1400D04B9842518F98C294439C479842D98FA3
:100E24009CC2938741869C4337C700401306C00386
:100E3400A8CB9306200397250000938565E78327B5
:100E44008720C18393F7F7036369F600832787201C
:100E5400C18393F7F70363E6F60083C74500858BE8
:100E6400F9DF828093874186944317270000130794
:100E740027E4BC5289CB83470700858B91CB972706
:100E84000000238907E297270000A38507E28280F8
:100E940083471700858BF1DFDDB7938701869C4379
:100EA40099CB944BD04B9842518F98C294439C4712
:100EB4009842D98F9CC293874186944337C7004098
:100EC400C145A8CA654683278720C18393F7F703E2
:100ED40063FBF50083278720C18393F7F7036364DB
:100EE400F600BC52EDF38280138741851843AA872C
:100EF400185F1583058B25EF03451500150513773A
:100F0400C51F19C6B386E70083C626002300D60092
:100F140095C59726000083C606DA93F606040945AC
:100F2400A1CAB386E70083C63600054693F5F606E4
:100F34006390C504E206E18663CC06023385E700CC
:100F44008347150003470500A20793F70770D98F5D
:100F54001397070141839376074099C61367078067
:100F6400239EE18401458280239EF184E5BF0545EB
:100F74008280011136C8938641862ECC8C423AC6B3
:100F84003EC498452ACE32CA9317070142C2C18390
:100F94001378172036853E8697260000938646D11F
:100FA400630408041377072061CF03C7260013677F
:100FB400170017280000230EE8CE13070019B8D134
:100FC400130700F8972500002386E5CE1387418593
:100FD4000C4337080010D855719B13672700D8D5E8
:100FE40098413367070198C11377261005C3137618
:100FF400061045CA03C7060013671700172600002A
:101004002308E6CA17270000231807CA83C6460028
:1010140093C7F7FFC207E206E186C183184163D193
:1010240006029396170163D7060830538D4663E989
:10103400C600854617260000230ED6C63453FDFE8F
:1010440097260000938606BF8386460163DD06006B
:1010540093960701C18663D506067053894663E4F7
:10106400C6007453FDFE14477245E245F58F1CC754
:101074005246C2463247A2471248056173002030E7
:1010840003C716001367170097250000A382E5C263
:1010940017270000230007C217270000231E07C0DC
:1010A400A1B703C736001367170017260000A30271
:1010B400E6C089BF854617260000230DD6BE49B772
:1010C40054471396060163510602B7061000FD1635
:1010D40074D3972600009386A6B9944E85061726E6
:1010E40000002323D6BA41B7A166D58FADBF172719
:1010F40000001307A7BD8346B7019727000083C7E5
:1011040037C0B69793F7F70FFD4663EAF6044C4BE6
:1011140097260000A38CF6BA9727000083C717BB55
:1011240005473317F70097260000A38BF6BC6D8F95
:101134001DEF9726000083C6F6BCB3F6D70213054D
:101144000002814733D6F500058A13F8F70F09CE5C
:101154006399E60097270000A38A07B78280811766
:101164007DB705071377F70F8507E39DA7FC8280FA
:101174009387C1869843B75702009387279F832696
:101184000709139656006358060083260709139629
:10119400660063440600FD17FDF3828051C9AA87E7
:1011A4000145C9C98D07C207C183F19BC207C18329
:1011B40013074003636BF7021387018808431387FF
:1011C400818714436396A60217270000130787A696
:1011D400185B014525C34111C20706C60545DD8DCF
:1011E4000297B2400145410182801387C187F9B754
:1011F4000357650005EF035745006369F702B3061B
:10120400F74021466370D6021041938687001D8FF4
:10121400AA96611790C22392E6002393060014C194
:101224002312F5002313B50021058280084159BF1C
:1012340001458280828001CD9387018803A807003D
:10124400938781878C430147C28763E3B700828019
:101254009443636FF50663EDA60613868700E3687F
:10126400C5FE03D56700216605066317C50003C6DE
:10127400418805062382C1882393070063840703FA
:101284001386C1871042630FF6000356670019EAFC
:1012940083D7470014C383564700B697A107231288
:1012A400F700BA879843E304B7FA9386C187944258
:1012B400E30FD7F883566700D9FA83D6470003565D
:1012C40047001843A106B2962392D70098C38280A0
:0812D4003E87B6879DBF0000B4
:1012E000974100209381010317710020130181D1E0
:1012F00013054000972500209385C5501736002020
:101300001306C67D63FAC5008322050023A055009D
:1013100011059105E3EAC5FE175500001305855434
:10132000973500209385857B1386818063FAC500FD
:101330008322050023A0550011059105E3EAC5FEAF
:1013400013858180975500209385C5266377B50066
:10135000232005001105E36DB5FE9302800873A0FC
:101360000230972200209382E24993E212007390A8
:101370005230971200009382E2557390123473003A
:101380002030B717004083C88705194703C8970561
:10139000A38C0704238CE70403C7970593F8F80F81
:1013A0001378F80F13679702A38CE7040547238D82
:1013B000E704371700408347A7059305A705858BEA
:1013C000FDFB0565C14637170040054E1303F5FFC9
:1013D0002380C50103C60500058A6DFE0356C705B7
:1013E000FD16C2061346F6FF33766600C182B29739
:1013F000E5F283469705A107918393F6760F1305CF
:101400000580A30CD7041D8D230C17054205A30CE2
:10141000070541858280B717004003C777051A0585
:1014200092054D8D1377E70F13653500A38BE70405
:101430001375F50FA38CA7048280B717004003C76C
:1014400077051377E70FA38BE704130700F8A38D45
:10145000E7043D47238CE70413075003A38CE704FC
:1014600082800547B7170040238DE70437170040F7
:101470008347A705858BEDFF0355C70552055181AD
:101480008280B717004003C7E704930670052380E6
:10149000D7041377C70F0D89930680FA2380D704EA
:1014A000498F2387E704238007048280B717004011
:1014B00003D587005D714EDE4205418186C6A2C418
:1014C000A6C2CAC052DC56DA5AD85ED662D466D2F8
:1014D0006AD06ECE9377050C1307000881496386A6
:1014E000E71813070004639AE714B7240D8F7D896A
:1014F00093840480B3D4A4029167938707E8BE94D1
:10150000A167938707D0B3D4F402EF4050369757C2
:101510000000938727179043D443EF40006AEF40C1
:101520009077AA8B939C040103D9818093DC0C01F2
:1015300063150900056913090980B71700401307EF
:1015400070052380E704130780FA2380E704B71AA5
:1015500000400547939D0401096C2389E704514B22
:1015600001438145138D0A0413067005930680FA22
:10157000094893DD0D01130C0C71A9482300CD001F
:101580002300DD0023962A0323000D0083C72A05CC
:10159000898BEDDF83D70A0583C72A05898BEDFF89
:1015A00083C72A05898BEDDF83D70A052394218120
:1015B000C207C18333859741131A0501135A0A41A3
:1015C000630B0A143307BA02635E070C0503420378
:1015D000135303016368680C63D9050A3305B040EF
:1015E00093150501C185C204C18063D7450B096508
:1015F000130505713385A502B71700401307700561
:101600002380E704130780FA2380E7042396370337
:10161000238007043345950242054181B6402644A4
:1016200096440649F259625AD25A425BB25B225C36
:10163000925C025DF24D61618280B1E3B774890909
:101640007D8993840480B3C4A4029167938707E8DB
:10165000BE94A167938707D0B3C4F402EF40302152
:1016600097570000938787027DB5975700009387AF
:10167000E700856483AB07009384843865B5930BDA
:101680000000954445B53A89D5BDB387FC40139A0F
:101690000701135A0A4181BF096513050571330516
:1016A000AA028DBF3385B74163E4FC003385FD405A
:1016B000330585033344B50363C58800131504015E
:1016C000A9BF528532C636C4EF409050DE85EF4048
:1016D0001021EF40D0491313050113530341330781
:1016E000694042074183A24632460948A948631A25
:1016F000E90013071900634440011307F9FF42078B
:1017000041837D1B137BFB0FCA89D285E31D0BF63A
:101710002394E18065B7014511B7B717004003D5A1
:10172000870039715ECE4205418106DE22DC26DA71
:101730004AD84ED652D456D25AD062CC66CA6AC85B
:101740006EC69377050C13070008814B6388E71476
:1017500013070004639CE710B7240D8F7D899384E1
:101760000480B3D4A4029167938707E8BE94A1676D
:10177000938707D0B3D4F402EF40700F975700005F
:10178000938747F09043D443EF402043EF40B0505D
:10179000AA89939A040103D9A18093DA0A016315F7
:1017A0000900056913090980B71700401307700580
:1017B0002380E704130780FA2380E704139B0401C6
:1017C0000547096A2389E704D14D014D814C135B1C
:1017D0000B01130A0A714A8597200020E780400E0A
:1017E000330C5541420C135C0C4123952181630A53
:1017F0000C14B3079C0363D0070E050D420D135D57
:101800000D01894763E9A70D63DA0C0A330590419E
:10181000931C050193DC0C41C204C18063D78C0B7F
:101820000965130505713385AC02B717004013072E
:1018300070052380E704130780FA2380E7042396CA
:101840007703238007043345950242054181F25016
:101850006254D2544259B259225A925A025BF24B04
:10186000624CD24C424DB24D21618280B1E3B774DB
:1018700089097D8993840480B3C4A4029167938706
:1018800007E8BE94A167938707D0B3C4F402EF4082
:10189000007E97570000938767DFEDB597570000EC
:1018A0009387C7DD856483A9070093848438D5B501
:1018B000930900009544F1BD3E8931BF3385AA40AC
:1018C000131C0501135C0C4181BF096513050571EB
:1018D0003305AC028DBF63FEAA00330565413305B5
:1018E0004503A9473344650363C887001315040102
:1018F000B1BF3305AB40E5B76285EF40702DCE85B3
:10190000EF40E07DEF40B026131D0501135D0D4152
:10191000B307A941C207C183631AF90093071900ED
:10192000634480019307F9FFC207C1831387FDFF5A
:10193000937DF70FCA8BE28CE3900DF82395F1802D
:1019400075B7014529B741112A83014E930E407E98
:10195000130F0019930F400663EB6E0A93080019EA
:1019600013034006B3781503854E0D4FA14F337313
:1019700065020D891335150063E5BE0C1308F6FFEB
:10198000794672984208135808013307C70213D6E4
:101990001700BE0732976146B3F6C6021306807081
:1019A000B386C6023697A166F58F42075D8FB717DB
:1019B000004083C6F70293F60608A307D10003464A
:1019C000F10083C6F70293F60608E394C6FE834649
:1019D000F10093F6F60FF1DE930670052380D7042D
:1019E000930680FA2380D70423AA070383C617032C
:1019F00093E60608A388D702D8DB03C7170313674B
:101A00000704A388E70223800704410182807D1335
:101A10003368E3039308E016630E08003368F303AA
:101A20009308D016630808009378330093B8180021
:101A30009388D81633081E01131E0801135E0E0189
:101A400021BF6393E50305486386080001486303EB
:101A500003002A8871087298FD15131E0801C2053B
:101A6000135E0E01C18109BF13F8150063F4BF00B6
:101A70007908D5B713381800E5BF4111B7170040F2
:101A8000985F3AC6945F3247E39CE6FE32454101D7
:101A90008280914763EEB70217570000130787BF94
:101AA0008A05BA959C41BA978287B717004003A769
:101AB000470B1345F5FF698F23AAE70A03A7070B16
:101AC000698F23A8E70A03A7070A798D23A0A70A2D
:101AD0008280B717004083A6470B1347F5FFF98EA6
:101AE00023AAD70A83A6070B558D23A8A70A83A686
:101AF000070A758F23A0E70A8280B717004003A763
:101B0000470B498F23AAE70A03A7070B1345F5FFE5
:101B100045BFB717004083A6470B1347F5FF758FE6
:101B200023AAE70A03A7070A598D4DB7B717004044
:101B300003A7470B498FEDB7914763EEB7021757DD
:101B40000000130767B68A05BA959C41BA97828749
:101B5000B717004003A7470D1345F5FF698F23AA68
:101B6000E70C03A7070D698F23A8E70C03A7070C51
:101B7000798D23A0A70C8280B717004083A6470D5C
:101B80001347F5FFF98E23AAD70C83A6070D558DB1
:101B900023A8A70C83A6070C758F23A0E70C8280CF
:101BA000B717004003A7470D498F23AAE70C03A7E7
:101BB000070D1345F5FF45BFB717004083A6470D36
:101BC0001347F5FF758F23AAE70C03A7070C598D60
:101BD0004DB7B717004003A7470D498FEDB705E98B
:101BE00037170040930770052300F704930780FA26
:101BF0002300F70483570702C207C18393F7F79FB7
:101C0000C207C1832310F702230007048280011159
:101C1000B7F5070081463000B105194506CE97207B
:101C20000020E780001EA24713972701634A07029E
:101C3000B7170040130770052380E704130780FAE5
:101C40002380E70403D70702136707402390E702C6
:101C500003D70702136707202390E70223800704B6
:101C6000F2400561828037E700E01C435443A183C2
:101C7000E206D58F1CC1FD572320F7182322F71841
:101C8000828013178500B7E700E023A0E710618189
:101C900023A2A7108280B7F700E0C8439C47828048
:101CA000411106C6EFF09F80BD4763F4A700EFF037
:101CB000EFFFA534BD4763F3A7008534B24083D559
:101CC000A18017350020035565E541016F10201AEA
:101CD000411193962500AA852D4506C69720002020
:101CE000E7802012B240014541018280411126C2A5
:101CF0009394250022C44AC02A843289A686AA85E4
:101D00000146254506C697200020E780800FA6865D
:101D10004A86A285294597200020E780800EB240A0
:101D2000224492440249014541018280011122CCA2
:101D300006CE3714004026CA4AC84EC652C4834451
:101D40007405034AB4058349840503499405EFF0FB
:101D5000CFEE8347A40593F4F40F137AFA0F93E7B9
:101D60001700230DF40493F9F90F1379F90FB7173E
:101D7000004003C7A705058B6DFF03D5C705A38DDD
:101D80004705238C3705A38C2705A38B9704F240C6
:101D90006244D2444249B249224A056182804111DB
:101DA0009397050122C406C6C1872E8463DD070010
:101DB000EF00103A19C1EF00F0362165218DB240D5
:101DC00022444101828093F7150013C51500E5FBFD
:101DD0009397250163D00702EF10B023D13537F672
:101DE0000200130606E0896503C5C180EF00507B41
:101DF0000965E9B7939715010145E3D207FC13067E
:101E00000064916503C5C180EF00907911657DB7CD
:101E10001D714946975500009385458A1755000066
:101E20001305058B86CEEF00306111E101A037F775
:101E300000E0F9575CC7FD571CCB8566B7E700E0AB
:101E400023A0D7101306701010C3B8434146B0C387
:101E500023A0D718B8C3010001001306C0038145B1
:101E60004808EF00505C973700209387A7DC3ECAF4
:101E7000896793870780231CF100A167938707E098
:101E80003ECE970700009387E7E4BEC497070000A3
:101E9000938707E6BEC6B5472308F10297070000FF
:101EA0009387A7DF3EDA97070000938767E83EDE57
:101EB00097070000938707DFBEC0ED47A301F1023B
:101EC000B707142D9387A7103ED2B7F507008547B3
:101ED0002304F1028146970700009387070F7000E3
:101EE000E10519453EDC97200020E78080F1580885
:101EF0008147994670003E96034606008507050710
:101F0000A30AC700E398D7FED24791C703578101C0
:101F100085676373F70001A04808EF10400811C1FE
:101F200001A0F640256182804111170500001305CC
:101F300045E706C622C4EF1000031384C1802300C6
:101F4000A4002528212A034504002244B24037F684
:101F50000200130606E0896541016F007064B7173F
:101F60000040130770052380E704130780FA2380DD
:101F7000E704C8DB23A801808280411106C6B71799
:101F80000040130770052380E704130780FA2380BD
:101F9000E70403C7F7021377A70FA387E70203C776
:101FA000F70213672700A387E702DD391305407E98
:101FB000814701478146054685457132B24001455A
:101FC00041016F10C023011122CC2A84680006CE83
:101FD00026CA51395D346367A4003305A440F54730
:101FE00063EAA700324571390945F2406244D244A0
:101FF000056182802285A53732456131373700403F
:102000008347574093F70704A1CB938701819843F7
:10201000BE840D4579FB83C7918291E7694597207E
:102020000020E780209D05455D3E9C408DC3130543
:10203000D402B707C0A863F7A700370540571305B8
:10204000D5022295293F97200020E780008C054586
:10205000EFF02FC3014551BF01005DB7B717004036
:10206000130770052380E704130780FA2380E70431
:1020700003C7E700136787002387E70003C7170339
:1020800013670702A388E7022380070437070010BD
:10209000B7E700E023A0E710828041119397050184
:1020A00022C406C626C2C1872E8463DE0700EF0065
:1020B000300A19C1EF0010072165218DB24022447A
:1020C00092444101828093F7150099CB1306803E1C
:1020D000894503C58182EF00B04C13451400F9BF58
:1020E00093F72500A1CFEF20005F9384418283D72F
:1020F0000400944013978700A183D98F17370020DD
:102100002312F79E8DCA9306F00F1306F00FA94510
:10211000173500201305859CEF10F05811468945AE
:1021200003C58182EF00D0479C40FD1723A2F182B6
:102130001345240061B7238F0180DDBF93F745006D
:102140000145ADDFEF202059173500201305059913
:10215000834705009306F00F1306F00F8507A94586
:1021600017370020230CF796EF10907DEF00F00E4C
:1021700023A0A1821345440091B793F7150063880B
:10218000070C411122C406C62E843D2523ACA18034
:102190009317450163D5070A854517350020034588
:1021A0008597EF00902D85471306C012914517358E
:1021B000002003453596238FF180EF00703EEF003D
:1021C000D00923A0A182ED77938757A51737002068
:1021D0002316F79093578501173700202301F790B6
:1021E0009357050117370020A30BF78E931785002F
:1021F0004205418121815D8D973700202392A78E72
:102200009307800C1546894503C5818223A2F1827C
:10221000EF00103903C791828547631CF7000566FC
:10222000130606778545173500200345A58EEF0078
:10223000303713451400B24022444101828003C765
:1022400091828547E317F7FE1306803EE1BF014503
:1022500082808547238FF18093888188814713F797
:10226000F70F636EB70803C7818893075005631B98
:10227000F71603C791889307A00A6315F716A547B9
:1022800063F2B71683D7280083C6D18113978700DE
:10229000A183D98F139307011353030113178300ED
:1022A00083C7C188D98FA20703C7D188D98F238E4E
:1022B000B180638E06120147138EC18B131627005F
:1022C000729603483600034526002208336505014F
:1022D0001318850003451600034606003365050103
:1022E0002205518D6393A700368705071377F70FF3
:1022F000E3F6E6FC639FA700238F0180828033070B
:10230000F500834607003387F80085072300D700D0
:10231000B9B749451387C18B138681906368D50887
:10232000139626001387C18B329713D6870023009C
:10233000F700A300C700850613D60701E183A301B8
:10234000F7002301C700A38ED180411106C622C425
:1023500081471726002013066678B386F80083C6E7
:1023600006003307F60085072300D700E3C7B7FE52
:1023700003D688009307800C8545131486002182BC
:10238000518C1725002003450579420423A2F182D0
:10239000EF00B00E418015463306C4022244B2401D
:1023A00003C58182894541016F00901F8346470024
:1023B0001107230ED7FE83461700A30ED7FE8346D0
:1023C0002700230FD7FE83463700A30FD7FEE31F56
:1023D000C7FC2384F19013D78700A384E190239551
:1023E0006190A5B7238F0180238E018082808DFBB1
:1023F00021B78D47630AF50091476307F5028947C6
:102400006319F5026F20202D411122C406C63284C3
:10241000EF00A06423A0A1828345140013052400CB
:102420002244B240410135B5914503C581826F0018
:10243000D004828079711306000281450A8506D690
:10244000EF00607E17050000130565C5EF00B03191
:102450002384A182B7477671938797123EC4B757FA
:102460005500938757553EC6B767250093870725C4
:102470003EC28567938707842310F1009707000009
:10248000938767F73EC80A85ED57230EF100EF10DA
:10249000F00E170500001305450FEF00D02C854501
:1024A00097270020A388A766EF00207D170500006E
:1024B0001305E5CCEF00302BB25097270020238B7B
:1024C000A76445618280411122C485471384E1815C
:1024D00006C62300F400EF200020379525001305E1
:1024E0000596EF206050B2402300040022444101D1
:1024F0008280411122C485471384E18106C62300EE
:10250000F400EF20401D37B5250013050507EF2027
:10251000A04DB240230004002244410182804111B9
:102520008945056506C622C4EFF0AFD68945096521
:10253000EFF02FD6512423ACA1808567E98F03C724
:1025400051819316250185C705446302870263C242
:102550000602953FA38A818081450565EFF06FD320
:102560002244B2408145096541016FF08FD263D8A2
:1025700006000944E30287FE99E3A53FE1BF69FF36
:10258000EF206015D1BF411122C406C693F7150094
:102590002E846388071283C74181A54603C79182B1
:1025A00063E4F60C6317070C8507238AF18029245E
:1025B00023ACA1809317450163D0070C83C7918298
:1025C000C5EF172700200347175589476306F70A09
:1025D00085451725002003450554452585471306E5
:1025E000C0129145172500200345D552238FF18055
:1025F000EF00007B9D2123A0A182ED77938757A553
:1026000017270020231CF74C93578501172700201C
:102610002307F74C9357050117270020A301F74C18
:10262000931785004205418121815D8D9727002008
:102630002398A74A05669307800C130606778545FD
:10264000172500200345054D23A2F182EF004075B8
:102650001546894503C58182EF0080741345140037
:10266000B24022444101828009E7238A0180912AF5
:102670003DBF238A018025BFEF20E00517270020FA
:10268000034777498947630DF7009306F00F130658
:10269000F00FA9451725002013054544EF10502AD7
:1026A00083C7E181172500200345D54699E783C7F5
:1026B000518181C72946894545B71306C012914506
:1026C00061BF93F725008DCBEF20E000893D83C7E4
:1026D000E181172500200345F54399EB83C751811C
:1026E00081CB130680258545652D134524008DBFBC
:1026F0001306C0129145CDBF93F745000145ADD3F8
:10270000393D83C7E181172500200345B54099EB8A
:1027100083C7518181CB13068025854551251345FB
:1027200044003DBF1306C0129145CDBF411122C4E4
:10273000371400408327C40A06C68D4593E7074037
:102740002326F40A13050040EFF0AFB48327840A70
:10275000B24093E707402324F40A224441018280D7
:10276000371700408327C70A89451305004093E7C0
:1027700007402326F70A6FF0CFB10565411189455F
:102780001305058006C6EFF0CFB081450565EFF073
:102790004FB081450965EFF0CFAF8D452165EFF072
:1027A0004FAF371700408327C70AB240A166D58FC5
:1027B0002326F70A41018280B717004003A5470A84
:1027C000828001118145116506CE22CC26CA4AC8F5
:1027D0004EC6EFF00FAC89450145EFE0DFC3EFE0F7
:1027E0005FBAB717004011479384C190AA89238C20
:1027F000E704138901922684EFE0BFC64E9588C096
:102800009104E39B24FF37170040A30C07045440B6
:102810001C400546B6971444B6975444B6971448DE
:10282000B6979726002083C6162F6399C602856641
:102830009386464063DDF600894797260020A38CE7
:10284000F62C8327870AA166D58F2324F70AF24046
:102850006244D2444249B2490561828085669386CA
:1028600076BBE3C6F6FE97270020A386C72A8327F8
:10287000C70AA166D58F2326F70AD1BF411122C40A
:1028800006C693F715002E8485C74D35116685471A
:10289000130606E88945172500200345C527A384AC
:1028A000F182FD2913451400B24022444101828087
:1028B00093F725000145EDDB65352945A3840182A9
:1028C00097100020E780C043ED3D13452400E9BF89
:1028D0004111054506C6EFF08FB01305800497102F
:1028E0000020E780602A85457D55EFF08F9A854569
:1028F0007D55EFF06FA41D3DA5354135EFF04FD16B
:10290000EFF08FE2EF206013353617050000130556
:1029100025F7912D97270020238FA71E97100020C1
:10292000E780E0411DC18346E5FF1307F00F9147A3
:10293000639EE600411106C697200020E780E00F65
:10294000B24081473E854101828095473E85828025
:102950001387C1821C43411122C426C24AC006C645
:1029600001440149BA8489E7A165D1210DC401A8B8
:1029700003C7E7FF6318A7021DC8A165FD2C984097
:10298000832784FF6317E40223A6F182FD57232CDB
:1029900004FE230FF4FE2285B240224492440249F1
:1029A0004101828011E03E8983A787FF6DBF3E848D
:1029B000E5BF232CF9FED9BF23A60182828093872D
:1029C00041849C4399E33E85828003D727006316A8
:1029D000B70003C70700E308A7FEDC47E5B74111CE
:1029E000939705014AC006C622C426C2C1872E8914
:1029F00063DE0700B13F11C1353721653345A900BA
:102A0000B24022449244024941018280AA86014593
:102A1000E5D901443D47B3578940858B95CB9387D2
:102A200081838443BD4791E28147A2978E07054584
:102A3000BE9433158500131405019C40C8404180A5
:102A4000829723A0040023A20400334524014DBF34
:102A50000504E312E4FC0144CDBF974700209387AF
:102A6000679D9C53411122C406C61384418095C7BB
:102A7000829723A2A1800840B74703009387D73FDE
:102A80003305F502B7A72600938737ECB2402244FE
:102A90003E9523A2A1804101828097470020938721
:102AA000279D18409C4BBA9723A2F180E9B79387E2
:102AB000018390439746002083C6969B814713F776
:102AC000F70F6360D70A174700200347D79E914747
:102AD00063E0E70A9747002083C787A2918BC9EB81
:102AE0000111680006CE22CC26CAEF00D002FD56A6
:102AF000630FD50C32479747002083C7D79463F301
:102B0000E70C174700201307A796404717470020F8
:102B1000034787936305D406058B21CF51473304C0
:102B2000E40263F1870A97200020E7808087B2479C
:102B30006373F400A287174700200347D790998F4B
:102B40003E95974700209387E78E8387470163CDA3
:102B50000702B707C0A86369F502B70740573E955B
:102B600025A085071397170032970357E7FF21DB4E
:102B70008280130790023304E40205805DB7620788
:102B80006187635707001D8D19E93705C0A801A8A3
:102B9000E37BF5FE3707C0A8B307F7403E9597479C
:102BA000002093872789DC53829709ED97470020FF
:102BB000938707909C4F99C7EF005014EF0010596E
:102BC000EF003008F2406244D244056182809747AA
:102BD00000209387E789DC47E386A7FE174700209C
:102BE0001307478583464701BA84858A9DC65144A9
:102BF000338487029747002083C7F784E3F487FC78
:102C000097100020E780E0799747002083C7B783BB
:102C10001D8C2295838744011DBF130490023384C9
:102C200087020580C1BF2A9609E582800505A30FAA
:102C3000B5FEE31DC5FED5BF81476314F60005450B
:102C400082803307F5008507B386F5000347070048
:102C500083C6F6FFE383E6FE01458280814711E9E2
:102C6000014582803307F50003470700E31AB7FEEA
:102C70008507E319F6FE054582809737002083C754
:102C8000377F637FF500138701839317150008438F
:102C90003E9583570500DD8D2310B50001458280E8
:102CA0000D458280FD570111173700202328F77C3E
:102CB0009387418422CC80434EC697390020938964
:102CC000697726CA4AC852C456C206CE5AC02A8953
:102CD00081444E8A973A0020938A8A791844814722
:102CE0006374E900B307274103A749021CC409CB59
:102CF00003A7CA0063F6E700173700202320F77800
:102D0000A1E7835524009DE95C44A1E823A2F18456
:102D1000032BC400228597200020E78000D25A842C
:102D200055FC83274A0285CF6244F240D24442498F
:102D3000B249224A924A024B056195BB0345040001
:102D40002D3F5C4081CB1CC483572400D5DFA28477
:102D50004044F9B71C44CDDBC5BFDCC455BFF240CD
:102D60006244D2444249B249224A924A024B056126
:102D700082809737002083C7B76F6371F50213878E
:102D8000018393171500084393C5F5FF3E958357BC
:102D90000500FD8D2310B500014582800D45828020
:102DA0009737002083C7D76C6364F50001458280A4
:102DB000411122C426C24AC006C62A842E89B28482
:102DC000FD3E01C504C505452DA0936504F0C2056F
:102DD000C181414597200020E78080BC0DE19737F5
:102DE0000020938727659C5B81C7A2851145829748
:102DF0000145B240224492440249410182809387B6
:102E000041849C438DE323A2A184854723260500AA
:102E100004C52311250123008500A300F50023220A
:102E2000050055B7BA87D84775FFC8C7F9BF411124
:102E300022C426C24AC006C6AA842E8949362A84DC
:102E400019C1231105009737002083C76762639477
:102E50009700239E2183CA852685213F014511E0E5
:102E60001945B24022449244024941018280239A8A
:102E7000A182239BB1828280411106C623A0A18436
:102E80000295B2409737002023AEA75E014541016D
:102E90008280994763E9B7008A05973700209387B6
:102EA000675FBE9588C18280411106C622C426C2D2
:102EB000EF20104B71468145173500201305855DC5
:102EC0009D33173400201304A45A130640022285B0
:102ED0008145913B23A2018423A0018497370020E0
:102EE00083C7075713D527008D8B3E958D47330534
:102EF000F502994793051010938481843505137565
:102F0000F50F2301A4003305F5021305050F9720E3
:102F10000020E780E0A823ACA182834724001305AA
:102F2000050F88C08A073E9523A8A182EFF0DFA88D
:102F30002D2683471400984017060000130666AA42
:102F400093962700BA9690C293862700850793F739
:102F5000F70FA300D400B24022448A07BA9790C367
:102F60009244410182809737002083C777501737FA
:102F700000200347075063F1E70213878184184359
:102F80009386170017360020A304D64E9396270089
:102F9000369708C33E8582809307F00FE5BF1C413A
:102FA000638E071841777D8FB70600208947631825
:102FB000D7180357450063040718411126C2194664
:102FC000AA849305F00F590506C622C44139054766
:102FD0008D47630FE514173400201304A4451C44E7
:102FE00081CB5858994763150714185C631207146E
:102FF0001306C0038145173500201305A54325316D
:103000001306C003A685173500201305A5429710A7
:103010000020E780E0139737002083D7674299E7C5
:103020009307001017370020231CF7409737002024
:1030300083C7274191E78547173700202303F740CF
:103040009737002083C7F73F91E7ED4717370020F8
:10305000A309F73E9737002083C7C73E91E79547FE
:10306000173700202300F73E9737002083C7973D8E
:1030700091E7854717370020A306F73C97370020D4
:1030800083C7973C99E78347040117370020A30DB6
:10309000F73A9737002083C7073B91E7D1471737A7
:1030A00000202302F73A9737002083C7873A95E735
:1030B000173700200347473993168701E1869307A6
:1030C000C00263C806009377170093B71700938771
:1030D000D70217370020230EF7369737002083C713
:1030E000973695E717370020034707369316870171
:1030F000E1869307C00263C806009377170093B771
:1031000017009387D70217370020A30EF73283C723
:10311000D40191E7894717370020A30BF7321C54DD
:1031200091C78297973700202397A734B53B8147F3
:10313000B240224492443E854101828089473E85C7
:103140008280973700209387E72E985739CF411117
:1031500022C426C206C6BE84029717370020035732
:1031600087312A8451C3BA876373A700AA87C2072D
:10317000C183BA866373E400A286C206C182958FBA
:1031800051476353F706DC5491C38297854717373D
:1031900000202303F732B52D97370020239D872C7D
:1031A000B24022449244410182809737002083C775
:1031B000A73095E7973700209387872F83C797001D
:1031C000850793F7F70F17370020A307F72EA18B7A
:1031D00095C78547173700202310F72E49AD97373D
:1031E0000020A38B072CDDBF9737002083C7C72C97
:1031F000C5DB2244B24092444101CDB7828097376B
:10320000002093872723D857011122CC06CE3E8475
:1032100001C72AC60297324509CD23A6A1841715F6
:103220000020130585198939F24062440145056182
:1032300082808307440163DD07009737002023A5C0
:103240000724971700209387E71123A6F184C1BFB5
:10325000971700209387E714CDBF011122CC1734B4
:1032600000201304241D084406CE26CA4AC801E9DA
:103270000545F2406244D2444249056182805C586F
:10328000E5DB185C75D77000854582971844B24716
:10329000E300F7FE9305E004173500200355451AB7
:1032A00097100020E780C06F173700202320A71E4B
:1032B00061D1173600200356A6189305F00FEFF0E2
:1032C0009F968144173900201309891A97370020E7
:1032D00083C727170326C90163C1F40232859710FB
:1032E0000020E780807501459737002023A0071A4A
:1032F0009737002023AE0718ADBF9735002083D540
:103300002514B38795020844185C898185043E958D
:1033100008C2029765BF9737002083C7971563805F
:103320000712411126C206C6AA8422C44AC07D558E
:10333000CDC8973700209387271DB8475DC317393D
:1033400000201309290F030549019735002083C583
:10335000351085057D540548B708C0A8130E000C2C
:1033600083467700832707086399060503530707F9
:1033700083560703637DD3060346D7006319060708
:103380000326070F2DE60326470935E20346F7001B
:10339000631FC605705FB386664079163306D60292
:1033A00083264708B356D602B297AE96C206C182AC
:1033B000231BD70663500504958F63F387003E8473
:1033C000184359FF9387C1849C4382976368A40282
:1033D000B307A4409CC09C4035476361F70423A019
:1033E0000400B24022449244024941018280835643
:1033F0006707C9B7E3F2D7FCC6977DBFB30785401F
:1034000063DB070083074901E3C407FCB707C0A8D3
:10341000A297898FC1B723A0040075BFCD179CC0A8
:103420008307490163D50700130534FF5DBFB1472A
:10343000E3EC87FE3705C0A84D1522955DB77D5595
:1034400082809386418590429737002083C7A7FFEB
:10345000139787000C4293F7F703A2074D8FB785A8
:1034600000014D8F18C21842F1759385F50F6D8FCD
:10347000D98F1CC237170040930770052300F7044B
:10348000930780FA2300F70401000100173600209B
:10349000034666FBD14763FBC7048357270293E7C4
:1034A00007012311F7029C424567130787E7D8D726
:1034B000984FA166558F98CF984FE1769386F6077F
:1034C000758F8D6693860650558F98CF13072015FC
:1034D000D8DB97170020938707F5B207370700144A
:1034E000B183D98F37E700E07CD7828083572702EA
:1034F000C207C183BD9BC207C18365B717370020D0
:10350000130707FB938781859C43544B184F09662B
:1035100094CBD4CB98CFD8CF9447D18E94C7D847EB
:10352000518FD8C794470566D18E94C7D847518F1D
:10353000D8C798431367270098C3984313670702B7
:1035400098C38280938701869C4399CBD44390474C
:103550009842518F98C2D447DC4B9842D98F9CC275
:10356000171300206700A307938701869C4399CB1C
:10357000944BD04B9842518F98C294439C479842A9
:10358000D98F9CC2938741869C43094798C31713E0
:1035900000206700C3049737002083C717F28DE728
:1035A00017370020034737F19307B7FF93F7F70F5B
:1035B000894663EBF600973700202380E7F08547C4
:1035C00017370020A30BF7EE8280138741861C4338
:1035D00094438D8A85C2B44BE19AB4CB944393E66D
:1035E000860094C39C438D83858B89C701000100AD
:1035F000010001001C4323A80704938701869C4314
:1036000099CBD44390479842518F98C2944BDC4B4E
:103610009842D98F9CC297370020A38E07E88280FA
:10362000938641869C4298430D8B05C3B84B619BA2
:10363000B8CB98431367870098C39C438D83858BD1
:1036400089C70100010001000100938741859C4367
:1036500037080010D857719B13672700D8D79843B5
:103660003367070198C3984F370800F97D183377FF
:103670000701370800023367070198CF984F137787
:1036800037F81367870198CF1387C186032807008F
:103690000327C802759B2326E8021377F607904399
:1036A000137606F8598E90C388C7CCC3973700208D
:1036B000238007E097370020A38E07DE98429737D4
:1036C0000020238907DEFD475CC3938701869C4366
:1036D00099CB904BCC4B1442CD8E14C290439C4757
:1036E0001442D58F1CC285679387870B97360020BD
:1036F00023A6F6DC85471CC3930790053CCB82804C
:10370000411197370020A38A07DA22C406C626C2D1
:1037100017340020034464DA95476318F40697379A
:103720000020938767DE985F3E8483467700A9CAAE
:1037300003465700B755550037C5898E93855555B3
:10374000130565EDF13D9736002083C6D6D69387E5
:10375000A6FF93F7F70F0547636AF7009737002036
:10376000238DD7D497370020A389E7D495471737FF
:103770000020A302F7D41C5C130710FA2383E70090
:10378000B24022449244410182809947631DF40271
:1037900097340020938444D7BC4003C777006DD38F
:1037A00003C65700B755550037C5898E93855555C3
:1037B000130565EDB53597370020A38E87CEBC4045
:1037C000130710FB65BF9D47E31CF4FA97370020F1
:1037D00083C7C7CF858B17360020034656D197364F
:1037E000002083C6C6D09DC397370020938707D09B
:1037F000C84309CD834515000905EF00701449D170
:10380000854717370020A30AF7CA9DBF81450145A8
:10381000EDB7973700209387A7C99C4FA1CB4111E3
:1038200006C622C4E139138441860D22EF10E02F31
:1038300009391C401307D005B8CBEF108062EF2088
:103840002031EF108045EF10004D854717370020DD
:103850002304F7C61C4023A80704353BB24022448A
:1038600097370020A38907C44101828082804111DB
:1038700022C4173400201304A4C31C4C06C626C25D
:1038800085CB938441869C401307D005B8CBEF10BD
:1038900080489C4023A80704834784008507173786
:1038A0000020230BF7C0C53997370020A38507C038
:1038B000B240224492444101828023A00186B7C7CE
:1038C000004023ACF1841387073023A8E1841387D9
:1038D000072023A2E1869387071037D7004023A64D
:1038E000E18623AAF1840547411197370020A3847C
:1038F000E7BC22C4173400201304C4B31C4006C61E
:103900009736002023A0F6BC938707119736002036
:1039100023ACF6BA973700202380E7BADD3D37E7BE
:1039200000E0B70710002320F710B706200023207F
:10393000D7100307440163570700138741861843D4
:10394000FD177CD3B2402244410182809387418697
:103950009C43930600052947D4CBD8CF9305C008D4
:10396000CCD31306C003D0D7CCDBD0DFF4C3F8C769
:103970001307600FB8CF316713073730D8C79717D1
:103980000020938747DF370700F07D8FB7E600E020
:10399000B207F8C2B18337070015D98FBCD6828031
:1039A000938741859C43B70600F9FD16984F758FA4
:1039B000B7060004558F98CF984F137737F81367E1
:1039C000C70198CF1387C1861443F5CD37B72400BC
:1039D0001307F7E96361A7089843137707F813679C
:1039E000570298C305476394E500130585C1D8566F
:1039F000370810FE7D1813672700D8D641671307D4
:103A000007A03356E5023377E5021305A00F7D8A40
:103A100093154601F042337606014D8EF0C2F04216
:103A2000B705FCFF6D8E2A073357A7023A07398383
:103A3000518FF8C217370020034747A9098B19CBCC
:103A400098431377F707936607049843137707F8AB
:103A5000558F98C38280370725001306F7486363A4
:103A6000A6023767DBFF130707932A971306007D2B
:103A70003357C7027D1790431377F707137606F87D
:103A8000518F85B7130707496318E50098431377EB
:103A900007F813676702B1B737D725001307F77721
:103AA000636DA7003767DBFF130707932A97130699
:103AB000007D3357C70279177DBF9843137707F806
:103AC0001367770239BFD856759BD8D61377F50799
:103AD0008843137505F8498F98C3A9BF9387C1849C
:103AE0009C43011122CC4EC606CE26CA4AC852C4F7
:103AF00056C28297973700209387479F8047814916
:103B00006308A406BE84973700209387A792038793
:103B100047013E8963580706018D135455009737B6
:103B2000002083C7479C9379F5016360F404370A4A
:103B3000C0A8B70A405797100020E78080DB9C445C
:103B40009736002083C6269A139756003E97830720
:103B50004901158C63C50700636347015697973782
:103B6000002023A9E798E378D4FC1604B369340154
:103B7000F24062444E85D2444249B249224A924AB6
:103B800005618280E37A85F8B707C0A8338487404F
:103B9000229561B79387C1849C43411122C406C614
:103BA00026C28297973700209387479480476309FE
:103BB000A406BE84973700209387C7878387470171
:103BC00063D80704018D135455009737002083C72D
:103BD00087916367F40497100020E78080D19844B0
:103BE0009737002083C727909396570036971D8CF0
:103BF0009736002023A0E690E37FF4FC2244B240F5
:103C00009244173500200345758C8145410149BB1D
:103C1000E37A85FAB707C0A833848740229565B751
:103C2000B2402244924441018280411106C6973736
:103C300000202388078CEFF05F9901458145EFF064
:103C40004FA5B240014541018280011126CA973437
:103C500000209384A48783C7040022CC06CE4AC8E0
:103C6000858B173400201304A4846385070E8347D3
:103C70002400858BE1C797370020238C0782EFF063
:103C80007F8C65379C48014681450545829783476F
:103C900034002689858BC1C7084C97370020A38A3A
:103CA000078081451306F1009737002023840780A1
:103CB00097100020E78080A3AA850DE11C4C930695
:103CC000F00F03C70700630BD7009737002083C7A7
:103CD000F7816385D7006303F700894583070900EF
:103CE00063C707001C4C0347F1002380E7008327CC
:103CF0000901104C094582979737002083C74780F8
:103D0000898B81CB8545172500200345A57FEFE0F2
:103D1000DFF6F2406244D2444249056182809387D3
:103D200041869C43BC53F5F79727002023840778EE
:103D30009C480146814549458297E1BFFD35EFF03A
:103D40004FC097270020238707769C48014681456E
:103D50004545DDB783473400858B99CFF9359727E3
:103D60000020A388077497270020238507749C48A8
:103D7000014681450545C9B74D3DE1B71C49638200
:103D80000712411122C406C6834705002A8493F70F
:103D9000070489C75C4109456381071013060002C7
:103DA00081451725002013056572EFE0DFE7A28546
:103DB0001306000217250020130545719700002007
:103DC000E780003917240020130444705C4891E711
:103DD000FD57172700202325F7709727002083C75A
:103DE000777099E79307800217270020A30CF76EDE
:103DF0009727002083C7276F91E7A1471727002047
:103E00002303F76E9727002083C7F76D91E7C54717
:103E100017270020A309F76C9727002083C7C76CDA
:103E200091E7ED57172700202300F76C9727002014
:103E300083C7976B91E7ED5717270020A306F76A12
:103E4000972700209387876AC84309C597100020E9
:103E5000E780A0BE9727002023AC076883470400B3
:103E6000858B85C3172500200345156893059004AD
:103E7000090597100020E780A0B29727002023A90A
:103E8000A76683471400014517270020A30BF76698
:103E90001C44172700202321F766B2402244410129
:103EA000828005458280797126D2972400209384F0
:103EB000E4619C4406D622D44AD04ECE52CC56CA97
:103EC0005AC85EC6638C0726138A418683270A0078
:103ED00098430D8B09C798431367870098C3172928
:103EE00000201309A96083474901B689B28A898BEA
:103EF0002E842A8B9D4B89EB83C7040093F707041C
:103F00009DC38945C8402DA0D13EE3FFABFE972756
:103F1000002083C7475D9607D117E3E7A7FE8347D5
:103F20004901898BF1DB8145172500200345155A8E
:103F3000EFF01FA783260A009307A005172700208C
:103F40000347C758BCCA937707046380071CD04057
:103F5000B797DBFF938707813E96E1679387076AF0
:103F600063F5C71A9307000DBCD2938741859C4324
:103F70009044058B1367E70190C7D044D0C3D8C2E3
:103F8000034769011367270097260020238BE65615
:103F900017270020A30C3755172700202308575553
:103FA000D857B70600F0FD16719BD8D798439729CC
:103FB00000209389E94F758F98C303A549016309D0
:103FC0000B1423005501A30085002286DA8509051C
:103FD00097000020E780C017938781859C4303A743
:103FE0004901814517050000130565C698CB972741
:103FF00000202380074C97270020A38C074A97278F
:1040000000202389074AEFE0DFE8EFF0CFD88D47A3
:1040100017270020A301F74A9727002083C7C74C22
:104020009D07920717270020232AF74883270A00B5
:10403000B8537DFF216713073730D8C713174400E3
:104040001307C71CB8D3130700F897260020238353
:10405000E646316713073730D8C783474901898B54
:1040600095CF9387C1849C4382971727002013071D
:10407000673C0307470183278900635E07081D8D9E
:1040800003C704000D8183A74901418B49CF37073E
:10409000800062051307F72F598D88C3EFF0CFCC4E
:1040A0009387C186984301455C578583858BB9C347
:1040B000DC40C165938505A0938787C1B3D6B7025D
:1040C000370810FE7D18B3F7B702FD8A1396460134
:1040D0007443B3F60601D18E74C39306A00F37065E
:1040E000FCFFAA07B3D7D7027443F18EBA07B9838E
:1040F000D58F7CC3B250225492540259F249624A7D
:10410000D24A424BB24B456182809307000AA9BD57
:1041100023205501D1B5E374F5F63707C0A8B307DE
:10412000F7403E95B1BF09041374F40FA3808700D4
:104130003E9423000400A300A4008DB705455DBF95
:10414000011126CA938441869C404EC652C49843AE
:1041500056C25AC006CE22CC4AC80D8B2A8AAE89D6
:10416000328BB68A05C3B84B619BB8CB98431367B3
:10417000870098C39C438D83858B89C7010001000C
:104180000100010017240020130444368347440132
:104190001729002013098933918B99E78347090078
:1041A00093F70704639507168145172500200345FB
:1041B000F531EFF0EFFE938741859C43032789009B
:1041C000B706001098C70327C900D8C3D857719BFA
:1041D00013672700D8D79843558F98C383470900A2
:1041E0009840858B93E7E7015CC397270020A38065
:1041F000673197270020238C572F5C43858BADC7F1
:104200005C4085E3172500200345152E9305900497
:10421000090597000020E780A0789727002023A9B0
:10422000A72C5C400545F1CB172700200347272C1E
:104230002380E7005C4063000A0E638E090CA380B4
:10424000370148404E86D285090597000020E78057
:1042500020F0938781859C435840D8CB9307000476
:10426000172700202306F724EFF0EFB283476401FD
:1042700093E74700172700202305F72897270020FA
:10428000A388072297270020A386072297270020CC
:10429000238207229D4717270020A30EF720972788
:1042A0000020938727199C5791CB13060064C145C2
:1042B0001725002003450525EFE09FAE9387018673
:1042C0009C4399CBD44390479842518F98C2D4478E
:1042D000DC4B9842D98F9CC29727002083C7C72008
:1042E0009D07920717270020232AF71C9C400547AB
:1042F000014598C313079005B8CBF2406244D244FD
:104300004249B249224A924A024B05618280854560
:104310000325490079BDA380070025BF397126DA3E
:10432000972400209384841A83C7040022DC06DECD
:104330004AD84ED6858B1724002013046417638750
:10434000073083470400972900209389291A858B19
:104350006380072C9387C1869843032984015C57A7
:104360008583858BA1C3DC40C165938505A0B3D649
:10437000B702370510FE7D15B3F7B702FD8A139615
:1043800046017443E98ED18E74C39306A00F37069D
:10439000FCFFAA07B3D7D7027443F18EBA07B983DB
:1043A000D58F7CC381451306F1014A8597270020EC
:1043B0002380071097000020E7804033AA850DE195
:1043C0009727002083C7B7129306F00F638AD700A0
:1043D000184C034707006305D7006303F7008945BE
:1043E0008387040063C00714639005148347F101B9
:1043F0002300F90083C74901918B95C783471900B2
:10440000CA9703C7070093070008631EF7005C48BC
:104410001307F00F98C383C7040093E7070117271A
:1044200000202305F70A83A7490013874186184314
:1044300083C71700A166938636309387070A54C74F
:1044400092073CD3930700F8972600202384F606B2
:10445000B167938737305CC71305A005970000202C
:10446000E780E02397000020E7800020EFF0EF9541
:104470009726002083C6C60893F74600638C07146E
:1044800017270020130707FB030647011C48635E3C
:10449000060CF117172700202324F7021C4803A756
:1044A0008900635C060C3387E740834719009395C6
:1044B0008601E185CA9783C717008E0763DE050C66
:1044C00063F3E70C1D8F9306000263EBE6001848C8
:1044D000635E060AB307F74017270020232CF70076
:1044E0008945172500200345E501EFE00FF983C753
:1044F0000400C18BF9CB03A5490017260020034611
:1045000016FF9726002083C686FE4DCD83451500F5
:1045100009053D3183C70400BD9B172700202307F1
:10452000F7FA15A8E38805EC2EC6EFF00F8A104CB9
:104530009C48B2450D45829703A5490017260020E7
:104540000346F6FA9726002083C666FA01CD834516
:1045500015000905F536F2506254D2544259B25949
:104560002161828081450145F5B70D47E363F7F28C
:104570003707C0A87117BA9731BFE3F6E7F2B7055E
:10458000C0A8AE970DB73387E74035BFE374F7F4A3
:10459000B706C0A836973DBF1848635F0600B3074B
:1045A000F74093E606F8172700202325F7F497270E
:1045B00000202387D7F42DB7E373F7FE3706C0A892
:1045C0003297F1BF81450145A9B783471900F91713
:1045D000A300F900EFF06FE59C48104C81450D45B4
:1045E000829783471400858B99CB97270020A3815E
:1045F00007EC9C480146814511458297A9BF972742
:104600000020238907EA9C48014681455145F5B7BA
:1046100003A5490017260020034676ED97260020C3
:1046200083C6E6EC0DC1834515000905EFF05FB1C7
:1046300097270020938707E09C5B894589DF130556
:104640001008829709BF81450145CDB78347140003
:10465000858BA9CF97270020A38C07E4EFF0EFDC30
:10466000084C9306F00F014903470500630BD70080
:104670009727002083C7B7E76385D7006303F70058
:1046800009498387040063D00702014681459700EA
:104690000020E780A0053365A9009375F50F9C48BD
:1046A000104C0D4599BF2A868145D5B79726002025
:1046B00083C6E6E317260020034676E381450145DD
:1046C000EFF01FA8972700209387C7D69C5BE38451
:1046D00007E88545ADB797270020238407E2972791
:1046E00000209387A7E0C843411106C609C597007B
:1046F0000020E78080349727002023AB07DE972730
:10470000002083C797DB81CF172700200347E7DA14
:104710009D476316F70097270020A38007DA9726A6
:10472000002083C656D99387B6FF93F7F70F054746
:10473000636AF700972700202381D7D897270020A6
:10474000A38DE7D6EFE07FE8C1451725002003459C
:1047500065DBEFE0CFED01458145EFE08FF3B2403F
:10476000014541018280411106C622C4AD37972719
:1047700000209387A7D703C77701DC47A1451725FA
:104780000020034525D897260020A381E6D41727CB
:1047900000202321F7D4EFE08FE991451725002071
:1047A000034545D6EFE0AFE89727002083C747D5FC
:1047B00013F7270017240020130444D119CF1C48F5
:1047C00001468145130520028297B2402244972773
:1047D0000020238707D241018280918BFDD71C489E
:1047E0000146814513054002C5B7797126D2972449
:1047F00000209384A4CF83C7440106D622D44AD094
:104800004ECE52CC56CA5AC85EC6898BD1CF972A93
:10481000002083CAAACB93E71A0121698569316A0E
:10482000172700202304F7CA0144172B0020130B7D
:104830002BC8938B418613093930938929F9130AC0
:104840003A309726002083C676CA172600200346F2
:10485000E6C981450145EFF00FE583472B00858BC5
:10486000EDD397270020238607C4EFE0BFCD834711
:104870003B00858BA9C7EFF04FBB97270020A38A89
:1048800007C283C74401854517250020034585C716
:1048900093E707F8172700202304F7C6EFE0EFBDE2
:1048A00097270020238457C3B250225492540259B0
:1048B000F249624AD24A424BB24B45618280EFF0E4
:1048C000CFB605041374F40FA1476314F400613DDF
:1048D000C1BF83A70B00130700F823A6270123A05D
:1048E0003707972600202387E6BC23A64701B85345
:1048F0007DFF81BF411122C406C693F715002E84A7
:10490000B9C39727002083C7A7BF13F7270015C790
:10491000E207E187172500200345C5BE1306000501
:1049200063DA0700172600200346D6BB9307000A68
:104930003306F6029145EFE0AFC613451400B240CE
:1049400022444101828093F72500B1C397270020BC
:1049500083C707BB13F7470005CBE207E18717259D
:104960000020034525BA1306000A63DC070017265A
:104970000020034636B79307000A3306F6021306F3
:104980008602A145EFE0CFC1134524004DBF93F748
:10499000450089C7993D1345440055B793F78500F5
:1049A00099CB9727002083C7A7B5918B91C3653B0F
:1049B0001345840069B793F705010145C9D3EFE0BA
:1049C0004FF817270020034717AF9D47631BF700D9
:1049D00013060064C145172500200345A5B2EFE08A
:1049E0002FBC13450401A1BF17270020034747B17F
:1049F00021E717270020034767AD1377070405C396
:104A0000172700202326A7AC172700200347B7AAA3
:104A10008D4789456303F70085456FE07FF813777D
:104A2000F50F97260020A383E6AA97260020A38AE5
:104A3000E6AC81453A85D5B78280411106C622C4CD
:104A4000EFE0BFE717240020130444AA7146814514
:104A50002285EFE04F9DFD57170500001305C5E9BE
:104A60001CC0EFE04FD0230CA400954517050000B3
:104A70001305058BEFE0EFC1B2402244014541012F
:104A800082809387C18694430566D846518FD8C6E5
:104A9000514701007D1775FF9043FD76FD1658467E
:104AA000758F58C6514701007D1775FF9443056601
:104AB000D846518FD8C6514701007D1775FF9443E2
:104AC000D84613671700D8C6514701007D1775FFF8
:104AD0009443D846799BD8C6514701007D1775FF8E
:104AE0009443D84613671700D8C6514701007D1775
:104AF00075FF9443D84613670710D8C65147010085
:104B00007D1775FF9443D8461377F7EFD8C6514702
:104B100001007D1775FF98435C4793E707105CC75A
:104B2000D1470100FD17F5FF8280411106C6913F74
:104B30009387C1869C43130700483703009098D79A
:104B4000B8477D13370E0020337767003367C701FE
:104B5000B8C7B847B70600F9FD16758F37060004C9
:104B6000518FB8C7B8473706F9FF7D16419B1367C9
:104B70009700B8C7B847B7080080B70E0002718F1A
:104B8000B8C7B847370600FF7D1633671701B8C7A7
:104B9000F84745757D1E619B13673700F8C7F847D6
:104BA0001377F7F813670703F8C7EC4793F5F58F0A
:104BB00093E50530ECC7F847718FF8C7F8471166E1
:104BC0003367D701F8C703A807051307F5FF7D75FD
:104BD0003378E8003368C80023A8070503A8470511
:104BE0007D15137808FF1368480023AA0705F04BCA
:104BF00013660608F0CBF04B698EF0CBC85F798D59
:104C00002167598DC8DFCC5F37070040F58DB3E5CC
:104C1000D501CCDFD05FB70570003376C601598E61
:104C2000D0DFD05709674D8ED0D7D057F18ED4D76B
:104C3000D45775767D16F18ED98ED4D7D4573706D2
:104C4000FDFF7D1637070200F18ED98ED4D7945B15
:104C5000C19A94DB945B93F6F6F094DB945B93F645
:104C6000F68F94DB985BB70600504D8F98DB985B0E
:104C700033776700558F98DB985FB70608FFFD16FE
:104C8000758FB7061800558F98DF985FB3681701C6
:104C900023AC1703B240410182801387C1861C43B5
:104CA00041767D16B44BF18EB4CB94473706200085
:104CB000D18E94C7D44793E60601D4C7D447BD9A92
:104CC000D4C7010001000100010014430566DC4661
:104CD00093E70701DCC6DC42D18FDCC283A7C6099B
:104CE000A183858BE5DF01000100010001001C4369
:104CF000416603A7C709B44BD18EB4CB9376F701B5
:104D0000B84B019B558FB8CB9847B706E0FFFD160F
:104D1000758F98C782801388C186417703C68186C4
:104D2000832708007D1763180610B44FC165411131
:104D3000F98EB4CF9447C16E3D4FCD8E94C78D4F41
:104D40008147414E83260800CC4693F5F5EFCCC64B
:104D5000CC42B3E5D501CCC2CC4693E50510CCC618
:104D600083A5C608A1818589E5DD01000100010058
:104D700001008326080003A5C608CC423D89F98DB1
:104D8000CCC26305E50105061376F60F814513F3E2
:104D9000F50F636AF3006311F30493080101C695EC
:104DA0002388A5FE15A8AE888505B302B10083C28D
:104DB000F2FFE37E55FCBE8593020101AE9283C3F0
:104DC000F2FEFD1593F5F50F238872FEE316B3FE90
:104DD0000C08AE982388A8FE6308F601850793F7B0
:104DE000F70FE391C7F731C2834701002147637191
:104DF000F702F5172300F10083470100BD8B1397DD
:104E00007700BC4E93F7F787D98FBCCE41018280E3
:104E100011476374F700F917F1BF05476374F70092
:104E2000FD17C9BFF1FB8D47F1B7BC4E93F7F7876C
:104E300093E70728D9BFB44F4166F98EB4CF9447A2
:104E4000D18E94C7D44793F6F6EFD4C7D443758F69
:104E5000D8C3D44793E60610D4C7D843518FD8C3DC
:104E60008280397122DC1384C1861C4006DE26DA7A
:104E70004AD84ED652D456D25AD05ECE62CC66CAEA
:104E80006AC86EC6D843FD76FD161377F7EFD8C310
:104E90009857758F98D7D857B70602003D9BD8D73B
:104EA0009847558F98C7D84313670701D8C303C7DE
:104EB000018783C63187558F71E3D843817493840A
:104EC000F40F799BD8C3985FB166658F558F98DFD3
:104ED000D84313671700D8C397000020E78080A944
:104EE0001C4003A707091377F7032388E18603A76C
:104EF000470929831377F707A389E186D843B96661
:104F000093860670799BD8C3985F658F558F98DF1D
:104F1000D84313671700D8C397000020E78080A507
:104F20001C4003A707091377F7032389E18603A72A
:104F3000470929831377F707A38AE186D843B56623
:104F400093860630799BD8C3985F658F558F98DF1D
:104F5000D84313671700D8C397000020E78080A1CB
:104F600018408327070993F7F703A388F18683275F
:104F70004709A98393F7F707238AF1861C4003CCDE
:104F8000118783C6018703A7070AB386864113F6F4
:104F9000F600419B518F23A0E70A13076002338775
:104FA000E6021306700283A5070A7D7E130EFE0F2C
:104FB00093F5F5F01305400245737D131304300299
:104FC0003347C702B708F1FFFD1813082002930EFC
:104FD00010027D4FF94FF542F1436D4DD14B454BDA
:104FE000BD443949314AAD4AB5493D8B12074D8F11
:104FF0009305500223A0E70A3387B60283A5070A68
:10500000B3F5C5013347C7023D8B22074D8F23A05F
:10501000E70A3387A60283A5070A370500F17D1545
:10502000B3F565003347C7023D8B32074D8F23A090
:10503000E70A3387860283A5070A6144B3F51501A1
:105040003347C7023D8B42074D8F23A0E70A3387C2
:10505000060383A5070A370810FF7D18B3F505017D
:105060003347C7023D8B52074D8F23A0E70A338792
:10507000D60383A5070AB70E0010FD1EE98D33473E
:10508000C7023D8B62074D8F23A0E70A1397560096
:105090003347C7029315C70103A7070A3377D70120
:1050A0004D8F23A0E70A3387E6035D4F3347C702DE
:1050B0009375F70003A7470A419B4D8F23A2E70A88
:1050C0003387F60383A5470AD94F93F5F5F03347A5
:1050D000C7023D8B12074D8F23A2E70A3387560282
:1050E00083A5470AD542B3F5C5013347C7023D8BB7
:1050F00022074D8F23A2E70A3387760283A5470A4A
:10510000CD43B3F565003347C7023D8B32074D8F62
:1051100023A2E70A3387A60383A5470A494DB3F5BF
:1051200015013347C7023D8B42074D8F23A2E70A83
:1051300069473387E60283A5470AB3F5050133477C
:10514000C7023D8B52074D8FE54523A2E70A3387FF
:10515000B60283A5470AE98D3347C7023D8B620734
:105160004D8F23A2E70A338786020D443347C702D7
:105170009315C70103A7470A3377D7014D8F23A2A1
:10518000E70A3387E603254F3347C7029375F700D5
:1051900003A7870A419B4D8F23A4E70A3387F603B1
:1051A00083A5870A9D4F93F5F5F03347C7023D8BE2
:1051B00012074D8F23A4E70A3387560283A5870A77
:1051C0009942B3F5C5013347C7023D8B22074D8F86
:1051D00023A4E70A3387760383A5870AB3F565001E
:1051E0003347C7023D8B32074D8F23A4E70A33872D
:1051F000760283A5870A9543B3F515013347C702A5
:105200003D8B42074D8F23A4E70A3387A60383A56E
:10521000870A294DB3F505013347C7023D8B520775
:105220004D8F23A4E70A3387660383A5870AE98D98
:105230003347C7023D8B62074D8F93954600B3C538
:10524000C50223A4E70A03A7870A3377D701F2052B
:105250004D8FB385960223A4E70A03A7C70A419B93
:10526000B3C5C502BD894D8F23A6E70A3387260340
:1052700083A5C70A93F5F5F03347C7023D8B1207A4
:105280004D8FB3C5860223A6E70A03A7C70A337763
:10529000C701BD89A2054D8F23A6E70A33874603C0
:1052A00083A5C70AB3F565003347C7023D8B3207B4
:1052B0004D8F23A6E70A3387560383A5C70AB3F5A4
:1052C00015013347C7023D8B42074D8F23A6E70ADE
:1052D0003387A60383A5C70AB3F505013347C70281
:1052E0003D8B52074D8F23A6E70A3387E60383A53C
:1052F000C70AE98D3347C7023D8B62074D8F9395EF
:105300003600B3C5C50223A6E70A03A7C70A337749
:10531000D701F2054D8FB385F60323A6E70A03A74D
:10532000070B419BB3C5C502BD894D8F23A8E70A72
:105330003387560283A5070B93F5F5F03347C70271
:105340003D8B12074D8F23A8E70A3387760283A58A
:10535000070BB3F5C5013347C7023D8B22074D8FBD
:1053600023A8E70A139726003347C70283A5070B34
:10537000B3F565003D8B32074D8FB3C5360323A8C7
:10538000E70A03A7070B33771701BD89C2054D8FC5
:1053900023A8E70A139716003347C70283A5070B14
:1053A000B3F505013D8B52074D8FB3C5C60223A847
:1053B000E70A03A7070B698FBD89E2054D8F23A874
:1053C000E70A03A7070B930580023377D70123A8C9
:1053D000E70A03C721873307EC40B34DB70283AC1C
:1053E000470B93FC0CFFB34B770393FDFD00B3EC2D
:1053F000BC0123AA970B83AC470BCD4D93FCFCF06B
:1054000093FBFB00920BB3EB7C0123AA770BB30B4E
:10541000870283AC470BB3FCCC01B3CBBB0293FB3D
:10542000FB00A20BB3EB7C01B34CA70323AA770BC1
:1054300083AB470BB3FB6B0093FCFC00B20CB3EBEC
:105440009B0123AA770BA14BB34B770383AC470B8C
:10545000B3FC1C0193FBFB00C20BB3EB7C0123AA42
:10546000770BB30B570283AC470BB3FC0C01B3CBE8
:10547000BB0293FBFB00D20BB3EB7C0123AA770B9F
:10548000B30BF70383AC470BB3FCAC00B3CBBB024D
:1054900093FBFB00E20BB3EB7C01B34C770223AA36
:1054A000770B83AB470BB3FBDB01F20CB3EB9B0138
:1054B000B30CE70323AA770B83AB870B93FB0BFF9C
:1054C000B3CCBC02B30A570393FCFC00B3EB9B01C3
:1054D00023AC770B914B83AC870B93FCFCF0B34B65
:1054E0007703330A470393FBFB00920BB3EB7C017A
:1054F00023AC770B83AB870BD54CB3FBCB01B3CA83
:10550000BA02B309370393FAFA00A20AB3EA5B01BD
:1055100023AC570B83AA870BD94BB3FA6A00334AE3
:10552000BA0233092703137AFA00320A33EA4A012E
:1055300023AC470B03AA870BE14A337A1A01B3C99C
:10554000B902B304970293F9F900C209B3693A01A9
:1055500023AC370B83A9870B654AB3F9090133499B
:10556000B902B3C4B4021379F900520933E929012D
:1055700023AC270B03A9870BE9493379A900330B27
:105580006703BD88E204B36499001319470023AC94
:10559000970A83A4870BB3F4D4013349B902334B80
:1055A000BB027209B3E4240123AC970A83A4C70B9E
:1055B000C198137BFB0033EB6401C944B304970229
:1055C00023AE670B03A9C70B5D4B1379F9F0B3C486
:1055D000B402BD889204B364990023AE970AB30461
:1055E000B70303A9C70BF54D3379C901B3C4B4029E
:1055F000BD88A204B364990023AE970A8944B344DA
:10560000970203A9C70B33796900BD88B204B3645C
:10561000990023AE970AB304970303A9C70BF94C6B
:1056200033791901B3C4B402BD88C204B3649900CC
:1056300023AE970AB304770303A9C70BFD4B337955
:105640000901B3C4B402BD88D204B364990023AE87
:10565000970AB304670303A9C70B130B100233792E
:10566000A900B3C4B402BD88E204B364990023AEB8
:10567000970AB304570303A9C70B930A200233798F
:10568000D901B3C4B402F204B364990023AE970AFB
:10569000B304470303A9070C130A3002137909FF67
:1056A000B3C4B402BD88B364990023A0970CB304BB
:1056B000370303A9070C930940021379F9F0B3C427
:1056C000B402BD889204B36499006D4923A0970C7D
:1056D000B304270303A9070C3379C901B3C4B40287
:1056E000BD88A204B364990023A0970CF144B304CD
:1056F000970203A9070C33796900B3C4B402BD88CB
:10570000B204B364990023A0970CB304B70303A9B0
:10571000070C33791901B3C4B402BD88C204B36461
:10572000990023A0970CB304970303A9070C3379BE
:105730000901B3C4B402BD88D204B364990023A0A4
:10574000970CB304770303A9070C3379A900B3C4FA
:10575000B402BD88E204B364990023A0970C9314AB
:105760005700B3C4B4021399C40183A4070C3306D1
:10577000C702B3F4D401B3E4240123A0970C03A916
:10578000470C137909FFB3046703B3C4B402BD889F
:10579000B364990023A2970CB304570303A9470CE1
:1057A0001379F9F0B3C4B402BD889204B3649900CC
:1057B00023A2970CB304470303A9470C3379C9010B
:1057C000B3C4B402BD88A204B364990023A2970CA9
:1057D000B304370303A9470C33796900B3C4B40297
:1057E000BD88B204B36499001309500223A2970C38
:1057F000B304270303A9470C33791901B3C4B402D6
:10580000BD88C204B364990023A2970C930460027C
:10581000B304970203A9470C33790901B3C4B40256
:105820003346B602BD88D204B364990023A2970C14
:1058300083A4470CE98C3D8A6206458E23A2C70CDF
:1058400003A6470C9314C7013376D601458E23A2D5
:10585000C70C130690023306C70283A4870CC198B5
:105860003346B6023D8A458E23A4C70C1306A00218
:105870003306C702B345B60203A6870C1376F6F0CB
:10588000BD899205D18D23A4B70C83C5418703C67A
:1058900051873386C540B304A60303A9870C337927
:1058A000C901B3C4E40293E48400BD88A204B364D4
:1058B000990023A4970CB304E60303A9870C33795A
:1058C0006900B3C4E40293E48400BD88B204B36405
:1058D000990023A4970C93143600B3C4E40203A9DF
:1058E000870C3379190193E48400BD88C204B36442
:1058F000990023A4970CB304F60303A9870C33790A
:105900000901B3C4E40293E48400BD88D204B36403
:10591000990023A4970CB304560203A9870C33798A
:10592000A900B3C4E40293E48400BD88E204B36434
:10593000990023A4970CB304760203A9870C33794A
:10594000D901B3C4E40293E48400F204B36499007F
:1059500023A4970C93142600B3C4E40203A9C70C34
:10596000137909FF93E48400BD88B364990023A6EA
:10597000970CB304860203A9C70C1379F9F0B3C4DA
:10598000E40293E48400BD889204B364990023A6E2
:10599000970C93141600B3C4E40203A9C70C33791F
:1059A000C9013347E60293E48400BD88A204B364CE
:1059B000990023A6970C03A6C70C337666001367DD
:1059C00087003D8B3207518F23A6E70C03A7C70C36
:1059D0003377170123A6E70C03C731870D8F3346B2
:1059E000D70293F5F507E2053D8A9314460103A615
:1059F000C70C3304870233760601458E23A6C70CF5
:105A00001316170083A4C70CE98C3346D6023D8ACF
:105A10006206458E23A6C70C03A6C70C3344D402E6
:105A2000B37ED60113162700B3037702720433E462
:105A30008E0023A6870C3346D602B3025702937E0C
:105A4000F60003A6070D419A3366D60123A8C70CBA
:105A500003A6070DB3C3D3021376F6F0B3C2D20286
:105A600093F3F3009203B363760023A8770C03A6A5
:105A7000070D337EC601B30FF70393F2F200A202C3
:105A8000B3625E0023A8570C03A6070D33736600AC
:105A900013163700B3CFDF02330FE70393FFFF0086
:105AA000B20FB36FF30123A8F70D03A3070DB3786B
:105AB00013013346D602330DA7033D8A420633E66F
:105AC000C80023A8C70C03A6070D33780601334F7F
:105AD000DF02B346DD02137FFF00520F336FE80190
