:040000006F10002E4F
:1000040000000000000000006F0080086F00C04A7C
:1000140000000000000000000000000000000000DC
:1000240000000000000000000000000000000000CC
:100034006F004006000000006F00E00500000000B3
:100044006F0080056F0060056F0040056F0020059C
:100054006F0000056F00E0046F00C00400000000A2
:100064006F0060046F0040046F0020046F00000400
:100074006F00404B6F00C003000000006F0060037E
:100084006F0040036F0020036F0000036F00E00265
:1000940001A001A001A001A001A001A001A001A054
:1000A40001A001A001A001A001A001A001A001A044
:1000B40001A001A001A001A001A001A0B717004068
:1000C400130770052380E704130780FA2380E704ED
:1000D4002396A70223800704371700408347270588
:1000E400898BEDDF835707053717004083472705C2
:1000F400898BEDFF3717004083472705898BEDDF98
:100104000355070582804111814601468145114509
:1001140006C6F521B727004011472383E780B7F7C8
:1001240000E003A707D16D9B23A8E7D003A707D15D
:100134005D9B23A8E7D07300501001000100B2407A
:10014400410182804111814601468145114506C61F
:100154007D21B727004011472383E780B71700406C
:1001640003C7E70283C6E70483D7870311661377BF
:10017400F70F93E6360063E5C700719B136717001A
:10018400B7170040930570052380B704130680FA5F
:100194002380C704238207022387E7022387D70427
:1001A40003C7B70413670702A385E7042380070482
:1001B40037F700E0832607D193E646002328D7D0FB
:1001C400832607D1DD9A2328D7D07300501001006D
:1001D40001002380B7042380C70403C7B70413773F
:1001E400F70DA385E70423800704B2404101828010
:1001F400411122C4814681452A840146114506C61F
:10020400FD2EB727004011472383E780B71700402E
:1002140003C7E70283C5E70483D78703916613778F
:10022400F70F93E5350063E5D700719B136717005B
:10023400B7170040130670052380C704930680FA9D
:100244002380D704238207022387E7022387B70486
:100254002380070437F700E0832507D193E54500A1
:100264002328B7D02380C7042380D70483C5F7008D
:1002740093E50504A387B70083C5B70493E5050296
:10028400A385B704E57591054D8C42044180239004
:100294008702832507D1DD992328B7D07300501036
:1002A400010001002380C7042380D70403C7B704D7
:1002B400130560041377F70DA385E704238007046F
:1002C4002244B240410125A4011126CA81460146B7
:1002D400AA848145114506CE22CC4AC84EC60526BD
:1002E400B727004011472383E780B716004083C730
:1002F400E60203C7E60483D68603116693F7F70F75
:100304001367370063E5C600F19B93E717003714C2
:1003140000409309700523003405130980FA230073
:100324002405230204022307F4022307E404230020
:10033400040413055002B920B7F700E003A707D15E
:100344001367470023A8E7D02300340523002405BE
:100354000347F40013670704A307E4002567D98C57
:100364002310940203A707D15D9B23A8E7D0730051
:10037400501001000100F2406244D2444249B249A3
:1003840005618280B7170040930670052380D70467
:10039400130780FA2380E70403C6B7041376F60D27
:1003A400A385C70423800704137605022DC603C65C
:1003B400A700118A0DE22380D7042380E70403C732
:1003C400A700136747002385E7009307004B01004C
:1003D4000100FD17EDFFB717004093067005238059
:1003E400D704130780FA2380E7047D892394A700A8
:1003F4000100010001000100238007042380D704C9
:100404002380E7049306100537270040A303D78011
:10041400238007048280137605046DDE03C6A700DB
:10042400418A0DE22380D7042380E70403C7A70091
:10043400136707012385E7009307007D010001008E
:10044400FD17EDFFB7170040930670052380D7040E
:10045400130780FA7D892380E70413650504239438
:10046400A70001000100010001002380070423808C
:10047400D7042380E704930630053727004079B773
:100484004111814601468145114506C68D2AB7179B
:100494000040130770052380E704130780FA2380C4
:1004A400E70403C76704136717002383E704238063
:1004B4000704B240410182808146014681451145CD
:1004C4003D2AB7170040130770052380E70413077C
:1004D40080FA2380E7047D572396E70203C7670465
:1004E400136717002383E7042380070401A0BD4793
:1004F4003305F50201007D1575FD8280411122C48A
:1005040026C206C6AA84014463179400B24022445A
:1005140092444101828005041305803E4204C13F98
:100524004180DDB7B7170040130700032388E702B3
:10053400854723ACF18073002030411106C6A92100
:10054400FDBF2303048015472303E4800100230235
:10055400A480828083076480E3CE07FE23030480A3
:10056400828083076480E3CE07FE03454480828053
:1005740083076480E3CE07FE2302A48082804111B6
:1005840026C44AC24EC006C61377F50BAD47AA89E6
:100594002E8995446306F70019456537653F8D44F8
:1005A4004E854537FD59FD1463983401B240A24489
:1005B4001249824941018280135509011375F50FCF
:1005C400453F2209CDB7011126CC06CEB704080059
:1005D40051371545BD37713769372AC6A53F3245AE
:1005E4009377150089EB136515001375F50FF24029
:1005F400E24405618280FD14E9FC0145CDBF3971F7
:1006040026DC4ADA4ED852D656D45AD25ED006DE0A
:1006140062CE66CCB7E700E07D5783AA070022C606
:1006240003AA470023A0E71823A2E718B71700403E
:10063400130770052380E704130780FA2380E70477
:1006440083C74704930B75FFB684E20793FBFB0F44
:100654008546AA892E8B328937240040E1870157C9
:1006640063FA76016308D500894613070002631311
:10067400D5000157D98F93F7F70FB71C0040238299
:10068400FC0411472303E4801305F00F5D3D094C7E
:10069400D13563697C11B70707003E9B3787070094
:1006A4007955637EEB02B3079B00636AF702A9479F
:1006B4006399F90689E48144713D26850DA0DA85A4
:1006C4000945753D05090345F9FFFD14050B4D3535
:1006D40081C49377FB0FFDF7FD3569FD7D55B71791
:1006E4000040130770052380E704130780FA238072
:1006F400E70403C74704418B2382E704F250B7E7BA
:1007040000E023A0571123A24711E2543244525966
:10071400C259325AA25A125B825B724CE24C21617A
:100724008280A5476395F90685691309F00FB3061E
:100734009900B3742B01B6941349F9FFB37499006B
:10074400856B33796901416B9387F9FFB3F727010F
:1007540099E363FC340193D94900C147E3E637FFC9
:1007640099BF0569C1697D19D9B71305800D6388DF
:100774006901130500026384790113051008CA8511
:10078400FD3B913521DD4E99B3843441D9B7DA85E7
:100794002D45F533CA94E30099F20509D933A30F23
:1007A400A9FED5BF9387F9FF93F7F70F636CFC0895
:1007B40003C75C04B70708001377070219E3B78778
:1007C40007007955E37DFBF033079B00E3E9E7F08D
:1007D40089476390F9048980D549E38E04ECDA856E
:1007E4000945713B11090327C9FF91472320E48080
:1007F40003076480E34E07FE23033481FD17EDFBFA
:10080400FD14110B81C49377FB0FE9FF6D3B71F568
:10081400F1B58547E387F9F4DA852D458D3393895E
:10082400F4FFE38A04E8353B93F7390091EB832620
:1008340004800327090093074900E39FE6E63E8905
:10084400CE84F1BFB5476396F9001305900BD539F3
:100854009DB5B1471305B00AE38BF9FE9947639E32
:10086400F902DA852D45213B81448D4BA149D539C7
:1008740063967401832704802320F9008504E39898
:1008840034FF8327048013172B01635507002312B9
:10089400F90015B52322F90039BD9D476399F90282
:1008A40081451305B004E139BD4423200900232206
:1008B4000900FD597D3193F77400CA9703C70700F7
:1008C400FD14398D2380A700E39634FFEDB3A147CF
:1008D4006392F904CD398144630D0B008D47930471
:1008E400C0036308FB009304000563048B019304B5
:1008F40040041375C507E30095DC1945993199390E
:10090400054581312685AD3109459D316D39E314A5
:1009140005DAE9B391476399F900130560061531C7
:1009240015391305900925B7E38709D8F15469B33C
:1009340009CDB7170040130770052380E704130798
:1009440080FA2380E7042396A702828019C1814795
:1009540099E982803387F500834607003307F50061
:1009640085072300D700E397C7FEE5B719C1FD57F4
:1009740081E98280910503A7C5FF1105232EE5FEB9
:100984007D16E319F6FEF5B7797122D41724000019
:10099400130404421C4006D626D24AD04ECE91C738
:1009A40082979727000023A507405C4089CB03D595
:1009B4000186BD3F5C40829703D52186953F1C404C
:1009C400639907189727000083C79740858B95C7BD
:1009D40097270000A38E073E172700000347773FA1
:1009E400914763FCE700BD299727000083C7773E42
:1009F400F9178A07A2979C4382979727000083C719
:100A0400E741918B89C7971000E0E780E0E51C443B
:100A140091C382979387C1859843172600000346A4
:100A2400F6363E89972400009384443697270000C5
:100A340083C7C73593961700BA9683D6060063809A
:100A440006109727000083C7673463F2C708860738
:100A54003E97835507002310070003D501862EC651
:100A640023940186F135938741879C431725000021
:100A74000345C53113172500BA979C43B2458297A5
:100A8400AA8903D521866D359727000083C70730CF
:100A9400139717008327090003D581861345F5FFB3
:100AA400BA9703D7070033753501598D2390A700F2
:100AB40083C70400850793F7F70F17270000230760
:100AC400F72C172700000347772C63E6E7009727E6
:100AD4000000238D072A1C40ADEF9387C1869843FD
:100AE4003E8425CB9727000083C7F72E91CB972709
:100AF400000083C7172E89E7971000E0E780208D58
:100B04001C4082972A8431C59C48AA971727000065
:100B14002326F728938701879C4385CF03D5018635
:100B2400013D2285970000E0E78000E42254B250A2
:100B340092540259F24903D521864561D5BB8507F4
:100B440093F7F70F972600002382F624E3E0C7EE1D
:100B5400CDBDB250225492540259F249456182806B
:100B64009167B7C600409387373023A6F6200F104D
:100B740000009727000093876721884F9387018996
:100B84009C43316713073730F053B7071000FD1744
:100B9400918F99833A0523A6E6205D8D82804111C9
:100BA400B7170040985F3AC6945F3247E39CE6FE6D
:100BB400324541018280411106C6D537972600008F
:100BC40083C6461A858AB1C6930730333307F502C4
:100BD400B337F5023983CA07D98F172700001307E3
:100BE400E71A584B01456303F7023385E740636B0B
:100BF400F70037653D0889C637856F0813050590EA
:100C0400198D3E9517270000232CF718B240410197
:100C14008280E5473307F502B337F5022583DE0703
:100C240065BF5D7122DE138401883AD218403ED03C
:100C34004ACA1C5F86C696C499839AC29EC026DCA3
:100C44002ADA2ED832D636D442CE46CC72C876C6EC
:100C54007AC47EC2858B1389C187C1C31C5F972464
:100C640000009384A41693F7F7F91CDF972700007C
:100C740083C7C71593F707048DC3938781879C4364
:100C840082979727000023ABA71483C7040093F728
:100C9400F70B17270000230BF712854717270000CF
:100CA400A308F71283C7440093F7070481EF9387DF
:100CB40001899C43D844B8D3930700FC172700004C
:100CC4002308F7108387640063D90700832709008A
:100CD4009C4317270000230EF70E18401C5F8583E2
:100CE400858BC9CBF5571CDF010001000100010011
:100CF40001000100010001000100010001000100E8
:100D040001000100010001000100010001000100D7
:100D140001000100010001000100010001000100C7
:100D240001000100010001000100010001000100B7
:100D340001000100010001000100010001000100A7
:100D44000100010001000100010001000100010097
:100D54000100010001000100010001000100010087
:100D64000100010001000100938701899C431307DE
:100D74005004B8CB18401C5F9183858B89CFBD5735
:100D84001CDF938701899C4323A807048547172701
:100D94000000230FF70283270900D8430583058B3E
:100DA40019C7D843759BD8C3D843799BD8C3725409
:100DB400B640A64216438643E2545255C2553256B3
:100DC400A256125782577248E2485249424EB24ED6
:100DD400224F924F616173002030938701899443BD
:100DE40017270000130787FEBC5289CF83472700CB
:100DF400858B89EB83473700858BFDD797270000C8
:100E0400238807FC82809387C1889C4399CB944BA9
:100E1400D04B9842518F98C294439C479842D98FA3
:100E24009CC2938701899C4337C700401306C003C3
:100E3400A8CB9306200397250000938525F98327E3
:100E44008720C18393F7F7036369F600832787201C
:100E5400C18393F7F70363E6F60083C74500858BE8
:100E6400F9DF8280938701899443172700001307D1
:100E7400E7F5BC5289CB83470700858B91CB972735
:100E84000000238707F497270000A38307F48280D8
:100E940083471700858BF1DFDDB79387C1889C43B7
:100EA40099CB944BD04B9842518F98C294439C4712
:100EB4009842D98F9CC293870189944337C70040D5
:100EC400C145A8CA654683278720C18393F7F703E2
:100ED40063FBF50083278720C18393F7F7036364DB
:100EE400F600BC52EDF38280138701881843AA8769
:100EF400185F1583058B25EF03451500150513773A
:100F0400C51F19C6B386E70083C626002300D60092
:100F140095C59726000083C6C6EB93F606040945DB
:100F2400A1CAB386E70083C63600054693F5F606E4
:100F34006390C504E206E18663CC06023385E700CC
:100F44008347150003470500A20793F70770D98F5D
:100F54001397070141839376074099C61367078067
:100F64002394E188014582802394F188E5BF0545F7
:100F74008280011136C8938601892ECC8C423AC6F0
:100F84003EC498452ACE32CA9317070142C2C18390
:100F94001378172036853E8697260000938606E34D
:100FA400630408041377072061CF03C7260013677F
:100FB400170017280000230CE8E013070019B8D124
:100FC400130700F8972500002384E5E013870188C0
:100FD4000C4337080010D855719B13672700D8D5E8
:100FE40098413367070198C11377261005C3137618
:100FF400061045CA03C7060013671700172600002A
:101004002306E6DC17270000231607DC83C6460008
:1010140093C7F7FFC207E206E186C183184163D193
:1010240006029396170163D7060830538D4663E989
:10103400C600854617260000230CD6D83453FDFE7F
:10104400972600009386C6D08386460163DD06009A
:1010540093960701C18663D506067053894663E4F7
:10106400C6007453FDFE14477245E245F58F1CC754
:101074005246C2463247A2471248056173002030E7
:1010840003C716001367170097250000A380E5D453
:1010940017270000230E07D217270000231C07D2AE
:1010A400A1B703C736001367170017260000A30073
:1010B400E6D289BF854617260000230BD6D049B750
:1010C40054471396060163510602B7061000FD1635
:1010D40074D397260000938666CB944E8506172614
:1010E40000002321D6CC41B7A166D58FADBF172709
:1010F4000000130767CF8346B7019727000083C713
:10110400F7D1B69793F7F70FFD4663EAF6044C4B15
:1011140097260000A38AF6CC9727000083C7D7CC74
:1011240005473317F70097260000A389F6CE6D8F85
:101134001DEF9726000083C6B6CEB3F6D70213057B
:101144000002814733D6F500058A13F8F70F09CE5C
:101154006399E60097270000A38807C98280811756
:101164007DB705071377F70F8507E39DA7FC8280FA
:10117400938781899843B75702009387279F8326D3
:101184000709139656006358060083260709139629
:10119400660063440600FD17FDF3828051C9AA87E7
:1011A4000145C9C98D07C207C183F19BC207C18329
:1011B40013074003636BF7021387C18A084313873D
:1011C400418A14436396A60217270000130747B801
:1011D400185B014525C34111C20706C60545DD8DCF
:1011E4000297B2400145410182801387818AF9B791
:1011F4000357650005EF035745006369F702B3061B
:10120400F74021466370D6021041938687001D8FF4
:10121400AA96611790C22392E6002393060014C194
:101224002312F5002313B50021058280084159BF1C
:1012340001458280828001CD9387C18A03A807007B
:101244009387418A8C430147C28763E3B700828056
:101254009443636FF50663EDA60613868700E3687F
:10126400C5FE03D56700216605066317C50003C6DE
:10127400018B05062388C18A23930700638407032F
:101284001386818A1042630FF6000356670019EA39
:1012940083D7470014C383564700B697A107231288
:1012A400F700BA879843E304B7FA9386818A944295
:1012B400E30FD7F883566700D9FA83D6470003565D
:1012C40047001843A106B2962392D70098C38280A0
:0812D4003E87B6879DBF0000B4
:1012E000974100209381010917710020130181D1DA
:1012F00013054000972500209385C5501736002020
:101300001306C67D63FAC5008322050023A055009D
:1013100011059105E3EAC5FE178500001305854315
:10132000973500209385857B1386018163FAC5007C
:101330008322050023A0550011059105E3EAC5FEAF
:1013400013850181975500209385C5386377B500D3
:10135000232005001105E36DB5FE9302800873A0FC
:101360000230972200209382E24993E212007390A8
:101370005230973200009382A29B73901234730014
:1013800020303D432A876373C3029377F700BDEF94
:10139000ADE5937606FF3D8ABA960CC34CC30CC7E5
:1013A0004CC74107E36BD7FE11E28280B306C3400E
:1013B0008A069702000096966780A6002307B7006A
:1013C000A306B7002306B700A305B7002305B7009F
:1013D000A304B7002304B700A303B7002303B70097
:1013E000A302B7002302B700A301B7002301B7008F
:1013F000A300B7002300B700828093F5F50F939602
:101400008500D58D93960501D58D61B793962700FC
:101410009702000096968682E78086FA9680C1172A
:101420001D8F3E96E374C3F8A5B7B717004083C875
:101430008705194703C89705A38C0704238CE70485
:1014400003C7970593F8F80F1378F80F13679702FF
:10145000A38CE7040547238DE70437170040834733
:10146000A7059305A705858BFDFB0565C1463717C5
:101470000040054E1303F5FF2380C50103C6050098
:10148000058A6DFE0356C705FD16C2061346F6FF14
:1014900033766600C182B297E5F283469705A107CD
:1014A000918393F6760F13050580A30CD7041D8D49
:1014B000230C17054205A30C070541858280B71749
:1014C000004003C777051A0592054D8D1377E70F86
:1014D00013653500A38BE7041375F50FA38CA704E0
:1014E0008280B717004003C777051377E70FA38BF8
:1014F000E704130700F8A38DE7043D47238CE704B6
:1015000013075003A38CE70482800547B7170040F8
:10151000238DE704371700408347A705858BEDFF30
:101520000355C705520551818280B717004003C794
:10153000E704930670052380D7041377C70F0D893E
:10154000930680FA2380D704498F2387E7042380FA
:1015500007048280B717004003D587005D714EDE17
:101560004205418186C6A2C4A6C2CAC052DC56DA70
:101570005AD85ED662D466D26AD06ECE9377050C06
:101580001307000881496386E71813070004639A6C
:10159000E714B7240D8F7D8993840480B3D4A4020B
:1015A0009167938707E8BE94A167938707D0B3D468
:1015B000F402EF505079978700009387278F90436C
:1015C000D443EF50102DEF60803AAA8B939C040116
:1015D00003D9018193DC0C01631509000569130926
:1015E0000980B7170040130770052380E70413072D
:1015F00080FA2380E704B71A00400547939D040151
:10160000096C2389E704514B01438145138D0A047A
:1016100013067005930680FA094893DD0D01130C3B
:101620000C71A9482300CD002300DD0023962A0376
:1016300023000D0083C72A05898BEDDF83D70A05B8
:1016400083C72A05898BEDFF83C72A05898BEDDFC8
:1016500083D70A0523982181C207C1833385974127
:10166000131A0501135A0A41630B0A143307BA020D
:10167000635E070C05034203135303016368680CA0
:1016800063D9050A3305B04093150501C185C2042D
:10169000C18063D7450B0965130505713385A50224
:1016A000B7170040130770052380E704130780FA7B
:1016B0002380E704239637032380070433459502EC
:1016C00042054181B640264496440649F259625A81
:1016D000D25A425BB25B225C925C025DF24D616168
:1016E0008280B1E3B77489097D8993840480B3C48F
:1016F000A4029167938707E8BE94A167938707D0F8
:10170000B3C4F402EF503064977700009387877A70
:101710007DB59777000093872779856483AB0700B1
:101720009384843865B5930B0000954445B53A8998
:10173000D5BDB387FC40139A0701135A0A4181BFF4
:101740000965130505713305AA028DBF3385B741BD
:1017500063E4FC003385FD40330585033344B50362
:1017600063C5880013150401A9BF528532C636C46B
:10177000EF608013DE85EF501064EF60C00C131330
:101780000501135303413307694042074183A246D1
:1017900032460948A948631AE9001307190063444F
:1017A00040011307F9FF420741837D1B137BFB0FA9
:1017B000CA89D285E31D0BF62398E18065B7014500
:1017C00011B7B717004003D5870039715ECE4205C7
:1017D000418106DE22DC26DA4AD84ED652D456D2D1
:1017E0005AD062CC66CA6AC86EC69377050C1307D6
:1017F0000008814B6388E71413070004639CE7101B
:10180000B7240D8F7D8993840480B3D4A40291679B
:10181000938707E8BE94A167938707D0B3D4F402F7
:10182000EF50705297770000938747689043D443F6
:10183000EF503006EF60A013AA89939A040103D9F0
:10184000218193DA0A0163150900056913090980EA
:10185000B7170040130770052380E704130780FAC9
:101860002380E704139B04010547096A2389E704E1
:10187000D14D014D814C135B0B01130A0A714A854E
:1018800097200020E780C003330C5541420C135CC5
:101890000C4123992181630A0C14B3079C0363D084
:1018A000070E050D420D135D0D01894763E9A70D74
:1018B00063DA0C0A33059041931C050193DC0C415B
:1018C000C204C18063D78C0B09651305057133858C
:1018D000AC02B7170040130770052380E704130715
:1018E00080FA2380E7042396770323800704334597
:1018F000950242054181F2506254D2544259B25984
:10190000225A925A025BF24B624CD24C424DB24D7B
:1019100021618280B1E3B77489097D899384048051
:10192000B3C4A4029167938707E8BE94A167938725
:1019300007D0B3C4F402EF501041977700009387AB
:101940006757EDB59777000093870756856483A99D
:10195000070093848438D5B5930900009544F1BD00
:101960003E8931BF3385AA40131C0501135C0C412D
:1019700081BF0965130505713305AC028DBF63FE98
:10198000AA003305654133054503A9473344650380
:1019900063C8870013150401B1BF3305AB40E5B739
:1019A0006285EF507070CE85EF50F040EF50B06917
:1019B000131D0501135D0D41B307A941C207C18382
:1019C000631AF90093071900634480019307F9FF34
:1019D000C207C1831387FDFF937DF70FCA8BE28C8B
:1019E000E3900DF82399F18075B7014529B74111AE
:1019F0002A83014E930E407E130F0019930F400669
:101A000063EB6E0A9308001913034006B3781503BD
:101A1000854E0D4FA14F337365020D8913351500A7
:101A200063E5BE0C1308F6FF794672984208135816
:101A300008013307C70213D61700BE073297614665
:101A4000B3F6C60213068070B386C6023697A16647
:101A5000F58F42075D8FB717004083C6F70293F6F4
:101A60000608A307D1000346F10083C6F70293F6E8
:101A70000608E394C6FE8346F10093F6F60FF1DE06
:101A8000930670052380D704930680FA2380D70439
:101A900023AA070383C6170393E60608A388D70281
:101AA000D8DB03C7170313670704A388E702238063
:101AB0000704410182807D133368E3039308E01635
:101AC000630E08003368F3039308D0166308080018
:101AD0009378330093B818009388D81633081E0102
:101AE000131E0801135E0E0121BF6393E503054831
:101AF000638608000148630303002A88710872980E
:101B0000FD15131E0801C205135E0E01C18109BF38
:101B100013F8150063F4BF007908D5B7133818001F
:101B2000E5BF4111B7170040985F3AC6945F32474E
:101B3000E39CE6FE324541018280914763EEB702A5
:101B400017770000130787378A05BA959C41BA9723
:101B50008287B717004003A7470B1345F5FF698F2E
:101B600023AAE70A03A7070B698F23A8E70A03A79D
:101B7000070A798D23A0A70A8280B717004083A6A1
:101B8000470B1347F5FFF98E23AAD70A83A6070B45
:101B9000558D23A8A70A83A6070A758F23A0E70AF5
:101BA0008280B717004003A7470B498F23AAE70A93
:101BB00003A7070B1345F5FF45BFB717004083A6E2
:101BC000470B1347F5FF758F23AAE70A03A7070AF8
:101BD000598D4DB7B717004003A7470B498FEDB795
:101BE000914763EEB702177700001307672E8A0547
:101BF000BA959C41BA978287B717004003A7470D53
:101C00001345F5FF698F23AAE70C03A7070D698F1A
:101C100023A8E70C03A7070C798D23A0A70C8280CB
:101C2000B717004083A6470D1347F5FFF98E23AA87
:101C3000D70C83A6070D558D23A8A70C83A6070CE8
:101C4000758F23A0E70C8280B717004003A7470DCC
:101C5000498F23AAE70C03A7070D1345F5FF45BFDE
:101C6000B717004083A6470D1347F5FF758F23AACA
:101C7000E70C03A7070C598D4DB7B717004003A712
:101C8000470D498FEDB705E93717004093077005F9
:101C90002300F704930780FA2300F7048357070211
:101CA000C207C18393F7F79FC207C1832310F702CE
:101CB0002300070482800111B7F507008146300038
:101CC000B105194506CE97200020E7808013A24772
:101CD00013972701634A0702B717004013077005DF
:101CE0002380E704130780FA2380E70403D7070261
:101CF000136707402390E70203D707021367072003
:101D00002390E70223800704F24005618280B71721
:101D1000004003D58700420541819377050491EB8C
:101D20009377F5013755E801130505803345F50232
:101D300082809377050C130700046397E70093777D
:101D4000F50137459C1CCDB72165130505D0828070
:101D500037E700E01C435443A183E206D58F1CC142
:101D6000FD572320F7182322F718828013178500C8
:101D7000B7E700E023A0E710618123A2A7108280CB
:101D8000B7F700E0C8439C4782808147373700405F
:101D9000A14663C4C700328582800345B740E38E05
:101DA000A6FE3385F5000345050085072304A740FB
:101DB000CDB712059A054D8D1365C5001375F50F46
:101DC000B72700402380A7408280411122C406C665
:101DD0002A84353F2947B307E502B2408D83B3D744
:101DE000870222449507B3D7E70237370040C2077E
:101DF000C1832316F74041018280716541111305AB
:101E0000052006C6D937B7370040130770F823817D
:101E1000E7400D47A381E74013070004A380E74094
:101E200005472387E740B24041018280411106C641
:101E3000EFF04FF2BD4763F4A700EFF0AFF151327E
:101E4000BD4763F3A700B53AB24083D5218103D5DE
:101E5000018141016F20E04D411193962500AA8533
:101E60002D4506C697200020E780A0F9B240014525
:101E700041018280411126C29394250022C44AC0A8
:101E80002A843289A686AA850146254506C697205A
:101E90000020E78000F7A6864A86A285294597207C
:101EA0000020E78000F6B2402244924402490145F6
:101EB00041018280011122CC06CE3714004026CA8F
:101EC0004AC84EC652C483447405034AB4058349C4
:101ED000840503499405EFF0CFE08347A40593F40C
:101EE000F40F137AFA0F93E71700230DF40493F914
:101EF000F90F1379F90FB717004003C7A705058B32
:101F00006DFF03D5C705A38D4705238C3705A38C2B
:101F10002705A38B9704F2406244D2444249B24958
:101F2000224A0561828041119397050122C406C6A9
:101F3000C1872E8463DD0700EF10906D19C1EF108B
:101F4000706A2165218DB24022444101828093F75D
:101F5000150013C51500E5FB9397250163D0070213
:101F6000EF20D057E13537F60200130606E0896509
:101F700003C54181EF20C02E0965E9B7939715018C
:101F80000145E3D207FC17750000130565FBEF5010
:101F9000505013060064916503C54181EF20402C29
:101FA00011654DB71D71494697750000938585F3FE
:101FB000177500001305C55686CEEF20E01301E922
:101FC00017750000130545F3EF50B04C01A037F72B
:101FD00000E0F9575CC7FD571CCB8566B7E700E00A
:101FE00023A0D7101306701010C3B8434146B0C3E6
:101FF00023A0D718B8C3010001001306C003814510
:102000004808EF20400E97370020938767D43ECAD8
:10201000896793870780231CF100A167938707E0F6
:102020003ECE97070000938767E3BEC49707000082
:10203000938787E4BEC6B5472308F10297070000DF
:10204000938747D43EDA970700009387E7E63EDEA2
:10205000970700009387C7DDBEC0ED47A301F102DB
:10206000B7071F2D9387A710970500009385A5112B
:102070003ED217750000130565E985472304F10278
:102080002EDCEF50D02CB7F5070081467000E1053B
:10209000194597200020E780C0D658088147994607
:1020A00070003E960346060085070507A30AC70091
:1020B000E398D7FED24791C70357810185676373C1
:1020C000F70001A04808EF20C039AA8501C917759B
:1020D00000001305E5E4EF50902701A0F6402561CC
:1020E0008280411117050000130525E406C622C4AD
:1020F000EF20A033138441812300A40025280D2262
:10210000034504002244B24037F60200130606E0FD
:10211000896541016F20C014B7170040130770058F
:102120002380E704130780FA2380E704C8DB23AC8D
:1021300001808280411106C6B71700401307700561
:102140002380E704130780FA2380E70403C7F7021C
:102150001377A70FA387E70203C7F70213672700C8
:10216000A387E702E1311305407E8147014781469D
:1021700005468545EFF0BF87B240014541016F201C
:102180008054011122CC2A84680006CE26CAC936A2
:10219000493A6367A4003305A440F54763EAA70002
:1021A0003245E9360945F2406244D24405618280F5
:1021B00022859D3732455D3E373700408347574083
:1021C00093F70704A1CF938781819843BE840D457F
:1021D00079FB83C7D18491EB938741859C4391E739
:1021E000694597200020E780E0800545693C9C40D8
:1021F0008DC31305D402B707C0A863F7A70037053E
:1022000040571305D5022295013F97100020E78023
:10221000C06F0545EFF06FB1014571B7010079BF9F
:10222000B7170040130770052380E704130780FAEF
:102230002380E70403C7E700136787002387E700CD
:1022400003C7170313670702A388E7022380070465
:1022500037070010B7E700E023A0E71082804111A4
:102260009397050122C406C626C2C1872E8463DE69
:102270000700EF10F03919C1EF10D0362165218D1C
:10228000B240224492444101828093F715008DC3ED
:102290001306803E894503C50184EF10707C1775D5
:1022A0000000130565E9EF50D01E13451400C9BFA7
:1022B00093F72500A5C3EF30700F9384C183973740
:1022C00000202394078283D704009440139787004B
:1022D000A183D98F17370020231AF7808DCA930660
:1022E000F00F1306F00FD145172500201305057FC9
:1022F000EF3060081546894503C50184EF1050761C
:102300009C40FD1723AEF1821345240095BF23881E
:102310000182DDBF93F745000145BDD3EF301009C1
:10232000172500201305857B834705009306F00FD2
:102330001306F00F8507A945172700202300F77A19
:10234000EF30202DAA85177500001305A5E0EF508A
:102350001000EF10903CAA8523AAA18217750000F7
:10236000130585E0EF50A07E1345440011BF79713D
:1023700022D42A8417750000130505E052CC06D636
:1023800026D24AD04ECE56CA5AC85EC662C42E8ADB
:10239000EF50301085472388F1829386018C814766
:1023A00013F7F70F636B470903C7818285476310F3
:1023B000F70A03C7418483C7218C6310F70603C75C
:1023C000518483C7318C631AF70403C7618483C7C0
:1023D000418C6314F70403C7718483C7518C631E57
:1023E000F70203C7818483C7618C6318F70203C7B0
:1023F000918483C7718C6312F70203C7A18483C7DA
:10240000818C631CF70003C7B18483C7918C177557
:1024100000001305E5C26307F70AB250225423886F
:1024200001822387018292540259F249624AD24AB8
:10243000424BB24B224C456182803307F400034685
:1024400007003387F60085072300C70091BF894640
:10245000E315D7FC03C7919DE311F7FC03C7019D6A
:1024600083C7218CE31BF7FA03C7119D83C7318C07
:10247000E315F7FA03C7219D83C7418CE31FF7F8E3
:1024800003C7319D83C7518CE319F7F803C7419DFA
:1024900083C7618CE313F7F803C7519D83C7718C21
:1024A000E31DF7F603C7619D83C7818CE317F7F639
:1024B00003C7719D83C7918CE311F7F61775000070
:1024C000130585B9EF50E07C03C7018C9307A00A80
:1024D000938A018CE313F7F403C7118C930750051B
:1024E000E31DF7F2CD47E3FA47F383D7AA0003C60B
:1024F000C18C17750000130565C913998700A18366
:10250000B367F9001399070113590901931489005E
:10251000458E220683C4D18CD18CA685EF502063D2
:102520002387418383C7F1828149A5C70144938BE7
:10253000418F177C0000130CACC6177B0000130BF7
:102540002BC793172400DE9703C73700A285628547
:102550009319870003C727003367370183C9170022
:102560002207B3E9E9001397890083C90700B3E99B
:10257000E900EF50C05DCE855A85EF50405D83C7BE
:10258000F182639334013E8405041374F40FE3FA7B
:1025900087FA639599022254B25092540259F24933
:1025A000624AD24A424BB24B224C238801821775B1
:1025B0000000130565C145616F50A06D13D78400FD
:1025C00093D6040183C5F1829307000313F6F40F39
:1025D0001377F70F93F6F60F13D584011384418F09
:1025E00063E9B71093972500A2972380C70003C61D
:1025F0000700A381A700177500001305A5C0A380DD
:10260000E7002381D700EF50805483C5F182939770
:102610002500A29703C6170017750000130585C093
:10262000EF50E05283C5F18293972500A29703C62D
:102630002700177500001305E5C0EF50405183C512
:10264000F18293972500A29703C637001775000003
:10265000130545C1EF50A04F9387F18283C7070050
:102660008507A387F18281471726002013060647B6
:10267000B386FA0083C606003307F60085072300F9
:10268000D700E3C747FF03D70A0103C4B1849317F8
:1026900087002183D98FC207C1833E949307C0125C
:1026A00023AEF18283C7D18499EB056613060677C2
:1026B0008545172500200345E54BEF10703A854509
:1026C000172500200345454BEF10302715463306EC
:1026D000C4022254B25092540259F249624AD24A78
:1026E000424BB24B224C03C50184894545616F10B2
:1026F0003037A2879386819B83C547009107238E3D
:10270000B7FE83C51700A38EB7FE83C52700238FAE
:10271000B7FE83C53700A38FB7FEE39FD7FC238C9A
:10272000C19A9305100313F6F40F177500001305F3
:1027300065ADA38CE19A239D219BEF50404103C6D8
:10274000919B93051003177500001305A5ADEF507D
:10275000004003C6A19B93051003177500001305E5
:1027600065AEEF50C03E03C6B19B930510031775CD
:102770000000130525AFEF50803DF5B5411122C48F
:1027800006C683C5F182930700031384418F63E378
:10279000B70A93972500A2971378F50F23800701B6
:1027A00013568501A381C70003C607009356850011
:1027B000135705011377F70F93F6F60F17750000FF
:1027C000130545A42381E700A380D700EF502038EC
:1027D00083C5F18293972500A29703C6170017754A
:1027E0000000130525A4EF50803683C5F18293972E
:1027F0002500A29703C6270017750000130585A4BE
:10280000EF50E03483C5F18293972500A29703C669
:102810003700177500001305E5A4EF504033938788
:10282000F18283C70700B24022448507A387F18263
:1028300041018280A2871387819B83C6470091074D
:10284000238ED7FE83C61700A38ED7FE83C627002C
:10285000238FD7FE83C63700A38FD7FEE31FF7FC75
:102860001376F50F23ACA19A93051003177500009A
:1028700013054599EF50A02D03C6919B93051003B6
:10288000177500001305059AEF50602C03C6A19B35
:1028900093051003177500001305C59AEF50202B00
:1028A0002244B24003C6B19B930510031775000084
:1028B0001305459B41016F50802993F715006380F4
:1028C0000716411122C411652E84814506C626C211
:1028D000EFF0AFA6EF10A00023A0A182931745014F
:1028E00063D4071283C7D1826390071285451725E9
:1028F000002003456528EF105004EF10006223AA62
:10290000A182AD3D95679387A75A1727002023170B
:10291000F71C054783C7818293844183639AE70C40
:102920009387418403C70700972600202389E61A6E
:1029300003C7170097260020A383E61A03C72700C2
:1029400097260020238EE61803C73700972600201D
:10295000A388E61803C74700972600202383E618BC
:1029600003C7570097260020A38DE61603C767000C
:10297000972600202388E61683C7770017270020B4
:10298000A302F71683D7040013978700A1835D8FF6
:102990009C4093D68701C183172600202305D614B7
:1029A00097260020A381F61497270020239EE71284
:1029B0009307C01223AEF1821546894503C50184F1
:1029C000EF10100A03C7D1848547631CF700056622
:1029D000130606778545172500200345A519EF1036
:1029E000300813451400B2402244924441018280D1
:1029F0008946E393D7FC83C6919D9387019DE3832A
:102A0000E6F223AE01824DBF03C7D1848547E31AA6
:102A1000F7FC83C7D182F1F71306803E65BF0145FD
:102A20008280011126CAAA841765000013058564F7
:102A300006CE22CC2E84EF50C025A285176500005B
:102A400013050565EF50A01081479386018C13F79D
:102A5000F70F636D870803C7818289476310F710FA
:102A600003C7018C9307A00A631AF70E03C7118CE2
:102A7000930750056314F70ECD4763F1870E83C7A4
:102A8000318D0547639EE706B727004003C707401F
:102A9000176500001305C5581377B70F2380E7406B
:102AA0001307C05D23A8E74003C70740136747002B
:102AB0002380E740EF50E01D1387018CBA868147E1
:102AC0009385019D21463385B7000348050003C562
:102AD0002600631DA80485078506E396C7FE1765D3
:102AE00000001305255CEF50C01A8DA83387F40051
:102AF000034607003387F60085072300C70081BF20
:102B0000C5FFB727004003C707401765000013053E
:102B100065521377B70F2380E74023A8074003C708
:102B20000740136747002380E74069B78147A14604
:102B30008345270050003E962300B6008507050711
:102B4000E398D7FE9387018C83C7270148002306AB
:102B5000F1008547A306F100EF108008F2406244BF
:102B6000D24405618280797122D44AD006D626D219
:102B70004ECE8D472A8932846300F50A9147630659
:102B8000F50E89476315F5022EC6EF302002B245D7
:102B9000854717650000130525526388F500639586
:102BA0002503176500001305E551EF50800E2254F0
:102BB000B2509254F249CA850259176500001305B4
:102BC000A55545616F40B078830504001765000086
:102BD000130585508144EF409077834514001765B5
:102BE00000001305A550976900009389A950EF4094
:102BF00010768347140063E6F4002945EF403079EE
:102C00007DB7B307940083C527004E858504EF4048
:102C1000107493F4F40FF1BF854717650000130596
:102C2000A5496389F50089476397F5041765000096
:102C300013054549EF50E005EF10202E23AAA1828D
:102C4000AA851765000013052552EF40507083C711
:102C5000D182B5EB8345140013052400EFF02FF16A
:102C600003C7D1828547E314F7F4914503C5018476
:102C7000EF10A04C2DBF830506001765000013055B
:102C8000A5478144EF40B06C8345140017650000F0
:102C90001305C547976900009389C945EF40306B1C
:102CA0008347140063E6F4002945EF40506E69B78E
:102CB000B307940083C527004E858504EF40306933
:102CC00093F4F40FF1BF0547E393E7EE8345140057
:102CD00013052400B93369B77971130600028145E1
:102CE0000A8506D6EF10204017F5FFFF130565573C
:102CF000EF10A0732380A184B74776719387971252
:102D00003EC4B7575500938757553EC6B767250051
:102D1000938707253EC28567938707842310F100B8
:102D200097070000938767E43EC80A85ED57230E96
:102D3000F100EF20A051AA85176500001305853E1C
:102D4000EF40F060170500001305053FEF10E06D40
:102D5000854597270020A38FA7E0EF10003E1705B9
:102D600000001305C5B5EF10406CB2509727002046
:102D70002382A7E04561828083C7D182F9E34111B4
:102D800022C4054406C623888182EF20306237D5ED
:102D9000250013050578EF30A01281451765000066
:102DA0001305454EEF40B05A23880182A3868182E5
:102DB000EF20D05F9306F00F1306F00FA9451725FB
:102DC00000201305A5D1EF20D004AA8517650000C7
:102DD00013054538EF40B0578D4513050040EFE02F
:102DE000DFD5371700408327C70A93E7074023261C
:102DF000F70A03C7818289476311F704B7270040A8
:102E000003C707401377B70F2380E7400567130711
:102E100087BB23A6E74003C707401377B70F23807C
:102E2000E7401307C05D23A8E74003C707401367C7
:102E300047002380E740A3868184B24022444101B9
:102E40008280828041118945056506C6EFE0FFCE8C
:102E500089450965EFE07FCE8D47A38EF180EF00B5
:102E60001028AA8523A0A182176500001305850DEF
:102E7000EF40F04D83C5D182176500001305050EA4
:102E8000EF40F04C938701829843856783C6818227
:102E9000F98F8DC705466383C6029315270163C367
:102EA0000502176500001305E50C2384C182EF407D
:102EB000505EEF20B04F03C5C184A1A013162701B7
:102EC000635C060409476382E606B9E717650000FC
:102ED0001305850B2384E182EF40B05BEF20104D9A
:102EE00003C7919D85476317F70A83C5819D1765C1
:102EF00000001305E50AEF409045EF20304B03C575
:102F0000819D9307007D3305F502B7A724009387C1
:102F1000076D3E95EF20D07A83C7818299E71765C8
:102F200000001305A50BEF40D056EF00F01B23A2C5
:102F3000A182AA85176500001305050CEF403041FA
:102F4000938741829C4393F70708D1E783C7D182D7
:102F500003C70183D98F8DE79387C1839C438DE39A
:102F6000176500001305450AEF40B05283C7A182E0
:102F7000850793F7F70F1947636DF7022385F182F1
:102F800081450565EFE07FBBB240814509654101A0
:102F90006FE0BFBA176500001305C501EF40704F21
:102FA00083C5C1841765000013054502EF40303A20
:102FB00009B723850182C93323860182930780FCE8
:102FC0007946A145172500200345D5BAA385F1828E
:102FD000EF10002975B7238501825DB71567972724
:102FE00000209387A7AF1307A75A2390E700138702
:102FF000418483460700A389A7002381D700834625
:103000001700A381D700834627002382D700834679
:103010003700A382D700834647002383D700834627
:103020005700A383D70083466700034777002395A3
:1030300007002384D700A384E7001387C1840347D4
:10304000070023A60700239807002389E700828052
:1030500083C7B182850793F7F70F1307C003636532
:10306000F700A385F18282804111A385018206C603
:1030700083C7C182B5E78546A386D184B7270040C0
:1030800003C7074005451377B70F2380E74005675F
:10309000130787BB23A6E74003C707401377B70F83
:1030A0002380E7401307C05D23A8E74003C707401C
:1030B000136747002380E7402386D1820537D14735
:1030C0001546894503C5018423AEF182EF104019EE
:1030D00017650000130545F4B24041016F40703B95
:1030E00005476394E704B727004003C7074001453D
:1030F0001377B70F2380E74023A8074003C7074093
:10310000136747002380E74023860182C13DD147F2
:103110001546894503C5018423AEF182EF104014A2
:1031200017650000130585F045BFB2402386018274
:1031300041018280411122C406C626C24AC093F7CB
:1031400015002E846382071E83C7C181854603C78D
:10315000D18463EDF614631107168507238EF18081
:10316000EF00E07723A0A182AA8517650000130570
:10317000E512EF40D01D938701829C4313974701CE
:10318000635A071483C7D1846396071483C7518099
:103190000949638127158545172500200345C59DED
:1031A000EF00B07985471306C0129145172500201E
:1031B0000345559C2388F182EF10800AEF00F055FB
:1031C00023AAA182EFF08FDB95679387A75A172771
:1031D00000202315F790054783C78182938441839C
:1031E000639FE70C9387418403C70700972600205D
:1031F0002387E68E03C7170097260020A381E68E5B
:1032000003C7270097260020238CE68C03C73700CE
:1032100097260020A386E68C03C747009726002048
:103220002381E68C03C7570097260020A38BE68AEC
:1032300003C76700972600202386E68A83C77700A6
:1032400017270020A300F78A83D70400139787006D
:10325000A1835D8F9C4093D68701C18317260020F0
:103260002303D68897260020A38FF6869727002071
:10327000239CE7869307C01223AEF18205661306EE
:1032800006778545172500200345C58EEF00507D44
:103290001546894503C50184EF00907C1345140051
:1032A000B2402244924402494101828011E7238EB8
:1032B0000180EF0000646DB5238E018055B5E39F5A
:1032C00027FB83C6919D9387019DE38FE6F023AE94
:1032D00001826DB7EF20900D03C7518089476304C9
:1032E000F702A9459306F00F1306F00F17150020FB
:1032F0001305C57EEF20E031AA8517650000130590
:1033000065E5EF40D00483C70183172500200345FE
:10331000758699E783C7D18181C765468945ADBF69
:103320001306C01291458DBF93F72500D1C3EF203E
:10333000F007EFF03FB1176500001305E5F6EF4029
:10334000501583C68182094783C7D182639CE602F8
:1033500083C6919D05476387E6028DE713068025A6
:103360008945172500200345F580EF00706F37175A
:1033700000408327870AA166D58F2324F70A1345C7
:10338000240039BF03C7018319EF03C7D18101CFDF
:10339000FDF7130680258545171500200345957D0B
:1033A000EF00106CE9BFE1FF1306C0129145EDB7C5
:1033B00093F74500BDC7EFF0FFA883C7D184171569
:1033C00000200345357B03C7D1829DEB83C7D181A4
:1033D00085CB83C79182850793F7F70FA384F1828A
:1033E000954663F1F60223880182A384018215E7E2
:1033F000130680258545EF00B066134544004DB5A2
:10340000A384018283C7018381E783C7D181E5F368
:1034100009E71306C0129145F9BF13060002A14542
:10342000D9BF13F485000145E30C04E6752923A2F6
:10343000A182137505084DE183C781820547639416
:10344000E70217650000130565E7EF4090040931B6
:1034500013060002A145171500200345B571EF00C2
:103460003060014535BD0947E394E7FE93878183CA
:103470009C43850723ACF1821307401FE39AE7FCC6
:10348000EF008067EF00B002EF20407203C5C184F7
:103490009307007D3305F502B7A724009387076DD6
:1034A0003E95EF20F021B727004003C70740A166F3
:1034B0001377B70F2380E74023A8074003C70740CF
:1034C000136747002380E740371700408327870AA8
:1034D000D58F2324F70AADBF23AC0182A3860182D6
:1034E000372700408347074089451305004093F77D
:1034F000B70F2300F740371700408327C70A05445A
:1035000093E707402326F70AEFE02FE31765000053
:10351000130545DCEF40E077A386018483C78182F1
:10352000639F870083C5C18417650000130505DC10
:10353000EF40E061EF20806703C5C18435A00947F3
:10354000639FE702EF20806683C7919D639D87029A
:1035500083C5819D17650000130585A4EF40205F9A
:10356000EF20C06403C5819D9307007D3305F502FC
:10357000B7A724009387076D3E95EF2070141306BC
:1035800080258545C9BD176500001305A5A2EF403C
:10359000407083C5C18417650000130525A349BF8A
:1035A000411122C406C693F715002E84B5C383C704
:1035B000D1829DEF03C7818289476317F70003C754
:1035C000919D85476316F70283C7D18485EB371732
:1035D00000408327870AA16613060014D58F232491
:1035E000F70AA145171500200345E558EF0050479D
:1035F00013451400B2402244410182808547116680
:10360000A386F184130606E8894503C54180F9BF06
:1036100093F725000145F9DF83C7D1829DE703C7F2
:10362000D18485476316F702371700408327870A3E
:10363000A16613060014D58F2324F70AC145171578
:10364000002003454553EF00B041134524005DB70A
:10365000A3860184DDBF411122C406C693F715007D
:103660002E84B9CB93864185138701859C421843EC
:1036700063FEE702BD0723AAF184B727004003C712
:103680000740294685451377B70F2380E7409842C6
:1036900023A8E74003C70740136747002380E7409C
:1036A000171500200345354DEF00903B13451400DE
:1036B000B24022444101828093F72500D1CF938705
:1036C00041859443854503C6D1843E8763F7D5047D
:1036D00031E23D4685476374D600938716FF23AADF
:1036E000F184B727004083C607402946894593F6F1
:1036F000B60F2380D740184323A8E74003C70740ED
:10370000136747002380E740171500200345B5469F
:10371000EF0010351345240061BF6DFE23AA01841C
:10372000372700408347074089451305004093F73A
:10373000B70F2300F740371700408327C70A93E7E6
:1037400007402326F70AEFE04FBF17650000130577
:10375000A5D7EF4000547DBF93F745000145A9DB95
:10376000938701859043938641859842935716002D
:103770006373F70463E9C7043D0723AAE184B7270D
:10378000004003C70740294685451377B70F2380BC
:10379000E740984223A8E74003C707401367470064
:1037A0002380E740171500200345F53CEF00502B20
:1037B00013454400F5BDE3FDE7FE1386F70063748F
:1037C000E600930717FF23AAF18455BF371700407F
:1037D0008327C70A411106C693E707402326F70A45
:1037E0008D4513050040EFE04FB581450145EFE001
:1037F0004FDC0567B7270040130787BB23A6E740C8
:1038000083C607400D46854593F6B60F2380D74003
:1038100023A8074083C6074093E646002380D7408D
:10382000B24023A8E18423AA018417150020034590
:10383000953441016F00D022938741859C4389CB09
:103840000D468945171500200345F5326F005021BC
:10385000411106C637270040834707401305004043
:10386000894593F7B70F2300F740371700408327A8
:10387000C70A93E707402326F70AEFE00FACB240F0
:1038800017650000130505A541016F4080400565DF
:10389000411189451305058006C6EFE00FAA814551
:1038A0000565EFE08FA981450965EFE00FA9814526
:1038B0001165EFE08FA8854513050008EFE04FB2D2
:1038C0008D452165EFE06FA7371700408327C70AB2
:1038D000B240A166D58F2326F70A41018280B7172F
:1038E000004003A5470A8280B717004003A5470C94
:1038F0008280011117650000130585A106CE22CC38
:1039000026CA4AC84EC652C4EF40A0388145116548
:10391000EFE0AFA289450145EFD07FBAEFD0FFB00D
:10392000AA852A8A17650000130585A0EF4020228A
:103930001384C19BB71700401147238CE704938978
:10394000019D2289A284EFD05FBC52956345050892
:103950002320A9001109E39829FFB7170040A38C81
:103960000704176900001309E99F0C404A851104F8
:10397000EF40E01DE31B34FFDC40804095451765B8
:1039800000001305A59E3E949C443E94DC443E9466
:103990009C483E94B345B402EF40601B9167138787
:1039A000F7E7634D87028947A382F180371700400C
:1039B0008327870AA166176500001305E59CD58F4C
:1039C0002324F70A6244F240D2444249B249224ACF
:1039D00005616F40002C23200900ADBF9387870746
:1039E00063D287028547A382F1803717004083277F
:1039F000C70AA166176500001305C59CD58F23264D
:103A0000F70AC9B7F2406244D2444249B249224A55
:103A100005618280411122C406C693F715002E84E9
:103A200091CFC13D17650000130585A5EF406026C5
:103A300013451400B24022444101828093F72500CF
:103A400095C3371700408327870AA16617650000D2
:103A5000130585A4D58F2324F70AEF40802313454F
:103A60002400C9BF93F7450095C33717004083274B
:103A7000C70AA16617650000130585A3D58F232605
:103A8000F70AEF400021134544006DB793F7850016
:103A900085CF83C7D18499EB153B1306006491450C
:103AA000171500200345250DEF00807B1166854723
:103AB000130606E8894503C54180A386F184EF001B
:103AC000207A13458400BDB793F705010145BDD3A6
:103AD00003C7D1848547631CF700B93B1306006414
:103AE00091451715002003450509EF006077A3866F
:103AF0000184134504013DBF41118145856601469E
:103B0000254506C697000020E780A02FB240937598
:103B1000F50F176500001305E58F41016F40200385
:103B2000011181461386418481451D4506CE22CC74
:103B300026CA4AC84EC697000020E780802C176529
:103B4000000013052592EF40C0140144938941847D
:103B5000176900001309498DA144B387890083C503
:103B600007004A850504EF30907EE31894FE624416
:103B7000F240D2444249B24917650000130505904E
:103B800005616F400011411106C622C4513F938761
:103B9000418403C4070003C717001765000013051D
:103BA0006586229703C42700229703C437003A94FE
:103BB00003C747003A9403C75700229703C467001E
:103BC000229703C47700930760023A943374F40297
:103BD000A285EF30D0772285B24022444101828015
:103BE000797106D622D426D24AD04ECE81472947B3
:103BF0005400BE96238006008507E39BE7FE8147BD
:103C000029473306F500034606005400BE9623807C
:103C1000C6008507E397E7FE856601468145254591
:103C200097000020E780E01D9375F50F1755000001
:103C30001305457EEF30B071A946500081452945F6
:103C400097000020E780E01B9375F50F17550000E3
:103C50001305057EEF30B06FA9461386019D81459F
:103C60002D4597000020E780C01917550000130567
:103C7000657DEF40000201449389019D17590000C2
:103C80001309897AA944B387890083C507004A8547
:103C90000504EF30D06BE31894FE2945EF30306F08
:103CA000B250225492540259F24945618280011166
:103CB000A9461386019D81452D4506CE22CC26CAF4
:103CC0004AC84EC697000020E780A0131755000091
:103CD00013054577EF30F07B01449389019D175917
:103CE000000013096974A944B387890083C50700DC
:103CF0004A850504EF30B065E31894FE2945EF309E
:103D0000106903C7919D8547175500001305C57CB1
:103D10006306F700175500001305057E6244F24064
:103D2000D2444249B24905616F30B0764111054530
:103D300006C6EFD05FF51305800497000020E780EA
:103D4000A0E485457D55EFD05FDF85457D55EFD0FB
:103D50003FE9371700408327870A8D451305002068
:103D600093E707202324F70AEFD03FDDEFE0EF8849
:103D7000EFF09FAC175500001305057AEF30707116
:103D8000175500001305C579EF30B070513BE53B86
:103D90002386A184293FEFF09FAFEFE0AFA0EFE0D3
:103DA0004FB4EF200017EFE03FF317F5FFFF1305C7
:103DB000657FA52D2382A180170500001305C5C5C9
:103DC000AD25971700202388A7DA170500001305F3
:103DD000C588A12D97170020A38FA7D89700002092
:103DE000E780E0F51DC18346E5FF1307F00F91471B
:103DF000639EE600411106C697100020E780E0C3ED
:103E0000B24081473E854101828095473E85828050
:103E1000138781851C43411122C426C24AC006C6AD
:103E200001440149BA8489E7A165D9210DC401A8DB
:103E300003C7E7FF6318A7021DC8A165FD2C9840C2
:103E4000832784FF6317E40223ACF184FD57232CFE
:103E500004FE230FF4FE2285B2402244924402491C
:103E60004101828011E03E8983A787FF6DBF3E84B8
:103E7000E5BF232CF9FED9BF23AC01848280938750
:103E800001879C4399E33E85828003D72700631610
:103E9000B70003C70700E308A7FEDC47E5B74111F9
:103EA000939705014AC006C622C426C2C1872E893F
:103EB00063DE0700B13F11C1353721653345A900E5
:103EC000B24022449244024941018280AA860145BF
:103ED000E5D901443D47B3578940858B95CB9387FE
:103EE00041868443BD4791E28147A2978E070545ED
:103EF000BE9433158500131405019C40C8404180D1
:103F0000829723A0040023A20400334524014DBF5F
:103F10000504E312E4FC0144CDBF972700209387FA
:103F200027639C53411122C406C61384818095C720
:103F3000829723A4A1800840B74703009387D73F07
:103F40003305F502B7A72600938737ECB240224429
:103F50003E9523A4A180410182809727002093876A
:103F6000E76218409C4BBA9723A4F180E9B7938786
:103F7000C18590439726002083C65661814713F779
:103F8000F70F6360D70A172700200347976491470C
:103F900063E0E70A9727002083C74768918BC9EB46
:103FA0000111680006CE22CC26CAEF007003FD5630
:103FB000630FD50C32479727002083C7975A63F3C6
:103FC000E70C172700201307675C404717270020DE
:103FD000034747596305D406058B21CF5147330466
:103FE000E40263F1870A97000020E780803BB24734
:103FF0006373F400A2871727002003479756998F11
:104000003E95972700209387A7548387470163CD68
:104010000702B707C0A86369F502B70740573E9586
:1040200025A085071397170032970357E7FF21DB79
:104030008280130790023304E40205805DB76207B3
:104040006187635707001D8D19E93705C0A801A8CE
:10405000E37BF5FE3707C0A8B307F7403E959727E7
:1040600000209387E74EDC53829709ED97270020C5
:104070009387C7559C4F99C7EF00F014EF00105A73
:10408000EF00D008F2406244D24405618280972755
:1040900000209387A74FDC47E386A7FE1727002061
:1040A0001307074B83464701BA84858A9DC651444E
:1040B000338487029727002083C7B74AE3F487FC3D
:1040C00097000020E780E02D9727002083C77749DD
:1040D0001D8C2295838744011DBF130490023384F5
:1040E00087020580C1BF2A9609E582800505A30FD6
:1040F000B5FEE31DC5FED5BF81476314F600054537
:1041000082803307F5008507B386F5000347070073
:1041100083C6F6FFE383E6FE01458280814711E90D
:10412000014582803307F50003470700E31AB7FE15
:104130008507E319F6FE054582809727002083C78F
:10414000F744637FF5001387C18593171500084373
:104150003E9583570500DD8D2310B5000145828013
:104160000D458280FD570111172700202326F742B5
:104170009387018722CC80434EC6972900209389DC
:10418000293D26CA4AC852C456C206CE5AC02A89F8
:1041900081444E8A972A0020938A4A3F18448147D7
:1041A0006374E900B307274103A749021CC409CB84
:1041B00003A7CA0063F6E70017270020232EF73C69
:1041C000A1E7835524009DE95C44A1E823A8F1867A
:1041D000032BC400228597100020E78000865A84B4
:1041E00055FC83274A0285CF6244F240D2444249BB
:1041F000B249224A924A024B056195BB034504002D
:104200002D3F5C4081CB1CC483572400D5DFA284A2
:104210004044F9B71C44CDDBC5BFDCC455BFF240F8
:104220006244D2444249B249224A924A024B056151
:1042300082809727002083C777356371F502138743
:10424000C18593171500084393C5F5FF3E95835725
:104250000500FD8D2310B500014582800D4582804B
:104260009727002083C797326364F5000145828059
:10427000411122C426C24AC006C62A842E89B284AD
:10428000EFF0FFBF01C504C505452DA0936504F0FF
:10429000C205C181414597000020E78060700DE1B3
:1042A000972700209387C72A9C5B81C7A285114569
:1042B00082970145B24022449244024941018280E2
:1042C000938701879C438DE323A8A18685472326F6
:1042D000050004C52311250123008500A300F50076
:1042E0002322050055B7BA87D84775FFC8C7F9BF5D
:1042F000411122C426C24AC006C6AA842E89EFF004
:104300001FB82A8419C1231105009727002083C7ED
:10431000E7276394970023942187CA852685113F58
:10432000014511E01945B24022449244024941013D
:1043300082802390A1862391B1868280411106C696
:1043400023A6A1860295B2409727002023AAA7247E
:10435000014541018280994763E9B7008A059727A3
:1043600000209387E724BE9588C18280411106C64C
:1043700022C426C2EF20504C7146814517250020EB
:10438000130505238D33172400201304242013065E
:10439000400222858145813B23A8018623A6018610
:1043A0009727002083C7871C13D527008D8B3E9548
:1043B0008D473305F5029947930510109384418783
:1043C00035051375F50F2301A4003305F502130518
:1043D000050F97000020E780A05C23A2A1868347F9
:1043E00024001305050F88C08A073E9523AEA184DB
:1043F000EFF09FA8052E8347140098401706000091
:10440000130626AA93962700BA9690C29386270091
:10441000850793F7F70FA300D400B24022448A0720
:10442000BA9790C39244410182809727002083C7A6
:10443000F715172700200347871563F1E702138755
:10444000418718439386170017260020A300D6142F
:1044500093962700369708C33E8582809307F00F16
:10446000E5BF1C416380071A41777D8FB7060020A6
:104470008947631AD7180357450063060718411187
:1044800026C21946AA849305F00F590506C622C410
:10449000EFF0DFC805478D476300E51617240020BD
:1044A0001304040B1C4481CB585899476316071416
:1044B000185C631307141306C003814517250020F9
:1044C00013050509EFF03FC21306C003A6851725A3
:1044D00000201305E50797000020E78060C79727B5
:1044E000002083D7A70799E793070010172700201C
:1044F0002316F7069727002083C7670691E78547AD
:1045000017270020230DF7049727002083C73705BE
:1045100091E7ED4717270020A303F7049727002012
:1045200083C7070491E7954717270020230AF7025E
:104530009727002083C7D70291E7854717270020D8
:10454000A300F7029727002083C7D70199E7834785
:10455000040117270020A307F7009727002083C72F
:10456000470091E7D14717270020230CF7FE972734
:10457000002083C7C7FF95E717270020034787FE62
:1045800093168701E1869307C00263C806009377FC
:10459000170093B717009387D70217270020230827
:1045A000F7FC9727002083C7D7FB95E71727002044
:1045B000034747FB93168701E1869307C00263C850
:1045C00006009377170093B717009387D702172732
:1045D0000020A308F7F883C7D40191E7894717277C
:1045E0000020A305F7F81C5491C782979727002055
:1045F0002391A7FAA53B8147B240224492443E85CD
:104600004101828089473E858280972700209387D9
:1046100027F4985739CF411122C426C206C6BE845A
:104620000297172700200357C7F62A8451C3BA8779
:104630006373A700AA87C207C183BA866373E400C5
:10464000A286C206C182958F51476353F706DC5498
:1046500091C38297854717270020230DF7F6BD2DBC
:1046600097270020239787F2B240224492444101C9
:1046700082809727002083C7E7F595E797270020DA
:104680009387C7F483C79700850793F7F70F17271A
:104690000020A301F7F4A18B95C7854717270020B9
:1046A000231AF7F261AD97270020A38507F2DDBF3B
:1046B0009727002083C707F2C5DB2244B24092440B
:1046C0004101CDB7828097270020938767E8D857AC
:1046D000011122CC06CE3E8401C72AC6029732457C
:1046E00011CD23ACA18617050020130505CDEFF0F1
:1046F000FFC4F240624401450561828083074401A2
:1047000063DD07009727002023AE07E89707002006
:10471000938747C523ACF186F9B7970700209387A5
:1047200047C8CDBF011122CC17240020130444E256
:10473000084406CE26CA4AC801E90545F24062444B
:10474000D2444249056182805C58E5DB185C75D72C
:104750007000854582971844B247E300F7FE930541
:10476000E00417250020035565DF97000020E7804F
:104770002023172700202329A7E261D11726002034
:104780000356C6DD9305F00FEFF0FF95814417291E
:1047900000201309A9DF9727002083C747DC0326E1
:1047A000C90163C1F402328597000020E780E02848
:1047B00001459727002023A907DE9727002023A77C
:1047C00007DEADBF9725002083D545D9B387950275
:1047D0000844185C898185043E9508C2029765BF2C
:1047E0009727002083C7B7DA63800712411126C2DA
:1047F00006C6AA8422C44AC07D55CDC8972700208A
:10480000938747E2B8475DC317290020130949D4AD
:10481000030549019725002083C555D585057D549D
:104820000548B708C0A8130E000C834677008327FD
:104830000708639906050353070783560703637D3B
:10484000D3060346D700631906070326070F2DE694
:104850000326470935E20346F700631FC605705F6C
:10486000B386664079163306D60283264708B356C8
:10487000D602B297AE96C206C182231BD7066350FA
:104880000504958F63F387003E84184359FF93878F
:1048900081879C4382976368A402B307A4409CC0AD
:1048A0009C4035476361F70423A00400B2402244D2
:1048B000924402494101828083566707C9B7E3F2F7
:1048C000D7FCC6977DBFB307854063DB070083072E
:1048D0004901E3C407FCB707C0A8A297898FC1B7F5
:1048E00023A0040075BFCD179CC08307490163D581
:1048F0000700130534FF5DBFB147E3EC87FE3705C2
:10490000C0A84D1522955DB77D558280938601889C
:1049100090429727002083C7C7C4139787000C4293
:1049200093F7F703A2074D8FB78500014D8F18C28B
:104930001842F1759385F50F6D8FD98F1CC237170B
:104940000040930770052300F704930780FA2300C3
:10495000F7040100010017260020034686C0D14756
:1049600063FBC7048357270293E707012311F7026C
:104970009C424567130787E7D8D7984FA166558FA4
:1049800098CF984FE1769386F607758F8D6693865C
:104990000650558F98CF13072015D8DB97070020B6
:1049A000938767A8B20737070014B183D98F37E719
:1049B00000E07CD7828083572702C207C183BD9B5A
:1049C000C207C18365B717270020130727C0938745
:1049D00041889C43544B184F096694CBD4CB98CF55
:1049E000D8CF9447D18E94C7D847518FD8C7944712
:1049F0000566D18E94C7D847518FD8C7984313679F
:104A0000270098C398431367070298C3828093874F
:104A1000C1889C4399CBD44390479842518F98C208
:104A2000D447DC4B9842D98F9CC217030020670003
:104A300003BB9387C1889C4399CB944BD04B98423E
:104A4000518F98C294439C479842D98F9CC29387B8
:104A500001899C43094798C317030020670023B8C6
:104A60009727002083C737B78DE717270020034714
:104A700057B69307B7FF93F7F70F894663EBF60036
:104A8000972700202389E7B4854717270020A30430
:104A9000F7B48280138701891C4394438D8A85C2B1
:104AA000B44BE19AB4CB944393E6860094C39C4301
:104AB0008D83858B89C701000100010001001C4323
:104AC00023A807049387C1889C4399CBD44390477C
:104AD0009842518F98C2944BDC4B9842D98F9CC21C
:104AE00097270020A38707AE8280938601899C4286
:104AF00098430D8B05C3B84B619BB8CB98431367A4
:104B0000870098C39C438D83858B89C70100010072
:104B100001000100938701889C4337080010D85793
:104B2000719B13672700D8D798433367070198C351
:104B3000984F370800F97D183377070137080002CE
:104B40003367070198CF984F137737F813678701BA
:104B500098CF13878189032807000327C802759B14
:104B60002326E8021377F6079043137606F8598E4A
:104B700090C388C7CCC397270020238907A4972711
:104B80000020A38707A4984297270020238207A428
:104B9000FD475CC39387C1889C4399CB904BCC4B1A
:104BA0001442CD8E14C290439C471442D58F1CC230
:104BB00085679387870B9726002023AFF6A085474C
:104BC0001CC3930790053CCB82804111972700209E
:104BD000A38307A022C406C626C2172400200344CC
:104BE000849F95476318F40697270020938787A32F
:104BF000985F3E8483467700A9CA03465700B7559D
:104C0000550037C5898E93855555130565EDF13DE2
:104C10009726002083C6F69B9387A6FF93F7F70F8E
:104C20000547636AF700972700202386D79A9727BE
:104C30000020A382E79A954717270020A30BF79837
:104C40001C5C130710FA2383E700B240224492440D
:104C5000410182809947631DF402972400209384C8
:104C6000649CBC4003C777006DD303C65700B7559B
:104C7000550037C5898E93855555130565EDB535B6
:104C800097270020A3878794BC40130710FB65BFBC
:104C90009D47E31CF4FA9727002083C7E794858B90
:104CA00017260020034676969726002083C6E695B1
:104CB0009DC39727002093872795C84309CD834537
:104CC00015000905EF00F01449D18547172700208A
:104CD000A303F7909DBF81450145EDB797270020BD
:104CE0009387C78E9C4FB1CB411106C622C4EFF00B
:104CF0009FCD138401891D22EF10A030EFF01FC15A
:104D00001C401307D005B8CBEF102063EF20C03153
:104D1000EF102046EF10A04D854717270020230BEA
:104D2000F78A1C4023A80704253BB240224497275A
:104D30000020A380078A410182808280411122C421
:104D400017240020130484881C4C06C626C28DCB71
:104D5000938401899C401307D005B8CBEF102049FC
:104D60009C4023A807048347840085071727002059
:104D70002302F786EFF0DFCE97270020A38B07846E
:104D8000B240224492444101828023A60188B7C7E1
:104D9000004023A2F1881387073023AEE1861387F2
:104DA000072023A8E1889387071037D7004023AC5A
:104DB000E18823A0F1880547411197270020A38AA5
:104DC000E78022C417140020130484781C4006C610
:104DD0009726002023A6F6809387071197260020A8
:104DE00023A2F680971700202386E77EC53D37E78C
:104DF00000E0B70710002320F710B706200023209B
:104E0000D71003074401635707001387018918432C
:104E1000FD177CD3B24022444101828093870189EF
:104E20009C43930600052947D4CBD8CF9305C008EF
:104E3000CCD31306C003D0D7CCDBD0DFF4C3F8C784
:104E40001307600FB8CF316713073730D8C79707FC
:104E5000002093874792370700F07D8FB7E600E088
:104E6000B207F8C2B18337070015D98FBCD682804C
:104E7000938701889C43B70600F9FD16984F758FFC
:104E8000B7060004558F98CF984F137737F81367FC
:104E9000C70198CF138781891443F5CD37B7240014
:104EA0001307F7E96361A7089843137707F81367B7
:104EB000570298C305476394E500130585C1D8568A
:104EC000370810FE7D1813672700D8D641671307EF
:104ED00007A03356E5023377E5021305A00F7D8A5C
:104EE00093154601F042337606014D8EF0C2F04232
:104EF000B705FCFF6D8E2A073357A7023A0739839F
:104F0000518FF8C2171700200347076E098B19CB82
:104F100098431377F707936607049843137707F8C6
:104F2000558F98C38280370725001306F7486363BF
:104F3000A6023767DBFF130707932A971306007D46
:104F40003357C7027D1790431377F707137606F898
:104F5000518F85B7130707496318E5009843137706
:104F600007F813676702B1B737D725001307F7773C
:104F7000636DA7003767DBFF130707932A971306B4
:104F8000007D3357C70279177DBF9843137707F821
:104F90001367770239BFD856759BD8D61377F507B4
:104FA0008843137505F8498F98C3A9BF93878187F4
:104FB0009C43011122CC4EC606CE26CA4AC852C412
:104FC00056C28297971700209387076480478149CC
:104FD0006308A406BE84971700209387675703874A
:104FE00047013E8963580706018D135455009717F2
:104FF000002083C707619379F5016360F404370AE1
:10500000C0A8B70A405797000020E780808E9C44D4
:105010009716002083C6E65E139756003E978307D7
:105020004901158C63C507006363470156979717BD
:10503000002023AFE75CE378D4FC1604B3693401A5
:10504000F24062444E85D2444249B249224A924AD1
:1050500005618280E37A85F8B707C0A8338487406A
:10506000229561B7938781879C43411122C406C66C
:1050700026C28297971700209387075980476309B4
:10508000A406BE84971700209387874C8387470127
:1050900063D80704018D135455009717002083C768
:1050A00047566367F40497000020E78080849844A3
:1050B0009717002083C7E7549396570036971D8CA7
:1050C0009716002023A6E654E37FF4FC2244B24066
:1050D000924417150020034535518145410149BBD4
:1050E000E37A85FAB707C0A833848740229565B76D
:1050F000B2402244924441018280411106C6971772
:105100000020238E0750EFF0FF9801458145EFF016
:105110008FA4B240014541018280011126CA971433
:1051200000209384644C83C7040022CC06CE4AC876
:10513000858B17140020130464496385070E834789
:105140002400858BE1C79717002023820748EFF0E2
:105150001F8C65379C4801468145054582978347EA
:1051600034002689858BC1C7084C97170020A3807F
:10517000074681451306F10097170020238A07444C
:1051800097F0FF1FE7808056AA850DE11C4C93061F
:10519000F00F03C70700630BD7009717002083C7E2
:1051A000B7466385D7006303F70089458307090085
:1051B00063C707001C4C0347F1002380E7008327E7
:1051C0000901104C094582979717002083C70745AE
:1051D000898B81CB85451715002003456544EFE099
:1051E000DFF5F2406244D2444249056182809387F0
:1051F00001899C43BC53F5F797170020238A073C8D
:105200009C480146814549458297E1BFFD35EFF055
:10521000CFBF97170020238D073A9C480146814550
:105220004545DDB783473400858B99CFF93597170E
:105230000020A38E073897170020238B07389C483F
:10524000014681450545C9B74D3DE1B71C4963821B
:105250000712411122C406C6834705002A8493F72A
:10526000070489C75C4109456381071013060002E2
:1052700081451715002013052537EFE0DFE6A285ED
:1052800013060002171500201305053697F0FF1FBF
:10529000E78000EC17140020130404355C4891E704
:1052A000FD5717170020232BF7349717002083C7CB
:1052B000373599E79307800217170020A302F734C8
:1052C0009717002083C7E73391E7A14717170020FE
:1052D0002309F7329717002083C7B73291E7C547F4
:1052E00017170020A30FF7309717002083C78731C7
:1052F00091E7ED57171700202306F7309717002086
:1053000083C7573091E7ED5717170020A30CF72EEE
:10531000971700209387472FC84309C597F0FF1FB1
:10532000E780A0719717002023A2072E834704006F
:10533000858B85C3171500200345D52C9305900454
:10534000090597F0FF1FE780A0659717002023AF9E
:10535000A72A83471400014517170020A301F72C43
:105360001C44171700202327F72AB240224441018A
:10537000828005458280797126D29714002093841B
:10538000A4269C4406D622D44AD04ECE52CC56CA2D
:105390005AC85EC6638D0726138A018983270A00CF
:1053A00098430D8B09C798431367870098C3171953
:1053B00000201309692583474901B689B28A898B80
:1053C0002E842A8B9D4B89EB83C7040093F7070437
:1053D00085C78945C84035A0EFF05FBDE3FEABFE51
:1053E0009717002083C7E7219607D117E3E6A7FEAA
:1053F00083474901898BE9DB814517150020034567
:10540000B51EEFF0FFA683260A009307A005171725
:1054100000200347671DBCCA937707046380071CFD
:10542000D040B797DBFF938707813E96E16793876C
:10543000076A63F5C71A9307000DBCD293870188EA
:105440009C439044058B1367E70190C7D044D0C3B9
:10545000D8C20347690113672700971600202380ED
:10546000E61C17170020A301371B17170020230D78
:105470005719D857B70600F0FD16719BD8D7984337
:105480009719002093898914758F98C303A5490142
:1054900063090B1423005501A30085002286DA85D9
:1054A000090597F0FF1FE780A0CA938741889C43B6
:1054B00003A74901814517050000130545C698CB90
:1054C000971700202385071097170020A381071046
:1054D00097170020238E070EEFE0FFE7EFF04FD87D
:1054E0008D4717170020A306F70E9717002083C7D4
:1054F00067119D07920717170020232FF70C8327AA
:105500000A00B8537DFF216713073730D8C7131738
:1055100044001307C71CB8D3130700F897160020E0
:105520002388E60A316713073730D8C78347490114
:10553000898B95CF938781879C438297171700208B
:10554000130707010307470183278900635E0708E4
:105550001D8D03C704000D8183A74901418B49CFED
:105560003707800062051307F72F598D88C3EFF0C6
:105570004FCC93878189984301455C578583858B00
:10558000B9C3DC40C165938505A0938787C1B3D6B5
:10559000B702370810FE7D18B3F7B702FD8A1396DD
:1055A00046017443B3F60601D18E74C39306A00F6F
:1055B0003706FCFFAA07B3D7D7027443F18EBA07A8
:1055C000B983D58F7CC3B250225492540259F24908
:1055D000624AD24A424BB24B456182809307000A2D
:1055E000A9BD23205501D1B5E374F5F63707C0A84E
:1055F000B307F7403E95B1BF09041374F40FA380BD
:1056000087003E9423000400A300A4008DB7054545
:105610005DBF011126CA938401899C404EC652C4C5
:10562000984356C25AC006CE22CC4AC80D8B2A8A4D
:10563000AE89328BB68A05C3B84B619BB8CB984311
:105640001367870098C39C438D83858B89C70100AE
:10565000010001000100171400201304E4FA83473D
:10566000440117190020130929F8918B99E7834702
:10567000090093F707046395071681451715002065
:10568000034595F6EFF0CFFE938701889C430327EF
:105690008900B706001098C70327C900D8C3D85798
:1056A000719B13672700D8D79843558F98C38347BA
:1056B00009009840858B93E7E7015CC397170020AA
:1056C000A38567F597170020238157F55C43858BE9
:1056D000ADC75C4085E3171500200345B5F293057F
:1056E0009004090597F0FF1FE780802B9717002093
:1056F00023AEA7F05C400545F1CB17170020034708
:10570000C7F02380E7005C4063000A0E638E090C3B
:10571000A380370148404E86D285090597F0FF1FC8
:10572000E78000A3938741889C435840D8CB9307D8
:10573000000417170020230BF7E8EFF06FB2834740
:10574000640193E7470017170020230AF7EC971727
:105750000020A38D07E697170020A38B07E6971775
:105760000020238707E69D4717170020A303F7E6CD
:10577000971700209387C7DD9C5791CB13060064D1
:10578000C145171500200345A5E9EFE07FAD9387DC
:10579000C1889C4399CBD44390479842518F98C27B
:1057A000D447DC4B9842D98F9CC29717002083C7FF
:1057B00067E59D07920717170020232FF7E09C400D
:1057C0000547014598C313079005B8CBF2406244E2
:1057D000D2444249B249224A924A024B0561828030
:1057E00085450325490079BDA380070025BF397190
:1057F00026DA97140020938424DF83C7040022DC78
:1058000006DE4AD84ED6858B17140020130404DC1C
:105810006389073083470400971900209389C9DE04
:10582000858B6382072C93878189984303298401A0
:105830005C578583858BA1C3DC40C165938505A03A
:10584000B3D6B702370510FE7D15B3F7B702FD8A50
:10585000139646017443E98ED18E74C39306A00F4C
:105860003706FCFFAA07B3D7D7027443F18EBA07F5
:10587000B983D58F7CC381451306F1014A859717FB
:105880000020238507D497F0FF1FE78020E6AA8534
:105890000DE19717002083C757D79306F00F638A4F
:1058A000D700184C034707006305D7006303F700D0
:1058B00089458387040063C10714639105148347F6
:1058C000F1012300F90083C74901918B95C78347F4
:1058D0001900CA9703C7070093070008631EF70063
:1058E0005C481307F00F98C383C7040093E70701D0
:1058F00017170020230AF7CE83A7490013870189D1
:10590000184383C71700A166938636309387070A2A
:1059100054C792073CD3930700F8971600202389B9
:10592000F6CAB167938737305CC71305A00597F0B7
:10593000FF1FE780C0D697F0FF1FE780E0D2EFF0AF
:105940006F959716002083C666CD93F74600638E49
:105950000714171700201307A7BF030647011C48A9
:105960006350060EF117171700202329F7C61C48AD
:1059700003A78900635E060C3387E740834719005D
:1059800093958601E185CA9783C717008E0763D078
:10599000050E63F5E70C1D8F9306000263EBE6002E
:1059A00018486350060CB307F7401717002023214F
:1059B000F7C6894517150020034585C6EFE0EFF7C8
:1059C00083C70400C18BE9CF03A549001716002047
:1059D0000346B6C39716002083C626C35DCD834514
:1059E00015000905EFF0FFC283C70400BD9B171720
:1059F0000020230BF7BE1DA8E38705EC2EC6EFF0B1
:105A00006F89104C9C48B2450D45829703A549000B
:105A100017160020034676BF9716002083C6E6BE01
:105A200009CD834515000905EFF0BFBEF250625461
:105A3000D2544259B2592161828081450145EDB766
:105A40000D47E361F7F23707C0A87117BA9721BF76
:105A5000E3F4E7F2B705C0A8AE9739BF3387E74054
:105A600025BFE372F7F4B706C0A836972DBF1848D4
:105A7000635F0600B307F74093E606F817170020A8
:105A80002328F7B897170020238AD7B81DB7E373E8
:105A9000F7FE3706C0A83297F1BF8145014599B797
:105AA00083471900F917A300F900EFF00FE59C48B0
:105AB000104C81450D45829783471400858B99CB07
:105AC00097170020A38407B09C48014681451145E3
:105AD0008297A9BF97170020238C07AE9C480146E8
