:1000000002007B02008790801A7481F0D2A8D28906
:10001000D288220200888F828E83E5821582AE8389
:10002000700215834E60097F147E0012003180EA51
:1000300022EF1FAA0670011E4A600BE4FDEDC39477
:100040002150EE0D80F72212000612006ED2AF1280
:10005000005B7F647E0012001680F4E4F5C0F5C8F2
:1000600090FC00E04440F0438702000000229080B2
:100070001C7441F0D2AAD28BC28A22787FE4F6D8CF
:09008000FD7581070200473232D0
:00000001FF
