:1000000002001555617274302044656D6F20436F96
:100010006465210A00787FE4F6D8FD7581510206F7
:01002000746B
:1000230002053FE54D2441F8E6054D22783E3007B1
:10003300027841E475F0011205090203822000EB06
:100043007F2ED2008018EF540F2490D43440D4FF75
:1000530030040BEF24BFB41A0050032461FFE54EB4
:100063006002154E0551E5517002055030070D78B9
:100073003EE475F001120509EF0204F70207157457
:1000830003D2078003E4C207F54D8B3E8A3F8940C4
:10009300E4F54EF550F551E54E60077F20120061FF
:1000A30080F5754FFFC201C200C202C203C205C27E
:1000B30006C20812002FFF700D3007057F001200E3
:1000C30072AF51AE5022B4255FC2D5C20412002FC5
:1000D300FF24D0B40A00501A75F00A784E30D505C3
:1000E30008B6FF0106C6A426F620D5047002D20383
:1000F30080D924CFB41A00EF5004C2E5D20402021F
:1001030072D20180C6D20080C0D20280BCD2D58018
:10011300BAD20580B47F201200612002077401B5B2
:100123004E0040F1120026FF12006102009AD2082D
:10013300D2068095120026FB120026FA120026F939
:100143004A4B700679437A037BFF20022EE54E600B
:100153002A7E008E827583001204CA60060EEE6545
:100163004F70F0C2D5EBC0E0EAC0E0E9C0E0EE12A8
:1001730002B9D0E0F9D0E0FAD0E0FB120382FF60CD
:10018300AAEBC0E0EAC0E0E9C0E0120061D0E024DD
:1001930001F9D0E03400FAD0E0FBE54F0460DCD590
:1001A3004FD980877BFF7A0279B5D202809C791080
:1001B30080027908C206C2088008D2D5790A800471
:1001C300790AC2D5E54F047002F54FE4FAFDFEFF4C
:1001D300120026FC7B08200113120026FD7B103041
:1001E300000A120026FE120026FF7B20EC3382D584
:1001F30092D55013C3E43000069FFFE49EFEE42033
:1002030001039DFDE49CFCE4CBF8C201EC700CCF30
:10021300CECDCCE824F8F870F38017C3EF33FFEEAC
:1002230033FEED33FDEC33FCEB33FB994002FB0F64
:10023300D8E9EB300105F8D0E0C448B201C0E00AC8
:10024300EC4D4E4F78207B0070C2EAB54F0040BCA6
:10025300C0E01202BBD0F0D0E0200104C4C0E0C46F
:10026300B201C0F012004AD0F0D5F0EB02009A12AE
:10027300051901375301B15801084C01044201B576
:100283004F01BD4401BD49011D4301C35501A746AB
:1002930001A74501A747036350010C2D01102E014F
:1002A300332B011423013120034C2A00CC480000D6
:1002B300012B3F3F3F00790AA2D5200314300509E3
:1002C300B910020404B9080104A2D52006025001A2
:1002D300042002689202B54E005034C0E07F203003
:1002E30003197F30A20272067205500F120312C265
:1002F30002C206C205C2087F30800F300503E9C081
:10030300E0120061300503D0E0F9D0E0B54ECC3007
:1003130005177F30B9100C1200617F583004077F36
:10032300788003B908031200613002057F2D0200B3
:10033300617F202008F87F2B2006F322920280CFD2
:10034300286E756C6C2900D2011200263001F8C2A8
:1003530001784E30D50108F60200CC2D50434958A0
:100363001200262403B405004001E490035E9312B7
:100373000052743A120052D203754E040201B1BB0B
:10038300010689828A83E0225002E722BBFE02E350
:100393002289828A83E49322EF8DF0A4A8F0CF8C84
:1003A300F0A428CE8DF0A42EFE22E88FF0A4CC8BEF
:1003B300F0A42CFCE98EF0A42CFC8AF0EDA42CFC18
:1003C300EA8EF0A4CDA8F08BF0A42DCC3825F0FD57
:1003D300E98FF0A42CCD35F0FCEB8EF0A4FEA9F050
:1003E300EB8FF0A4CFC5F02ECD39FEE43CFCEAA49C
:1003F3002DCE35F0FDE43CFC2275F008758200EF4C
:100403002FFFEE33FECD33CDCC33CCC58233C58243
:100413009BED9AEC99E58298400CF582EE9BFEEDFC
:100423009AFDEC99FC0FD5F0D6E4CEFBE4CDFAE4CB
:10043300CCF9A88222B800C1B90059BA002DEC8BBF
:10044300F084CFCECDFCE5F0CBF97818EF2FFFEE9B
:1004530033FEED33FDEC33FCEB33FB10D703994054
:1004630004EB99FB0FD8E5E4F9FA227818EF2FFF94
:10047300EE33FEED33FDEC33FCC933C910D7059BD6
:10048300E99A4007EC9BFCE99AF90FD8E0E4C9FA32
:10049300E4CCFB2275F010EF2FFFEE33FEED33FDBE
:1004A300CC33CCC833C810D7079BEC9AE899400AE1
:1004B300ED9BFDEC9AFCE899F80FD5F0DAE4CDFB5F
:1004C300E4CCFAE4C8F922BB010CE58229F582E504
:1004D300833AF583E0225006E92582F8E622BBFE43
:1004E30006E92582F8E222E58229F582E5833AF5D9
:1004F30083E49322BB010689828A83F0225002F7A8
:1005030022BBFE01F322FAE6FB0808E6F925F0F622
:1005130018E6CA3AF622D083D082F8E493701274B4
:100523000193700DA3A393F8740193F5828883E478
:10053300737402936860EFA3A3A380DFC0E0C0F0ED
:10054300C083C082C0D075D000C00730981DC29848
:10055300900100E004F0E075F06484E5F0F0E0243D
:1005630002F582E43401F583E599F030992BC299C1
:1005730090017BE0FF90017AE06F601BA3E004F041
:10058300E075F01484E5F0F0E02466F582E43401CC
:10059300F583E0F5998002C209D007D0D0D082D08C
:1005A30083D0F0D0E03290017BE0FD90017AE0FC53
:1005B300C39D5006C3ED9CFE800DED2414FE9001F7
:1005C3007AE0FDC3EE9DFEEED3940140D9C2AC9018
:1005D300017AE004F0E075F01484E5F0F0E02466BD
:1005E300F582E43401F583EFF0200920D2AC9001C9
:1005F3007BE004F0E075F01484E5F0F0E02466F5A8
:1006030082E43401F583E0F599D20922D2AC228F3A
:10061300268E258D248C239080197403F0908018E6
:10062300F0E490017AF0A3F0900100F0A3F0C20986
:10063300E58954CF4420F589E47FC0FEFDFCAB2659
:10064300AA25A924A8231203ADA804A905AA06ABC9
:10065300077F007E807D517C01120438EFF404F59E
:100663008D858D8BC2ABD28E438780759850D2AC6B
:10067300227F0612073C7F007E4B7D007C00120622
:1006830012D2AF7BFF7A0079031206B7900100E024
:10069300FFA3E06F60F6E004F0E075F06484E5F03A
:1006A300F0E02402F582E43401F583E0F522FF1241
:1006B30005A980D88B238A248925753500753600D2
:1006C3007537268B388A39893A85353B85363C859B
:1006D300373D7B017A0079001206E77B017A0079C6
:1006E30000020762853841853942853A43EBC53BB1
:1006F300FBEAC53CFAE9C53DF97F09784412038258
:10070300F60809E970010ADFF4AB3BAA3CA93D02F4
:100713000082EFB40A07740D120720740A3098118F
:10072300A899B8130CC2983098FDA899C298B8112B
:10073300F63099FDC299F59922EFC39402401FEF59
:10074300D394085019EF24FE33333354F84480F51F
:10075300ADE5AD30E0FBE5A254F84404F5A2228BED
:10076300388A39893AAB38AA39A93A120382601315
:10077300053AE53A7002053914F9120382FF1205AE
:04078300A980E22245
:00000001FF
