:100000000207418B238A24892575350075360075D2
:1000100037268B388A39893A85353B85363C853792
:100020003D7B017A0079001206B67B017A007900E7
:1000300002070B02053DE54D2441F8E6054D227807
:100040003E3007027841E475F00112050702039281
:100050002000EB7F2ED2008018EF540F2490D43470
:1000600040D4FF30040BEF24BFB41A0050032461C6
:10007000FFE54E6002154E0551E551700205503006
:10008000070D783EE475F001120507EF0204F50252
:1000900006E47403D2078003E4C207F54D8B3E8A61
:1000A0003F8940E4F54EF550F551E54E60077F205D
:1000B00012007180F5754FFFC201C200C202C20377
:1000C000C205C206C20812003FFF700D3007057F4F
:1000D00000120082AF51AE5022B4255FC2D5C204D7
:1000E00012003FFF24D0B40A00501A75F00A784E6F
:1000F00030D50508B6FF0106C6A426F620D5047043
:1001000002D20380D924CFB41A00EF5004C2E5D242
:1001100004020282D20180C6D20080C0D20280BC1A
:10012000D2D580BAD20580B47F2012007120020798
:100130007401B54E0040F1120036FF12007102004A
:10014000AAD208D2068095120036FB120036FA12A7
:100150000036F94A4B700679537A037BFF20022E52
:10016000E54E602A7E008E827583001204C8600608
:100170000EEE654F70F0C2D5EBC0E0EAC0E0E9C01A
:10018000E0EE1202C9D0E0F9D0E0FAD0E0FB1203B1
:1001900092FF60AAEBC0E0EAC0E0E9C0E0120071A3
:1001A000D0E02401F9D0E03400FAD0E0FBE54F04C0
:1001B00060DCD54FD980877BFF7A0279C5D2028077
:1001C0009C791080027908C206C2088008D2D579CD
:1001D0000A8004790AC2D5E54F047002F54FE4FAAB
:1001E000FDFEFF120036FC7B08200113120036FDD5
:1001F0007B1030000A120036FE120036FF7B20EC26
:100200003382D592D55013C3E43000069FFFE49E9D
:10021000FEE42001039DFDE49CFCE4CBF8C201EC6C
:10022000700CCFCECDCCE824F8F870F38017C3EF74
:1002300033FFEE33FEED33FDEC33FCEB33FB994043
:1002400002FB0FD8E9EB300105F8D0E0C448B20159
:10025000C0E00AEC4D4E4F78207B0070C2EAB54FEB
:100260000040BCC0E01202CBD0F0D0E0200104C4BA
:10027000C0E0C4B201C0F012005AD0F0D5F0EB02D9
:1002800000AA12051701475301C15801184C011467
:100290004201C54F01CD4401CD49012D4301D35544
:1002A00001B74601B74501B747037350011C2D0143
:1002B000202E01432B012423014120035C2A00DC72
:1002C000480000013B3F3F3F00790AA2D5200314BC
:1002D000300509B910020404B9080104A2D52006AA
:1002E000025001042002689202B54E005034C0E072
:1002F0007F203003197F30A20272067205500F1260
:100300000322C202C206C205C2087F30800F300538
:1003100003E9C0E0120071300503D0E0F9D0E0B588
:100320004ECC3005177F30B9100C1200717F583059
:1003300004077F788003B908031200713002057F3B
:100340002D0200717F202008F87F2B2006F32292D7
:100350000280CF286E756C6C2900D20112003630F5
:1003600001F8C201784E30D50108F60200DC2D50AC
:100370004349581200362403B405004001E49003B9
:100380006E93120062743A120062D203754E040238
:1003900001C1BB010689828A83E0225002E722BBA9
:1003A000FE02E32289828A83E49322E88FF0A4CCC0
:1003B0008BF0A42CFCE98EF0A42CFC8AF0EDA42C8C
:1003C000FCEA8EF0A4CDA8F08BF0A42DCC3825F05B
:1003D000FDE98FF0A42CCD35F0FCEB8EF0A4FEA946
:1003E000F0EB8FF0A4CFC5F02ECD39FEE43CFCEA53
:1003F000A42DCE35F0FDE43CFC2275F0087582009A
:10040000EF2FFFEE33FECD33CDCC33CCC58233C5D9
:10041000829BED9AEC99E58298400CF582EE9BFE6A
:10042000ED9AFDEC99FC0FD5F0D6E4CEFBE4CDFAC5
:10043000E4CCF9A88222B800C1B90059BA002DEC69
:100440008BF084CFCECDFCE5F0CBF97818EF2FFF01
:10045000EE33FEED33FDEC33FCEB33FB10D70399A9
:100460004004EB99FB0FD8E5E4F9FA227818EF2F56
:10047000FFEE33FEED33FDEC33FCC933C910D70575
:100480009BE99A4007EC9BFCE99AF90FD8E0E4C994
:10049000FAE4CCFB2275F010EF2FFFEE33FEED33C4
:1004A000FDCC33CCC833C810D7079BEC9AE89940F1
:1004B0000AED9BFDEC9AFCE899F80FD5F0DAE4CD53
:1004C000FBE4CCFAE4C8F922BB010CE58229F582F1
:1004D000E5833AF583E0225006E92582F8E622BB5F
:1004E000FE06E92582F8E222E58229F582E5833AD3
:1004F000F583E49322BB010689828A83F0225002AD
:10050000F722BBFE01F322FAE6FB0808E6F925F024
:10051000F618E6CA3AF622D083D082F8E493701235
:10052000740193700DA3A393F8740193F5828883EB
:10053000E4737402936860EFA3A3A380DFC0E0C0FC
:10054000F0C083C082C0D075D000C007E59A30E00B
:1005500023E59A54FC4401F59A900100E004F0E090
:1005600075F06484E5F0F0E02402F582E43401F5EE
:1005700083E59BF0E59A30E131E59A54FC4402F5BD
:100580009A90017BE0FF90017AE06F601BA3E0048A
:10059000F0E075F01484E5F0F0E02466F582E434D0
:1005A00001F583E0F59B8002C209D007D0D0D0824C
:1005B000D083D0F0D0E03290017BE0FD90017AE072
:1005C000FCC39D5006C3ED9CFE800DED2414FE90EF
:1005D000017AE0FDC3EE9DFEEED3940140D9C2AE98
:1005E00090017AE004F0E075F01484E5F0F0E02486
:1005F00066F582E43401F583EFF0200920D2AE9055
:10060000017BE004F0E075F01484E5F0F0E024668E
:10061000F582E43401F583E0F59BD20922D2AE22C3
:100620008F268E258D248C23E490017AF0A3F09000
:100630000100F0A3F0C2097F20FEFDFCAB26AA2535
:10064000A924A8231203ABA804A905AA06AB077F17
:10065000007E407D387C00120436C3E49FFF7404A2
:100660009EAD07FC90800A7403F0908009F08C9D89
:100670008D9C759AD0D2AE227F007EC27D017C0017
:10068000120620D2AF7BFF7A077930120003900167
:1006900000E0FFA3E06F60F6E004F0E075F0648432
:1006A000E5F0F0E02402F582E43401F583E0F52280
:1006B000FF1205B780D8853841853942853A43EB2A
:1006C000C53BFBEAC53CFAE9C53DF97F0978441210
:1006D0000392F60809E970010ADFF4AB3BAA3CA9D2
:1006E0003D020092EFB40A07740D1206EF740A304F
:1006F0009811A899B8130CC2983098FDA899C2987F
:10070000B811F63099FDC299F599228B388A39894A
:100710003AAB38AA39A93A1203926013053AE53A7E
:100720007002053914F9120392FF1205B780E22214
:1007300055617274312044656D6F20436F64650AA2
:0D07400000787FE4F6D8FD7581510206783F
:00000001FF
