:100000000202FCEC4D6011E8497017ED33EC33044B
:10001000600DE4FCFFFEFD22E933E8330470F802D2
:10002000021C1201E758046009E4CC248150062820
:100030005009020226284003020223C0E0EB4A7066
:1000400044B98006D0E0FB020212EF4E701CBD8066
:1000500008EBFFEAFEE9FD80EBE98DF0A4FEE5F098
:100060000200ECE9CDF9EAFEEBFFEF89F0A4FCE534
:10007000F0CE89F0A42EFFE435F0CD89F0A42DFE5A
:10008000E435F08067EF4E7005BD80D780C3EF8BFD
:10009000F0A4ACF0EE8BF0A42CFCE435F0F8EF8A81
:1000A000F0A42CE5F038FCE433CB8DF0A42CFCE577
:1000B000F03BF8EE8AF0A42CFCE5F038F8E433CFFE
:1000C00089F0A42CFCE5F038CF3400CE89F0A42FC1
:1000D000FFE5F03EFEE433C98DF0A42EFEE5F039D5
:1000E000CD8AF0A42FFFE5F03EFEE43DFD33D0E0E5
:1000F000FB50070BBB000F020226EC2CFCEF33FF7A
:10010000EE33FEED33FD0201FE020226EC5D0460DB
:1001100005E85904700302021C1201E7580460F656
:10012000EC4860F2EC7004FDFEFF22C860DB248125
:10013000C85009C398600250060202239850CAF5BD
:1001400082E9294B4A7005AB8202021275F0007CED
:100150001A7880C3EF9BEE9AED99400DC3EF9BFF99
:10016000EE9AFEED99FDE842F0DC23ACF0D0E0FF22
:10017000D0E0FED0E0FDAB8220E7101BEB60BAECD4
:100180002CFCEF33FFEE33FEED33FD0201FEE803FE
:10019000F830E705C0F075F000EF2FFFEE33FEED0D
:1001A00033FD40B830E7C280AA75F020800E75F0AC
:1001B00010800575F0087D007E007F003392D530F9
:1001C000D503120231EC334010EF33FFEE33FEED76
:1001D00033FDEC33FCD5F0ED22E5F0247EA2D513FF
:1001E000CC92E7CDCEFF22E9D2E7C933E833F892CB
:1001F000D5EDD2E7CD33EC33FC5002B2D522EC3052
:10020000E7100FBF000C0EBE00080DBD00040BEB85
:100210006014A2D5EB13FCED92E7FD2274FFFCFD08
:10022000FEFF22E480F8A2D574FF13FC7D80E480F9
:10023000EFC3E49FFFE49EFEE49DFDE49CFC227579
:10024000EFE1D2AF75B91C1202A78FBB75BAE943B3
:10025000B980E5B930E5FB43B920AFBDEFFEADBCD9
:100260007C00E42DF509EC3EF508C4F854F0C868AC
:10027000F508E509C4540F48F509AC08FDE412017E
:10028000AEE4FBFA79C078401200037B007AF07983
:100290007F784512010C8F0D8E0C8D0B8C0A7F64BC
:1002A0007E001202CB80A890FC017480F0E490FCE8
:1002B00006F090FC057424F090FC017481F0A3E03A
:1002C000FFE490FC01F0EF543FFF228F828E83E524
:1002D000821582AE83700215834E60097F147E0002
:1002E0001202E680EA22EF1FAA0670011E4A600B86
:1002F000E4FDEDC3940F50EE0D80F722787FE4F615
:08030000D8FD75810D02023FDA
:00000001FF
