:1000000002012690FC03742BF090FC017480F090A8
:10001000FC067401F0E490FC05F090FC017481F0A2
:10002000A3E0FFE48F0FF50EF50DF50CAE0EAD0D50
:10003000AC0CFB7A01F9F81200C88F0F8E0E8D0DF3
:100040008C0C90FC02E0FFE50F4FF50FE50EF50E6E
:10005000E50DF50DE50CF50CAF0FAE0EAD0DFCE4A6
:10006000FB7A01F9F81200C88F0F8E0E8D0D8C0CE3
:1000700090FC02E0FFE50F4FF50FE50EF50EE50DE4
:10008000F50DE50CF50CAF0FAE0EAD0DFCE4FB7AF3
:1000900001F9F81200C88F0F8E0E8D0D8C0C90FC9C
:1000A00002E0FFE50F4FF50FE50EF50EE50DF50D3E
:1000B000E50CF50CE490FC01F090FC0374AAF0AFA1
:1000C0000FAE0EAD0DAC0C22E88FF0A4CC8BF0A4DB
:1000D0002CFCE98EF0A42CFC8AF0EDA42CFCEA8E1A
:1000E000F0A4CDA8F08BF0A42DCC3825F0FDE98F3D
:1000F000F0A42CCD35F0FCEB8EF0A4FEA9F0EB8F34
:10010000F0A4CFC5F02ECD39FEE43CFCEAA42DCE00
:1001100035F0FDE43CFC22D2AF1200038F0B8E0AB7
:100120008D098C0880FE787FE4F6D8FD75810F027A
:020130000117B5
:00000001FF
