:1000000002024975E8E0D2AF90FC04747FF012015F
:10001000CB751002E4FFFE12015F7811E6B4AA0668
:1000200008E66455604C1201CB7510027F407E00DB
:1000300012015F7811E6B4AA0608E664556051E43F
:100040007851F608760108760208760308760408E7
:100050007605087606087607087608087609781186
:1000600076AA087655781DF6F5081201AEB40AFA9C
:1000700080781201CB75100DE4FFFE12015FE4F5EC
:1000800009F5081201D5B40AFAE509781D66601F62
:100090001201CB75100D7F407E0012015FE4F5095F
:1000A000F5081201D5B40AFAE509781D667090E4E6
:1000B000F50874132508F8E6FF74512508F8A6071B
:1000C0000508E508B40AEBE4F50874512508F806BC
:1000D0000508E508B40AF3781176AA087655E4789D
:1000E0001DF6F5081201AEB40AFAE4FF120100E4AD
:1000F000FF12010A7F011201007F0112010A80FE36
:1001000012020F7B007A007911228B0A8A0B890C6C
:1001100012023785F00DF50E120242E490FC06F053
:1001200090FC05F090FC017408F0E4FFFEAB0A05BA
:100130000CE50CAA0B7002050B14F91201E490FCFB
:1001400002F00FBF00010EEF64404E70E0E50D902D
:10015000FC06F090FC05E50EF0740212022C228BD6
:100160000C8A0D890EAC06E490FC01F0120242905C
:10017000FC06ECF090FC05EFF090FC017401F0E45B
:10018000FFFEC3EF9510EE950F501E90FC02E0FDB0
:10019000AB0C050EE50EAA0D7002050D14F9ED125B
:1001A00001FD0FBF00010E80D9E412022C22745110
:1001B0002508F8E6FF74132508F8A60774512508EA
:1001C000F8E6781D26F60508E508227B007A007916
:1001D00011750F002274132508F8E62509F50905A5
:1001E00008E50822BB010689828A83E0225002E7E3
:1001F00022BBFE02E32289828A83E49322BB0106AA
:1002000089828A83F0225002F722BBFE01F3221278
:100210000237FDACF0120242AF0490FC06EFF0AFE3
:100220000590FC05EFF0740312022C2290FC01F003
:1002300090FC0374AAF022E490FC01F0EF75F0400A
:10024000A42290FC03742AF022787FE4F6D8FD758E
:05025000815A020003C9
:00000001FF
