:100000000205620521E521C394044018E4F521FFAF
:10001000784BE6FEEFC39E500B74562FF8E6600156
:0A002000160F80EC2243F880223214
:03002B000206C109
:10003300020029BB010689828A83F0225002F7223B
:10004300BBFE01F322EF8DF0A4A8F0CF8CF0A4281F
:10005300CE8DF0A42EFE22BC000BBE0029EF8DF046
:1000630084FFADF022E4CCF875F008EF2FFFEE33F8
:10007300FEEC33FCEE9DEC984005FCEE9DFE0FD5A7
:10008300F0E9E4CEFD22EDF8F5F0EE8420D21CFE7B
:10009300ADF075F008EF2FFFED33FD4007985006E4
:1000A300D5F0F222C398FD0FD5F0EA22C2D5EC3089
:1000B300E709B2D5E4C39DFDE49CFCEE30E715B23D
:1000C300D5E4C39FFFE49EFE12005AC3E49DFDE402
:1000D3009CFC800312005A30D507C3E49FFFE49EC3
:1000E300FE22BB0110E58229F582E5833AF583E020
:1000F300F5F0A3E0225009E92582F886F008E6220C
:10010300BBFE0AE92582F8E2F5F008E222E5832A3C
:10011300F583E993F5F0A3E9932275F0087582005E
:10012300EF2FFFEE33FECD33CDCC33CCC58233C5B9
:10013300829BED9AEC99E58298400CF582EE9BFE4A
:10014300ED9AFDEC99FC0FD5F0D6E4CEFBE4CDFAA5
:10015300E4CCF9A88222B800C1B90059BA002DEC49
:100163008BF084CFCECDFCE5F0CBF97818EF2FFFE1
:10017300EE33FEED33FDEC33FCEB33FB10D7039989
:100183004004EB99FB0FD8E5E4F9FA227818EF2F36
:10019300FFEE33FEED33FDEC33FCC933C910D70555
:1001A3009BE99A4007EC9BFCE99AF90FD8E0E4C974
:1001B300FAE4CCFB2275F010EF2FFFEE33FEED33A4
:1001C300FDCC33CCC833C810D7079BEC9AE89940D1
:1001D3000AED9BFDEC9AFCE899F80FD5F0DAE4CD33
:1001E300FBE4CCFAE4C8F922E493FB740193FA74B8
:1001F3000293F922EC8EF0A4CCC5F0CCCDF8EFA499
:10020300CEC5F02DFDE43CFCE8A42EC8C5F03DFDB1
:10021300E43CFCEFA4FFE5F028FEE43DFDE43CFCF8
:1002230022E4F514E523B5140812062B12060D80FB
:100233002912062B12060D12063212061AE5232581
:10024300E02430F8E6FA08E6FB120720120632F83B
:10025300E6FC08E6C39FFFEC9EFEE51425E0245769
:10026300120600E51425E0242D12061A1203438F0B
:10027300151206141203438F16E51664026008E58F
:100283001664036002C201E5157051E516703A1257
:10029300064EFF552C701B1206556003020333EF05
:1002A300422C74552514F8763C74562514F87602BE
:1002B300807E74562514F8760274552514F8E6707A
:1002C3006F12064EF4522C804712064EFF552C60D7
:1002D30055120655705AEFF4522C800FE51670072D
:1002E3001205EEE4FD8044E52C600A120632120585
:1002F300F47D028036E51425E0242D12060D120646
:10030300147B197A00120858EF601B1206557020EF
:1003130012062B1205F412062B12060D12063212C8
:1003230006007D0280051205EEAD16AF141208DD3E
:100333000514E514C394015003020227852C2A22D5
:10034300E51490090793552C24FF92027B197A0038
:10035300AF1412065C22E5267011C2007852F6F53E
:100363002412002575260275223222E526640260D6
:1003730003020429200003020429C2001522E522F6
:100383006006E4F524020025E4F514120639E514A9
:100393009FEE6480F87480985077E4FFE51425E0BD
:1003A300244C12061AE514120623EF25E028F8A6BA
:1003B3000408A6050FBF05E474532514F8E4F6E515
:1003C30014784B66604B120607E51425E0243012BF
:1003D3000600120607E5141205FC120607E51425AC
:1003E300E02457120600E51425E025E02405F582F4
:1003F300E43409F583E493FE740193FFE51425E0E7
:1004030024501206007D02AF141208DD0514020306
:100413008E7B007A0079301207B98F23E4F524121A
:100423000025782F760122E4F514120639E5149F8E
:10043300EE6480F874809840030204D17453251449
:10044300F80674532514F8E6C394054002E4F6C293
:10045300ADE514120609120621C00074532514F8E1
:10046300E6D00025E028120600D2ADE4F515F51616
:10047300F517F51874FFFAFBE4FF120621EF25E0E8
:100483002812061A2516F516EC3515F515D3ED9534
:1004930018EC951740048C178D18C3ED9BEC9A50FC
:1004A30004AA04AB050FBF05D1C3E5169518CFE524
:1004B300159517CFC39BCF9AFE7C007D0312005A7C
:1004C300E51425E02447120600051402042D22E555
:1004D300FB30E00975FB0185E20885E109E5FB30A6
:1004E300E10975FB0285E40A85E30BE5FB30E209CC
:1004F30075FB0485E60C85E50DE5FB30E30975FB2B
:100503000885D90E85E70FE5FB30E40975FB1085F7
:10051300DB1085DA11E5FB30E50975FB2085DD127B
:1005230085DC13E4FF784BE6FEEFC39E501A744656
:100533002FF8E625E0240812061AEF25E0244CF8EC
:10054300A60408A6050F80DDEE25E0244CF8A612CC
:1005530008A613D2007852E660011675A1A5227889
:100563007FE4F6D8FD75815A0205A90208CEE4930B
:10057300A3F8E493A34003F68001F208DFF4802993
:10058300E493A3F85407240CC8C333C4540F442082
:10059300C8834004F456800146F6DFE4800B010271
:1005A3000408102040809008EAE47E019360BCA315
:1005B300FF543F30E509541FFEE493A360010ECFBF
:1005C30054C025E060A840B8E493A3FAE493A3F8E9
:1005D300E493A3C8C582C8CAC583CAF0A3C8C582A9
:1005E300C8CAC583CADFE9DEE780BEE51425E02477
:1005F30057F8E6FE08E6FFE51425E0242DF8A606E5
:1006030008A60722E51425E0244CF8E6FE08E6FFD9
:1006130022E51425E02457F8E6FC08E6FD22E5145C
:1006230075F00AA42432F822E51425E0244722E5D4
:100633001425E0243022784BE62401FFE433FEC383
:1006430022AB07E4F9F8AF1EAE1D22E514900907AB
:10065300932274562514F8E6228A178B18A907E902
:1006630025E02430F8E6FE08E6C39DFFEE9CAB07C9
:10067300FAE925E02450F8E6FE08E6FF30020B7C99
:10068300007D091200480D1200AF12089740037F46
:100693000022D3EB9518E51712089B40037F012234
:1006A300C3EA6480948040037F0222C3E49518FF69
:1006B300E49517FE1208977F0440027F0322C0E0EF
:1006C300C0F0C083C082C0D075D000C000C001C0DC
:1006D30002C003C004C005C006C007E5D530E01B57
:1006E30043D501120003E52B6002152B051FE51FFF
:1006F300C394804006751F001208A3E5FB60031234
:1007030004D2D007D006D005D004D003D002D00144
:10071300D000D0D0D082D083D0F0D0E0328E178FEB
:10072300188A198B1A8D828C83AE19AF1AAC17AD48
:10073300181201F78F1E8E1D8D1C8C1BAE83AF828A
:10074300AA06120644120159E518251ACDE51735F4
:1007530019CDC39FFFED9EFA120644AD1CAC1B12CC
:100763000159C3E51A9FFFE5199EFE22784B7601D6
:10077300E4FFFEEE25E025E02403F582E43409F5E9
:1007830083740193FDAC070F74462CF8A6050EBEC7
:1007930001E143C84075D580E4F5D612082975F9FF
:1007A3002F75F84875DF57D2ADC200E4F52AF52C52
:1007B300782FF6F526228B158A16891774FFF518FC
:1007C300F519E4FE784BE6FDEEC39D5027AB15AA61
:1007D30016A91775F002EEA4F58285F0831200E5E1
:1007E300FDACF0C39519EC951850068C188D19AF14
:1007F300060E80D022782FE61460060470270203C9
:1008030059300010C20012042AE4F524120025D244
:10081300011202247852E6C394054009E4F5F87501
:10082300FB3F12076F2290801D7404F0E4FF784BA6
:10083300E6FEEFC39E501D74462FF8E675F003A441
:1008430024F4F582E43408F5831201EB74041200F6
:10085300360F80DA22C3EF9DFFEE9CFED3EF9BEAB7
:100863006480F8EE6480985017C3E49BFDE49AFC1F
:10087300C3EF9DEC6480F8EE64809840037F01220F
:100883007F0022E50025E02447F8E6FE08E6FFE5C1
:100893000025E022C3EB9FEE6480F8EA648098228F
:1008A300785206E4FF74552FF8E66001160FBF0176
:1008B300F4E529600215292275E8E043C84075A0D4
:1008C30081E4F5A375A24B75A1A5221208BBD2AF93
:1008D30012076F1207F8E52A80F9ED90090893FED5
:1008E30074562FF8A60622011F00012100012200E1
:1008F3000001801901801A01801C01800101801808
:0A09030000030064010264501E1E90
:00000001FF
