:100000000200AA75E8E0E4F5C9D2AF75B942F5B1CE
:10001000F5AA75A964F59C759B3290801A7406F058
:1000200043C70175BB02E4F5B375AE0375ADE87562
:100030009101759F2C9080017406F043C70475BA36
:100040001AE4F5B2F5AC75AB14F59E759D06F59303
:1000500075920DF59575943290801C7406F043C727
:1000600002E4F509E59720E2FBE50975F00384AFAA
:10007000F0E50875F003A42472F582E43401F583F9
:10008000E5822FF582E43583F583E493F59605093F
:10009000E509B418CF0508E508C394064003E4F564
:1000A000087FF47E0112015380B7787FE4F6D8FD13
:1000B0007581090200F1020003E493A3F8E493A31D
:1000C0004003F68001F208DFF48029E493A3F8549A
:1000D00007240CC8C333C4540F4420C8834004F41D
:1000E00056800146F6DFE4800B0102040810204030
:1000F0008090016EE47E019360BCA3FF543F30E525
:1001000009541FFEE493A360010ECF54C025E060A4
:10011000A840B8E493A3FAE493A3F8E493A3C8C572
:1001200082C8CAC583CAF0A3C8C582C8CAC583CA63
:10013000DFE9DEE780BEEF25E0FFEE33FEEF1FAA2A
:100140000670011E4A600BE4FDEDC3942150EE0DD4
:1001500080F7228F828E83E5821582AE837002152E
:10016000834E60097F147E0012013680EA22010866
:100170000000FF0000FFFF0000FF0000FFFF000085
:04018000FFFF00FF7E
:00000001FF
