:100000000200E975E8E0D2AF9080187486F0A3F0A2
:1000100075C08DE4F5C175C36943C020E5C630E005
:10002000FBE5C564086002806575C4CA43C601E586
:10003000C630E0FBE5C5641860028052E4F5C443B5
:10004000C601E5C630E0FBE5C564286002803F4399
:10005000C02043C601E5C630E0FBE5C56408600288
:10006000802C75C4CB43C601E5C630E0FBE5C56412
:10007000406002801943C004E4FF43C601E5C63076
:10008000E0FBE5C56428600BE5C56430600543C648
:1000900001801574082FF8A6C4BF120553C0FB8059
:1000A0000343C0040FBF14D243C01043C6017F6492
:1000B0007E001200B80200198F828E83E5821582BD
:1000C000AE83700215834E60097F147E001200D348
:1000D00080EA22EF1FAA0670011E4A600BE4FDEDC4
:1000E000C3942150EE0D80F722787FE4F6D8FD7599
:0500F000811B0200036A
:00000001FF
