:1000000002005ED2AF9081017401F0908009748685
:10001000F0A3F075B1CC75B26575B420D2EC80FE5A
:10002000540000000102030405060708090A0B0C2E
:080030000D0E0F101112130058
:10005B000200EA787FE4F6D8FD7581200200A50244
:10006B000003E493A3F8E493A34003F68001F208A2
:10007B00DFF48029E493A3F85407240CC8C333C4DA
:10008B00540F4420C8834004F456800146F6DFE445
:10009B00800B0102040810204080900020E47E01B8
:1000AB009360BCA3FF543F30E509541FFEE493A3B8
:1000BB0060010ECF54C025E060A840B8E493A3FACA
:1000CB00E493A3F8E493A3C8C582C8CAC583CAF056
:1000DB00A3C8C582C8CAC583CADFE9DEE780BEC034
:1000EB00E0C083C082C0D075D000C007E5B730E058
:1000FB0064AFB6BF60077508FFC200803BEF64803A
:10010B00703B3000140508E50825092400F582E44E
:10011B003400F583E0F5B58039E508B4FF0885B503
:10012B00097508008012E50825092400F582E434DE
:10013B0000F583E5B5F0050843B1048015BFA8129F
:10014B00E50825092400F582E43400F583E0F5B5D4
:10015B00D20043B701D007D0D0D082D083D0E032C9
:00000001FF
