:10000000020081D2AF9080007403F0A3F0A3F0A3AC
:10001000F090800FF090801FF090801EF090801D77
:10002000F090801CF0908007F0908006F0908005A2
:10003000F09080047405F0E4FF8FC0E4F5E30FBF97
:1000400009F790801A7403F0A3F043A108E5A130EA
:10005000E2FBE4F5E5F5E4908117F075E22775E140
:1000600060FF8FC075E3FF0FBF09F7E4F5B175A11D
:10007000085386F7E58754844402F5870000008022
:0D008000FE787FE4F6D8FD758107020003CD
:00000001FF
